:100000000010002051180000871800008918000017
:100010008B1800008D1800008F1800008518000054
:100020008518000085180000851800009118000050
:10003000931800008518000095180000971800001C
:10004000991800009B18000031100000F10F00000B
:10005000A1180000A3180000A5180000A7180000B0
:10006000A9180000AB180000AD180000AF18000080
:10007000B1180000B3180000B5180000B718000050
:10008000B9180000BB180000BD180000BF18000020
:10009000C1180000C3180000C518000000000000CF
:1000A0000000000000000000000000000000000050
:1000B0000000000000000000000000000000000040
:1000C0000000000000000000000000000000000030
:1000D0000000000000000000000000000000000020
:1000E0000000000000000000000000000000000010
:1000F0000000000000000000000000000000000000
:1001000010B5054C237833B9044810B10448AFF357
:1001100000800121217010BD90030020000000002C
:10012000401A000008B5064B1BB106480649AFF35C
:1001300000800648016811B1054A02B1904708BD28
:1001400000000000401A00009403002090030020EB
:1001500000000000154B002B08BF134B9D46A3F574
:10016000803A00218B460F461348144A121A01F0B8
:1001700009FC0F4B002B00D098470E4B002B00D0F2
:1001800098470020002104460D4600200C4900221B
:10019000002301F09BFB01F0CFFB2046294600F035
:1001A00097FF01F09DFB00BF000008000010002039
:1001B000000000000000000090030020F405002073
:1001C0000D19000008B500F0CBFE00F089FE00F02C
:1001D00059FE00F071FE00F0B9FE4BF68030BDE82C
:1001E000084000F03BBE70B5B0B005466C4618AE96
:1001F000032001F037F9822001F05CF9FF2001F0C3
:1002000059F92070FF2001F055F96070FF2001F0CE
:1002100051F9A070FF2001F04DF9E070FF2001F0CE
:1002200049F92071FF2001F045F96071032006347F
:1002300001F02CF9B442DBD168462946602206233E
:1002400000F018FA30B070BD70B5B0B005466C461D
:1002500018AE042001F006F9822001F02BF9FF20EE
:1002600001F028F92070FF2001F024F96070FF20D0
:1002700001F020F9A070FF2001F01CF9E070FF20D0
:1002800001F018F92071FF2001F014F960710420C9
:10029000063401F0FBF8B442DBD1684629466022FF
:1002A000062300F0E7F930B070BD00002DE9F74FEC
:1002B0000446052001F0D6F84C2001F0FBF82E2072
:1002C00001F0F8F8052001F0E1F8052001F0CAF886
:1002D0004C2001F0EFF82A2001F0ECF8052001F0A5
:1002E000D5F82C4B1978012908BF4FF4A07007D01E
:1002F000042901D1284803E007290CBF27482848D2
:1003000000F0ACFD052001F0ADF8C22001F0D2F8FC
:10031000FF2001F0CFF88346FF2001F0CBF8024622
:10032000FF20019201F0C6F88146FF2001F0C2F8DB
:100330008246FF2001F0BEF80746FF2001F0BAF820
:100340008046FF2001F0B6F80546FF2001F0B2F824
:100350000646052001F09AF80198CBF3C70B43B28B
:100360004FFA8AFAC9F3C7024FFA88F8C7F347076A
:1003700076B2C5F387054BEA431142EA4A1947EAC8
:10038000C81745EA86152180A4F80290A780E58069
:10039000BDE8FE8F0100002000E2040000C4090057
:1003A000006A180008B52D4A2D4B18B901211170AB
:1003B00002200EE0012803D1042010700E2008E076
:1003C000022803D1072111701A2002E02E2111709A
:1003D00052201870052001F045F84B2001F06AF812
:1003E000012001F067F8052001F050F8052001F028
:1003F00039F84C2001F05EF8282001F05BF8052068
:1004000001F044F8052001F02DF84E2001F052F8DB
:10041000072001F04FF8052001F038F8052001F021
:1004200021F8512001F046F80C4A107801F042F80A
:10043000052001F02BF8052001F014F8522001F0FE
:1004400039F8074B187801F035F8052001F01EF84F
:100450004FF47A50BDE8084000F000BD01000020D4
:1004600000000020052818BF032810B5044604D05A
:1004700000F0FB03082B18BF0324042000F0F2FF58
:10048000142001F017F8B62001F014F8042000F051
:10049000FDFF042000F0E6FF0F2001F00BF82046DE
:1004A00001F008F8042000F0F1FF042000F0DAFF6A
:1004B000102000F0FFFF0F2000F0FCFF042000F0F0
:1004C000E5FF042000F0CEFF112000F0F3FF002034
:1004D00000F0F0FF042000F0D9FF042000F0C2FF7C
:1004E000132000F0E7FF802000F0E4FF0420BDE8C7
:1004F000104000F0CBBF10B5042894BF0446002480
:10050000032000F0AFFF142000F0D4FFB62000F06D
:10051000D1FF032000F0BAFF032000F0A3FF0F205B
:1005200000F0C8FF204600F0C5FF032000F0AEFF3A
:10053000102000F0BFFF022000F0BCFF032000F0FD
:10054000A5FF032000F08EFF112000F0B3FF002074
:1005500000F0B0FF032000F099FF032000F082FFBD
:10056000132000F0A7FF002000F0A4FF0320BDE847
:10057000104000F08BBF10B5042894BF044600243F
:10058000032000F06FFF0F2000F094FF204600F0E2
:1005900091FF0320BDE8104000F078BF38B50C4C47
:1005A0000C4B207018680C4A0178156861700B4874
:1005B0002B780168A3700A4D0A782868E27001F070
:1005C000FFF9286821460822BDE8384001F0F0B95B
:1005D000AE0300201C0200200802002018020020A8
:1005E0002402002010B50446032000F03BFF8F20BA
:1005F00000F060FFFF2000F05DFF2070032000F09E
:1006000045FF042000F02EFF8F2000F053FFFF2055
:1006100000F050FF6070042000F038FF237861780C
:1006200003F0070001F00F022070627010BD002877
:1006300070B503DA2D2301F8013B404200230A2460
:10064000B0FBF4F204FB12003030C8540133104602
:10065000002AF4D15C10CB181A46A04207DA0D5CD0
:1006600012F8016C0E5402F8015D0130F5E700212B
:10067000197070BD2DE9F0470024A0462646274694
:10068000A446904504EB030928DA051995F901A061
:1006900098444FEA0A1A1FFA8AFAA1F800A0045DEA
:1006A0004AEA14140C8024B2A44495F903402401AE
:1006B000A4B24C8095F802A044EA1A144C8024B2EB
:1006C0003F1995F905402401A4B28C802D7944EAA4
:1006D00015148C8024B236194C46D2E792FBF3F203
:1006E0000FFA8CFC3FB236B29CFBF2F097FBF2F7AC
:1006F00096FBF2F308804F808B80BDE8F087000006
:1007000000231A0292B2082012F4004F18BF0949C0
:100710004FEA42021ABF51408AB292B2411E11F012
:10072000FF00F1D1044921F813200133B3F5807F94
:10073000E7D170470580FFFFF4030020044B81EAF6
:10074000102133F8112082EA002080B2704700BFE8
:100750000200002030B5002389B005460420009334
:10076000ADF804300293ADF80C30ADF81030ADF8B0
:100770001230ADF81430ADF81830ADF81A30ADF8CD
:100780001C300C4600F06EFE8F2000F093FEFF2020
:1007900000F090FE2070042000F078FE207800F039
:1007A0000F012170042000F05DFE0F2000F082FE9A
:1007B000082000F07FFE042000F068FE042000F016
:1007C00051FE32207A4C00F075FE152000F072FECA
:1007D000042000F05BFE204600F040FB042000F007
:1007E00041FE822000F066FEFF2000F063FE8DF8DF
:1007F0000000FF2000F05EFE8DF80100042000F0F4
:1008000045FE042000F02EFE322000F053FE16209C
:1008100000F050FE042000F039FE204600F01EFBE0
:10082000042000F01FFE842000F044FEFF2000F0B2
:1008300041FE8DF80200FF2000F03CFE8DF8030021
:10084000042000F023FE042000F00CFE322000F013
:1008500031FE172000F02EFE042000F017FE204687
:1008600000F0FCFA042000F0FDFD862000F022FEDE
:10087000FF2000F01FFE8DF80400FF2000F01AFE9C
:100880008DF80500042000F001FE042000F0EAFDD0
:10089000322000F00FFE112000F00CFE042000F0CA
:1008A000F5FD204600F0DAFA042000F0DBFD82209E
:1008B00000F000FEFF2000F0FDFD8DF80800FF2095
:1008C00000F0F8FD8DF80900042000F0DFFD0420A1
:1008D00000F0C8FD322000F0EDFD122000F0EAFD2E
:1008E000042000F0D3FD204600F0B8FA042000F008
:1008F000B9FD842000F0DEFDFF2000F0DBFD8DF867
:100900000A00FF2000F0D6FD8DF80B00042000F057
:10091000BDFD042000F0A6FD322000F0CBFD132029
:1009200000F0C8FD042000F0B1FD204600F096FA6A
:10093000042000F097FD862000F0BCFDFF2000F0B1
:10094000B9FD8DF80C00FF2000F0B4FD8DF80D000E
:10095000042000F09BFD042000F084FD142000F032
:10096000A9FDB62000F0A6FD042000F08FFD68462A
:1009700004A906220123FFF77DFE02A806A906228C
:100980000123FFF777FEBDF81830BDF81020BDF841
:100990001A10D01ABDF8123028805A1ABDF81C005F
:1009A000BDF814106A800B1AAB8009B030BD00BFCF
:1009B00000D4300030B5072085B0AA2300248DF87C
:1009C0000B0003208DF808308DF80930ADF8064093
:1009D0008DF80A4000F046FDBC2000F06BFDFF20C2
:1009E00000F068FD0546032000F050FDC5F300113E
:1009F0008DF80C1002ABE55CBDF80620294690B2DC
:100A0000FFF79CFE0134ADF80600284600F072FDA9
:100A1000052CEFD1BDF80600BDF80610C0B28CB2AF
:100A200000F068FD200A00F065FD05B030BD000053
:100A3000F0B5092085B0AA2300248DF80700052011
:100A40008DF804308DF80530ADF802408DF8064081
:100A500000F008FD4B2000F02DFD012000F02AFDE4
:100A6000052000F013FD052000F0FCFC4C2000F0F8
:100A700021FD2F2000F01EFD052000F007FD23487A
:100A800000F0ECF9052000F0EDFCC22000F012FDB2
:100A9000FF2000F00FFD0746FF2000F00BFDFF20B8
:100AA00000F008FD0646FF2000F004FDFF2000F0E6
:100AB00001FD0546052000F0E9FC07F0010706F0FE
:100AC000010605F001018DF808708DF809608DF8B8
:100AD0000A1001ABE55CBDF80220294690B2FFF791
:100AE0002DFE0134ADF80200284600F003FD072C6E
:100AF000EFD1BDF80200BDF80210C0B28CB200F018
:100B0000F9FC200A00F0F6FC05B0F0BD00D430007E
:100B100030B51B4985B0AA238DF808308DF809300F
:100B20000D78184B002407204FF48042ADF80640A2
:100B30008DF80A008DF80B408DF80C509A6502A9CB
:100B4000655CBDF80600294680B2FFF7F7FD013469
:100B5000ADF80600284600F0CDFC052CEFD1BDF81D
:100B60000620BDF80630D0B29CB200F0C3FC200ACB
:100B700000F0C0FC03494FF48040C86505B030BDAB
:100B8000AE030020006000400309092B03DC0D4A7E
:100B900003F130019170A3F10A01052902D8094A35
:100BA0003733937000F00F00092803DC054B00F188
:100BB0003001D970A0F10A02052A02D80149373064
:100BC000C8707047020200202DE9F041424A8AB005
:100BD0001068516807AB03C3404C906861681860A7
:100BE000206801AD03C53E4F2189386829807968A6
:100BF00004AB03C33889BA7AA67A188003209A70A6
:100C0000AE7000F02FFC802000F054FC002000F0BB
:100C100051FC8046032000F039FC042000F022FC47
:100C2000802000F047FC002000F044FC0746042030
:100C300000F02CFC052000F015FCC02000F03AFC70
:100C4000002000F037FC274D06464FF48044052075
:100C500000F01CFCAC650DF11B0515F8014F1CB133
:100C6000204600F047FCF8E74046FFF78DFF1E499D
:100C7000085D013400F03EFC042CF8D10DF10305B1
:100C800015F8014F1CB1204600F034FCF8E7384657
:100C9000FFF77AFF144B185D013400F02BFC042C95
:100CA000F8D10DF10F0515F8014F1CB1204600F0E9
:100CB00021FCF8E73046FFF767FF0B48005D013481
:100CC00000F018FC042CF8D106494FF48042CA65A4
:100CD0000AB0BDE8F08100BFD0190000DC190000A7
:100CE000E71900000060004002020020F0B5564BFA
:100CF0004FF4804195B0054699651446A2B9534A10
:100D00000FAB5168106803C352F8080F96799188A9
:100D10009E71186099800DF13B0616F8010F0028AE
:100D20004CD000F0E7FBF8E7012A17D1484B0FA899
:100D300003F11007024659681868083303C2BB4222
:100D40001046F7D19E781988967011800DF13B06F8
:100D500016F8010F90B300F0CDFBF9E7022A15D188
:100D60003C4B0FA903F110070A461868596808336D
:100D700003C2BB421146F7D118880DF13B06108023
:100D800016F8010FD0B100F0B5FBF9E7032A15D131
:100D9000314B0FAA03F1100718685968164603C6AD
:100DA0000833BB423246F7D1187830700DF13B065C
:100DB00016F8010F10B100F09DFBF9E7B5F900003E
:100DC0006946FFF734FCB5F9020005A9FFF72FFCCF
:100DD000B5F904000AA9FFF72AFC0DF1FF3616F851
:100DE000010F10B100F086FBF9E7202000F082FB34
:100DF0000DF1130616F8010F10B100F07BFBF9E7B7
:100E0000202000F077FB0DF1270616F8010F10B136
:100E100000F070FBF9E7022C05D00B4B4FF4804239
:100E2000DA6515B0F0BDB5F906000FA9FFF7FFFBB5
:100E3000202000F05FFB0DF13B0414F8010F0028A7
:100E4000EBD000F057FBF8E700600040F21900001B
:100E5000011A0000141A0000261A0000034B002299
:100E60005A6059688142FCD3704700BF001000E00F
:100E7000034B1A6922F00400186130BF704700BFAD
:100E800000ED00E00B4B40F2014241F205004FF44F
:100E900080611A60586040F61542596141F6F97058
:100EA0000B21DA60986459655A6D42F00B00586561
:100EB000704700BF00C40040084B4FF4407240F63A
:100EC00005405A61D860196841F6F97041F0600236
:100ED00040F203311A6098645965704700C00040C1
:100EE000114B4FF080429A6280204FF088421421CB
:100EF00098631A6544F20200D96448F20101D8658A
:100F000099654FF482001A674FF40051C022DA67E6
:100F1000C3F89800C3F8A010D3F8202142F00400D1
:100F2000C3F82001704700BF00600040054B40221D
:100F30004FF4C85001211A60D861D960024B0422D5
:100F40001A6070470000014000E100E0034B40F2EE
:100F50000C7200201A605860704700BF0080084083
:100F6000164B174A1A60186A40F0040119621846B5
:100F7000C26A124B1207FBD54FF4807140F2AE30BB
:100F800099604C22D860B32105201A615961022270
:100F9000986204215C205A6219645864094B0A481B
:100FA000DA6842F08071D960036841F6713143F02C
:100FB000010202600548C163704700BF00800C4019
:100FC0002C060C00F0ED00E0001000E000000C40EA
:100FD000054B08220548C3F880211A60C16C41F016
:100FE0000403C364704700BF00E100E000C000409C
:100FF00010B50C4CB4F900300BB900F067FA0A4890
:101000002288C069094B11B25854013290B29B78C2
:1010100001B29942208003D1BDE8104000F05CBAD3
:1010200010BD00BFEA03002000C00040CA0300203A
:1010300008B500F059FA00F04FFA034B03490022BB
:101040000A201A80887008BDEA030020CA03002025
:1010500030B5124B124AD46914F0080F0DD153B1B8
:10106000013BF7E70823D3600C4B0D4AD06910F021
:1010700001010DD183B9FD210EE0002BFBD000232F
:101080008B42EFDA50F82340054D0133AC61F7E7AE
:10109000002BF0D0013BE8E748B230BD80969800C5
:1010A00000000C40094B01221861DA60D96911F087
:1010B000060008D04A0705D411F0020F0CBF00202B
:1010C000FE2000E0FF2040B2704700BF00000C404F
:1010D000F7B5A948A94C0168A94A0E782568167089
:1010E000A84F297800239E46ADF80430ADF80630AD
:1010F0003B685170A4481D7804689570A34F24780C
:101100003868D4700788A24B76B21F700088070A2F
:10111000A0485F70006807689F7007683F0ADF702B
:101120004788002E1F71C0789B4F58713868077828
:1011300083F807E09F7101DC01231370042D01D9AE
:1011400010259570052918BF032906D001F0FB0270
:10115000082A02D08A4803214170032C884C01D907
:101160000027E7708D4E306800F02AFC8449082281
:10117000306800F01DFCFFF7C3FAFFF723F8607832
:10118000FFF770F9A078FFF7B6F9E078FFF70AF9F2
:10119000A078FFF7F0F9FFF71BFFFFF7C7FE804BC2
:1011A000804900250A221D808A707D487D4C078871
:1011B000A6783DB2B54202D0FFF75AFEF5E7237894
:1011C000AA2BECD16278AA2AE9D16D4DE178287872
:1011D000884240F027812379112B00F0998024D890
:1011E000042B7BD00CD8012B68D056D3022B6CD0AB
:1011F000032BD4D16C48FFF759F86B4802216AE001
:10120000062B75D071D3072B7FD0102BC7D16079F7
:10121000FFF7B1F9584A594F1168594D08783E689F
:10122000287033786B7063797EE0162B00F0C880ED
:1012300019D8132B00F09980C0F08580142B00F092
:101240009880152BABD1594E514D01273068EF7165
:1012500000F0B6FB30682946082200F0A9FB3846AA
:1012600000F0EAFA9BE7222B00F0CB800DD8202B70
:101270004C4D00F0B080212B91D169794C48FEF79C
:10128000B2FF4B4803210022C9E0232B00F0C180AC
:10129000FF2B84D1FFF798FC81E761794448FEF782
:1012A000A2FF61794348FEF7CFFF3F48FEF7FEFFFC
:1012B0003F4840493C4A00F095F970E761793C4865
:1012C000FEF791FF3A48002105E061793948FEF7C1
:1012D000BBFF3848012100F019F960E73648FFF7F5
:1012E00081F9354800F06CFA59E7FFF763FB56E7E0
:1012F000324C30482146FFF72DFA2E48012100F0EC
:1013000005F92078FFF7AEF849E7FFF791FB46E7CC
:10131000194E6079FFF7A6F832686079194C117898
:101320002768297068703B78174EAB703268147864
:10133000EC701A4C206800F043FB20682946082214
:1013400000F036FB2BE76079FFF72CF80A4A0B4BCD
:1013500011680B4D08781F6828700A4A3E7811689A
:101360006E7008786479A870E2E76079FFF716F983
:1013700015E7FFF7CDFB12E7280200201C02002032
:10138000AE030020080200201802002020020020E6
:10139000EC03002014020020100200202402002090
:1013A000EA030020CA030020BC0300200C02002036
:1013B000B6030020C4030020E8030020AD03002092
:1013C000244F254897F900302449254A00F080F938
:1013D00000233B70E3E669791F48FEF704FF697953
:1013E0001E48FEF731FF1E48FEF760FF0321002272
:1013F0001948FFF77BFC194803210122FFF776FC0F
:101400000AE061791548FEF71FFF14480321012205
:1014100005E01348FEF74AFF114804210222FFF7B6
:1014200065FCBCE6E778802F7FF4B9AE2679002E04
:101430007FF4B5AE61790848FEF7D5FE61790748BB
:10144000FEF702FF0648FEF731FF024DA4792C702B
:10145000A5E600BFAC030020B6030020C4030020B3
:10146000BC030020032804D107494FF40040C8659D
:101470007047042801D1402202E0052803D18022D0
:10148000014BC3F88020704700600040032804D15E
:1014900007494FF4004088657047042801D1402275
:1014A00002E0052802D18022014BDA67704700BFB5
:1014B00000600040044B58631A699206FCD502484C
:1014C000C169C8B2704700BF00C40040014B01228F
:1014D0005A60704700000140024B022200205A600F
:1014E0005862704700000140014B01229A61704729
:1014F00000000140044B1A695106FBD55863186976
:101500008206FCD5704700BF00C0004030B505889A
:1015100087B0AA2345F307228DF808308DF80930EB
:101520008DF80D204388828800248DF80C508DF8AA
:101530000E3043F30725022942F30723ADF8064096
:101540008DF80B408DF80F508DF810208DF811306C
:1015500023491DD1C0884FF4804240F307258DF800
:1015600012008DF813508A650E218DF80A1002AB17
:10157000E55CBDF80600294680B2FFF7DFF80134CC
:10158000ADF806002846FFF7B5FF0C2CEFD115E0AB
:101590004FF480400C2588658DF80A5002ABE55C5D
:1015A000BDF80620294690B2FFF7C8F80134ADF81F
:1015B00006002846FFF79EFF0A2CEFD1BDF8062053
:1015C000BDF80640D0B2A4B2FFF794FF200AFFF79F
:1015D00091FF03484FF48041C16507B030BD00BFA3
:1015E0000060004030B5AA2389B005888DF8083026
:1015F0008DF8093018238DF80A308DF80C5045F31A
:101600000723458880888DF80D308DF80E5045F3FE
:10161000072340F307258DF80F308DF811500B8804
:101620004D888DF81000898843F307208DF812301B
:101630008DF8145045F3072315888DF813008DF8A5
:10164000153041F3072045F307238DF81610518814
:1016500092888DF819301D4B00248DF817008DF8F5
:1016600018508DF81A1041F3072042F307254FF464
:101670008041ADF806408DF80B408DF81B008DF8C9
:101680001C208DF81D50996502AAA55CBDF80600C6
:10169000294680B2FFF752F80134ADF8060028461B
:1016A000FFF728FF162CEFD1BDF80610BDF8063065
:1016B000C8B29CB2FFF71EFF200AFFF71BFF034AC8
:1016C0004FF48040D06509B030BD00BF00600040DD
:1016D00070B5AA2588B08DF808508DF809501925E5
:1016E0008DF80A50058800248DF80C5045F3072525
:1016F0008DF80D50458880888DF80E5045F30725EC
:101700008DF80F508DF8100040F3072508888DF8EC
:1017100011508DF8120040F30725488889888DF80C
:10172000135040F307258DF814008DF8155041F340
:10173000072015888DF81700508892888DF81610AC
:1017400045F307218DF818508DF8191040F307253F
:1017500042F307218DF81A00ADF806408DF80B40D2
:101760008DF81B508DF81C208DF81D108DF81E3043
:10177000124B4FF480402646986502AD655DBDF87A
:101780000620294690B2FEF7D9FF0134ADF80600D5
:101790002846FFF7AFFE172CEFD1BDF80610BDF8B5
:1017A000060084B2C8B2FFF7A5FE200AFFF7A2FE2A
:1017B000024B4FF48042DA6508B070BD0060004013
:1017C00030B5AA2385B005788DF808308DF809303A
:1017D0004078184B002408214FF48042ADF80640B1
:1017E0008DF80A108DF80B408DF80C508DF80D0017
:1017F0009A6502AD655DBDF80610013488B22946D0
:10180000FEF79CFFADF806002846FFF773FE062C96
:10181000EFD1BDF80600BDF80620C0B294B2FFF7C4
:1018200069FE200AFFF766FE024B4FF48041D9653E
:1018300005B030BD0060004018B9034B9968CB0774
:10184000FBD4024A1060704700800840000010433B
:10185000074880470749084A084B9B1A40F3058010
:10186000043BC858D0503FF7FBAF05480047000085
:10187000C91800004C1A000000000020900300204E
:1018800055010000FEE7FEE7FEE7FEE7FEE7FEE7A4
:10189000FEE7FEE7FEE7FEE7FEE7FEE7FEE7FEE720
:1018A000FEE7FEE7FEE7FEE7FEE7FEE7FEE7FEE710
:1018B000FEE7FEE7FEE7FEE7FEE7FEE7FEE7FEE700
:1018C000FEE7FEE7FEE700BF7047000010B5034CDF
:1018D00014B1AFF3008010BD204610BD0000000021
:1018E00008B5084B04461BB10021AFF3008001E0AE
:1018F00000F00CF804480068816A01B1884720466E
:1019000000F048F8000000003C1A000070B5084BD9
:10191000084C0025E01A841003EB8406043D1CB13A
:1019200072599047013CF9E7BDE8704000F03AB8C1
:101930008C0300209003002038B50E4D0E4B002480
:10194000E81A8510AC4205D00B4951F82420904785
:101950000134F7E700F020F80849094A541AA510A5
:101960000024AC4205D0054B53F8240080470134D5
:10197000F7E738BD88030020880300208803002093
:101980008C03002082180346934202D003F8011B07
:10199000FAE77047FEE700BFF8B500BFF8BC08BC27
:1019A0009E467047F8B500BFF8BC08BC9E4670471D
:1019B00001B40248844601BC604700BF0103002017
:1019C00001B40248844601BC604700BF9102002078
:1019D0000A0D4779726F2D49440A0D000A0D4163C3
:1019E000632D49440A0D000A0D4D61672D49440AD3
:1019F0000D000A0D4759524F4D45544552200A0DCE
:101A0000000A0D414343454C45524F4D4554455204
:101A1000200A0D000A0D4D41474E45544F4D455487
:101A20004552200A0D000A0D54454D50455241546F
:101A3000555245200A0D0043000000002C020020F2
:041A400000000000A2
:081A440010E7FF7F0100000024
:101A4C000201000005800F800A001B801E0014009C
:101A5C001180338036003C00398028002D8027808F
:101A6C002200638066006C00698078007D8077803E
:101A7C007200500055805F805A004B804E0044002D
:101A8C004180C380C600CC00C980D800DD80D780DF
:101A9C00D200F000F580FF80FA00EB80EE00E4004D
:101AAC00E180A000A580AF80AA00BB80BE00B4007E
:101ABC00B180938096009C00998088008D808780EF
:101ACC008200838186018C01898198019D81978197
:101ADC009201B001B581BF81BA01AB81AE01A40105
:101AEC00A181E001E581EF81EA01FB81FE01F401B6
:101AFC00F181D381D601DC01D981C801CD81C781A7
:101B0C00C201400145814F814A015B815E01540154
:101B1C005181738176017C01798168016D816781C6
:101B2C006201238126012C01298138013D813781F5
:101B3C003201100115811F811A010B810E01040164
:101B4C000181038306030C03098318031D83178388
:101B5C001203300335833F833A032B832E03240374
:101B6C002183600365836F836A037B837E03740325
:101B7C007183538356035C03598348034D83478316
:101B8C004203C003C583CF83CA03DB83DE03D403C4
:101B9C00D183F383F603FC03F983E803ED83E78336
:101BAC00E203A383A603AC03A983B803BD83B78365
:101BBC00B203900395839F839A038B838E038403D4
:101BCC008183800285828F828A029B829E0294028C
:101BDC009182B382B602BC02B982A802AD82A782FE
:101BEC00A202E382E602EC02E982F802FD82F782AD
:101BFC00F202D002D582DF82DA02CB82CE02C4029C
:101C0C00C182438246024C02498258025D8257824D
:101C1C005202700275827F827A026B826E026402BB
:101C2C006182200225822F822A023B823E023402EC
:101C3C003182138216021C02198208020D8207825D
:101C4C0002023078202000000278000000380000EA
:101C5C00063800000238000003780000017800000C
:101C6C000038000000780000007800000000000040
:101C7C000000000000000000000000000000000058
:101C8C00000000000000000000000000371A0000F7
:101C9C000000000000000000000000000000000038
:101CAC000000000000000000000000000000000028
:101CBC000000000000000000000000000000000018
:101CCC000000000000000000000000000000000008
:101CDC00194B9A6842F00101996018610120D86093
:101CEC00DA69510705D59A68FF2022F00101996045
:101CFC001FE0D9698A0705D5996821F00100986021
:101D0C00FE2016E002200D4AD8600B4BD96911F069
:101D1C000100194602D012B1013AF6E72AB98B68D4
:101D2C0023F001008860FD2003E09A6822F0010195
:101D3C00996040B2704700BF00000C40809698003C
:101D4C00174B2DE9F04180469868971040F001043C
:101D5C009C600E460024BC4219DA08EB8405284628
:101D6C0000F02AF8A0B9ED05E90DC1F500723B1B96
:101D7C0095089D42A8BF1D466419002DEBD0304636
:101D8C00012100F011F818B90436013DF5E70020E7
:101D9C00034940B28A6822F001038B60BDE8F081F0
:101DAC0000000C400000000001B40248844601BC55
:101DBC00604700BF5110000001B40248844601BCCA
:101DCC00604700BFA51000002501000001010000C4
:040000030000185190
:00000001FF
