:104000000010002071580000A7580000A9580000B7
:10401000AB580000AD580000AF580000A558000094
:10402000A5580000A5580000A5580000B158000090
:10403000B3580000A5580000B5580000B75800005C
:10404000B9580000BB5800001D500000DD4F0000B3
:10405000C1580000C3580000C5580000C7580000F0
:10406000C9580000CB580000CD580000CF580000C0
:10407000D1580000D3580000D5580000D758000090
:10408000D9580000DB580000DD580000DF58000060
:10409000E1580000E3580000E5580000000000006F
:1040A0000000000000000000000000000000000010
:1040B0000000000000000000000000000000000000
:1040C00000000000000000000000000000000000F0
:1040D00000000000000000000000000000000000E0
:1040E00000000000000000000000000000000000D0
:1040F00000000000000000000000000000000000C0
:1041000010B5054C237833B9044810B10448AFF317
:1041100000800121217010BD9402002000000000E9
:10412000405A000008B5064B1BB106480649AFF3DC
:1041300000800648016811B1054A02B1904708BDE8
:1041400000000000405A0000980200209402002065
:1041500000000000154B002B08BF134B9D46A3F534
:10416000803A00218B460F461348144A121A01F078
:1041700019FC0F4B002B00D098470E4B002B00D0A2
:1041800098470020002104460D4600200C490022DB
:10419000002301F0ABFB01F0DFFB2046294600F0D5
:1041A000F7FF01F0ADFB00BF000008000010002089
:1041B000000000000000000094020020F80400202D
:1041C0002D59000008B500F0C7FE00F085FE00F094
:1041D00059FE00F071FE00F0B5FE4BF68030BDE8F0
:1041E000084000F03BBE70B5B0B005466C4618AE56
:1041F000032001F0BFF9822001F0E4F9FF2001F073
:10420000E1F92070FF2001F0DDF96070FF2001F07E
:10421000D9F9A070FF2001F0D5F9E070FF2001F07E
:10422000D1F92071FF2001F0CDF96071032006342F
:1042300001F0B4F9B442DBD1684629466022062376
:1042400000F018FA30B070BD70B5B0B005466C46DD
:1042500018AE042001F08EF9822001F0B3F9FF209E
:1042600001F0B0F92070FF2001F0ACF96070FF2080
:1042700001F0A8F9A070FF2001F0A4F9E070FF2080
:1042800001F0A0F92071FF2001F09CF96071042079
:10429000063401F083F9B442DBD168462946602236
:1042A000062300F0E7F930B070BD00002DE9F74FAC
:1042B0000446052001F05EF94C2001F083F92E2020
:1042C00001F080F9052001F069F9052001F052F9AB
:1042D0004C2001F077F92A2001F074F9052001F053
:1042E0005DF92C4B1978012908BF4FF4A07007D055
:1042F000042901D1284803E007290CBF2748284892
:1043000000F0ACFD052001F035F9C22001F05AF9AA
:10431000FF2001F057F98346FF2001F053F90246D0
:10432000FF20019201F04EF98146FF2001F04AF989
:104330008246FF2001F046F90746FF2001F042F9CE
:104340008046FF2001F03EF90546FF2001F03AF9D2
:104350000646052001F022F90198CBF3C70B43B2C2
:104360004FFA8AFAC9F3C7024FFA88F8C7F347072A
:1043700076B2C5F387054BEA431142EA4A1947EA88
:10438000C81745EA86152180A4F80290A780E58029
:10439000BDE8FE8F0100002000E2040000C4090017
:1043A000006A180008B52D4A2D4B18B9012111706B
:1043B00002200EE0012803D1042010700E2008E036
:1043C000022803D1072111701A2002E02E2111705A
:1043D00052201870052001F0CDF84B2001F0F2F8C2
:1043E000012001F0EFF8052001F0D8F8052001F0D8
:1043F000C1F84C2001F0E6F8282001F0E3F8052090
:1044000001F0CCF8052001F0B5F84E2001F0DAF803
:10441000072001F0D7F8052001F0C0F8052001F0D1
:10442000A9F8512001F0CEF80C4A107801F0CAF832
:10443000052001F0B3F8052001F09CF8522001F0AE
:10444000C1F8074B187801F0BDF8052001F0A6F877
:104450004FF47A50BDE8084000F000BD0100002094
:1044600000000020052818BF032810B5044604D01A
:1044700000F0FB03082B18BF0324042001F07AF896
:10448000142001F09FF8B62001F09CF8042001F000
:1044900085F8042001F06EF80F2001F093F8204613
:1044A00001F090F8042001F079F8042001F062F89E
:1044B000102001F087F80F2001F084F8042001F0AB
:1044C0006DF8042001F056F8112001F07BF800206F
:1044D00001F078F8042001F061F8042001F04AF8B6
:1044E000132001F06FF8802001F06CF80420BDE883
:1044F000104001F053B810B5042894BF04460024BE
:10450000032001F037F8142001F05CF8B62001F028
:1045100059F8032001F042F8032001F02BF80F2096
:1045200001F050F8204601F04DF8032001F036F874
:10453000102001F047F8022001F044F8032001F0B8
:104540002DF8032001F016F8112001F03BF80020AF
:1045500001F038F8032001F021F8032001F00AF8F7
:10456000132001F02FF8002001F02CF80320BDE803
:10457000104001F013B810B5042894BF044600247D
:10458000032000F0F7FF0F2001F01CF8204601F097
:1045900019F80320BDE8104001F000B838B50C4C04
:1045A0000C4B207018680C4A0178156861700B4834
:1045B0002B780168A3700A4D0A782868E27000F031
:1045C0003DFD286821461022BDE8384000F0AEBD10
:1045D000E80400201C02002008020020180200202D
:1045E0001402002010B50446032000F0C3FF8F2002
:1045F00000F0E8FFFF2000F0E5FF2070032000F04E
:10460000CDFF042000F0B6FF8F2000F0DBFFFF207D
:1046100000F0D8FF6070042000F0C0FF23786178BC
:1046200003F0070001F00F022070627010BD002837
:1046300070B503DA2D2301F8013B404200230A2420
:10464000B0FBF4F204FB12003030C85401331046C2
:10465000002AF4D15C10CB181A46A04207DA0D5C90
:1046600012F8016C0E5402F8015D0130F5E70021EB
:10467000197070BD2DE9F0470024A0462646274654
:10468000A446904504EB030928DA051995F901A021
:1046900098444FEA0A1A1FFA8AFAA1F800A0045DAA
:1046A0004AEA14140C8024B2A44495F9034024016E
:1046B000A4B24C8095F802A044EA1A144C8024B2AB
:1046C0003F1995F905402401A4B28C802D7944EA64
:1046D00015148C8024B236194C46D2E792FBF3F2C3
:1046E0000FFA8CFC3FB236B29CFBF2F097FBF2F76C
:1046F00096FBF2F308804F808B80BDE8F0870000C6
:1047000000231A0292B2082012F4004F18BF094980
:104710004FEA42021ABF51408AB292B2411E11F0D2
:10472000FF00F1D1044921F813200133B3F5807F54
:10473000E7D170470580FFFFE8020020044B81EAC3
:10474000102133F8112082EA002080B2704700BFA8
:104750000200002030B5002389B0054604200093F4
:10476000ADF804300293ADF80C30ADF81030ADF870
:104770001230ADF81430ADF81830ADF81A30ADF88D
:104780001C300C4600F0F6FE8F2000F01BFFFF20CF
:1047900000F018FF2070042000F000FF207800F0E7
:1047A0000F012170042000F0E5FE0F2000F00AFF49
:1047B000082000F007FF042000F0F0FE042000F0C5
:1047C000D9FE32207A4C00F0FDFE152000F0FAFEF2
:1047D000042000F0E3FE204600F040FB042000F03F
:1047E000C9FE822000F0EEFEFF2000F0EBFE8DF807
:1047F0000000FF2000F0E6FE8DF80100042000F02C
:10480000CDFE042000F0B6FE322000F0DBFE1620C4
:1048100000F0D8FE042000F0C1FE204600F01EFB90
:10482000042000F0A7FE842000F0CCFEFF2000F062
:10483000C9FE8DF80200FF2000F0C4FE8DF80300D1
:10484000042000F0ABFE042000F094FE322000F0C3
:10485000B9FE172000F0B6FE042000F09FFE2046AF
:1048600000F0FCFA042000F085FE862000F0AAFE8D
:10487000FF2000F0A7FE8DF80400FF2000F0A2FE4C
:104880008DF80500042000F089FE042000F072FE7F
:10489000322000F097FE112000F094FE042000F07A
:1048A0007DFE204600F0DAFA042000F063FE82204C
:1048B00000F088FEFF2000F085FE8DF80800FF2044
:1048C00000F080FE8DF80900042000F067FE04204F
:1048D00000F050FE322000F075FE122000F072FE53
:1048E000042000F05BFE204600F0B8FA042000F03F
:1048F00041FE842000F066FEFF2000F063FE8DF88C
:104900000A00FF2000F05EFE8DF80B00042000F08E
:1049100045FE042000F02EFE322000F053FE13204E
:1049200000F050FE042000F039FE204600F096FA18
:10493000042000F01FFE862000F044FEFF2000F05F
:1049400041FE8DF80C00FF2000F03CFE8DF80D00BC
:10495000042000F023FE042000F00CFE142000F0E0
:1049600031FEB62000F02EFE042000F017FE68464F
:1049700004A906220123FFF77DFE02A806A906224C
:104980000123FFF777FEBDF81830BDF81020BDF801
:104990001A10D01ABDF8123028805A1ABDF81C001F
:1049A000BDF814106A800B1AAB8009B030BD00BF8F
:1049B00000D4300030B5072085B0AA2300248DF83C
:1049C0000B0003208DF808308DF80930ADF8064053
:1049D0008DF80A4000F0CEFDBC2000F0F3FDFF2072
:1049E00000F0F0FD0546032000F0D8FDC5F30011EE
:1049F0008DF80C1002ABE55CBDF80620294690B29C
:104A0000FFF79CFE0134ADF80600284600F0FAFDE1
:104A1000052CEFD1BDF80600BDF80610C0B28CB26F
:104A200000F0F0FD200A00F0EDFD05B030BD000003
:104A3000F0B5092085B0AA2300248DF807000520D1
:104A40008DF804308DF80530ADF802408DF8064041
:104A500000F090FD4B2000F0B5FD012000F0B2FD0C
:104A6000052000F09BFD052000F084FD4C2000F0A7
:104A7000A9FD2F2000F0A6FD052000F08FFD2348A2
:104A800000F0ECF9052000F075FDC22000F09AFD61
:104A9000FF2000F097FD0746FF2000F093FDFF2068
:104AA00000F090FD0646FF2000F08CFDFF2000F096
:104AB00089FD0546052000F071FD07F0010706F0AD
:104AC000010605F001018DF808708DF809608DF878
:104AD0000A1001ABE55CBDF80220294690B2FFF751
:104AE0002DFE0134ADF80200284600F08BFD072CA6
:104AF000EFD1BDF80200BDF80210C0B28CB200F0D8
:104B000081FD200A00F07EFD05B0F0BD00D430002C
:104B100030B51B4985B0AA238DF808308DF80930CF
:104B20000D78184B002407204FF48042ADF8064062
:104B30008DF80A008DF80B408DF80C509A6502A98B
:104B4000655CBDF80600294680B2FFF7F7FD013429
:104B5000ADF80600284600F055FD052CEFD1BDF854
:104B60000620BDF80630D0B29CB200F04BFD200A02
:104B700000F048FD03494FF48040C86505B030BDE2
:104B8000E8040020006000400309092B03DC0D4A03
:104B900003F130019170A3F10A01052902D8094AF5
:104BA0003733937000F00F00092803DC054B00F148
:104BB0003001D970A0F10A02052A02D80149373024
:104BC000C8707047020200202DE9F041424A8AB0C5
:104BD0001068516807AB03C3404C90686168186067
:104BE000206801AD03C53E4F218938682980796866
:104BF00004AB03C33889BA7AA67A188003209A7066
:104C0000AE7000F0B7FC802000F0DCFC002000F06B
:104C1000D9FC8046032000F0C1FC042000F0AAFC6F
:104C2000802000F0CFFC002000F0CCFC07460420E0
:104C300000F0B4FC052000F09DFCC02000F0C2FC98
:104C4000002000F0BFFC274D06464FF480440520AD
:104C500000F0A4FCAC650DF11B0515F8014F1CB16B
:104C6000204600F0CFFCF8E74046FFF78DFF1E49D5
:104C7000085D013400F0C6FC042CF8D10DF10305E9
:104C800015F8014F1CB1204600F0BCFCF8E738468F
:104C9000FFF77AFF144B185D013400F0B3FC042CCD
:104CA000F8D10DF10F0515F8014F1CB1204600F0A9
:104CB000A9FCF8E73046FFF767FF0B48005D0134B9
:104CC00000F0A0FC042CF8D106494FF48042CA65DC
:104CD0000AB0BDE8F08100BFD0590000DC590000E7
:104CE000E75900000060004002020020F0B5564B7A
:104CF0004FF4804195B0054699651446A2B9534AD0
:104D00000FAB5168106803C352F8080F9679918869
:104D10009E71186099800DF13B0616F8010F00286E
:104D20004CD000F06FFCF8E7012A17D1484B0FA8D0
:104D300003F11007024659681868083303C2BB42E2
:104D40001046F7D19E781988967011800DF13B06B8
:104D500016F8010F90B300F055FCF9E7022A15D1BF
:104D60003C4B0FA903F110070A461868596808332D
:104D700003C2BB421146F7D118880DF13B061080E3
:104D800016F8010FD0B100F03DFCF9E7032A15D168
:104D9000314B0FAA03F1100718685968164603C66D
:104DA0000833BB423246F7D1187830700DF13B061C
:104DB00016F8010F10B100F025FCF9E7B5F9000075
:104DC0006946FFF734FCB5F9020005A9FFF72FFC8F
:104DD000B5F904000AA9FFF72AFC0DF1FF3616F811
:104DE000010F10B100F00EFCF9E7202000F00AFCE2
:104DF0000DF1130616F8010F10B100F003FCF9E7EE
:104E0000202000F0FFFB0DF1270616F8010F10B16E
:104E100000F0F8FBF9E7022C05D00B4B4FF4804271
:104E2000DA6515B0F0BDB5F906000FA9FFF7FFFB75
:104E3000202000F0E7FB0DF13B0414F8010F0028DF
:104E4000EBD000F0DFFBF8E700600040F259000013
:104E5000015A0000145A0000265A0000034B002299
:104E60005A6059688142FCD3704700BF001000E0CF
:104E7000034B1A6922F00400186130BF704700BF6D
:104E800000ED00E00B4B40F2014241F205004FF40F
:104E900080611A60586040F61542596141F6F97018
:104EA0000B21DA60986459655A6D42F00B00586521
:104EB000704700BF00C40040064B4FF480725A6137
:104EC00040F6054041F6F97140F20332D86099642A
:104ED0005A65704700C00040114B4FF080429A6203
:104EE00080204FF08842142198631A6544F2020032
:104EF000D96448F20101D86599654FF482001A67B8
:104F00004FF40051C022DA67C3F89800C3F8A0102C
:104F1000D3F8202142F00400C3F82001704700BFFD
:104F200000600040054B40224FF4C85001211A6038
:104F3000D861D960024B04221A607047000001401A
:104F400000E100E0034B40F20C7200201A60586050
:104F5000704700BF00800840144B154A1A60186A59
:104F600040F0040119621846C26A104B1207FBD5C3
:104F70004FF4807140F2AE3099604C22D860B3217A
:104F800005201A6159610222986204215C205A624C
:104F900019645864074B0848DA6842F08071D96098
:104FA000036843F001020260704700BF00800C40BC
:104FB0002C060C00F0ED00E0001000E0054B08228C
:104FC0000548C3F880211A60C16C41F00403C36432
:104FD000704700BF00E100E000C0004010B50C4C7D
:104FE000B4F900300BB900F0F9FA0A482288C06918
:104FF000094B11B25854013290B29B7801B29942D8
:10500000208003D1BDE8104000F0EEBA10BD00BF13
:10501000E602002000C00040C602002008B500F0F3
:10502000EBFA00F0E1FA034B034900220A201A8050
:10503000887008BDE6020020C6020020194B9A685D
:1050400042F00101996018610120D860DA695107C6
:1050500005D59A68FF2022F0010199601FE0D96907
:105060008A0705D5996821F001009860FE2016E0B6
:1050700002200D4AD8600B4BD96911F00100194686
:1050800002D012B1013AF6E72AB98B6823F0010089
:105090008860FD2003E09A6822F00101996040B227
:1050A000704700BF00000C408096980030B5124B4E
:1050B000124AD46914F0080F0DD153B1013BF7E740
:1050C0000823D3600C4B0D4AD06910F001010DD1BB
:1050D00083B9FD210EE0002BFBD000238B42EFDAD9
:1050E00050F82340054D0133AC61F7E7002BF0D0B9
:1050F000013BE8E748B230BD8096980000000C40C4
:10510000094B01221861DA60D96911F0060008D054
:105110004A0705D411F0020F0CBF0020FE2000E06A
:10512000FF2040B2704700BF00000C40174B2DE934
:10513000F04180469868971040F001049C600E464C
:105140000024BC4219DA08EB84052846FFF7D8FF93
:10515000A0B9ED05E90DC1F500723B1B95089D4214
:10516000A8BF1D466419002DEBD030460121FFF782
:105170009DFF18B90436013DF5E70020034940B210
:105180008A6822F001038B60BDE8F08100000C40CA
:10519000F7B5A84900230A68A74C16781846ADF859
:1051A0000430ADF80630A54B25681E70A44F2A7850
:1051B00039685A70A34C0D7827689D70A2493C78D5
:1051C0000968DC700F881F7109880F0A9F495F7199
:1051D00009680F689F710F683F0ADF714F881F725F
:1051E000C978FF2759729A499F72DF720F68397820
:1051F000197358739873D87370B2002801DC0126B4
:105200001E70042D01D910259D70052A18BF032A90
:1052100006D002F0FB03082B02D0884F03227A70DD
:10522000032C864C01D90021E1708A4E3068FFF7CB
:1052300005FF824910223068FFF778FFFFF760FA18
:10524000FEF7C0FF6078FFF70DF9A078FFF753F97C
:10525000E078FFF7A7F8A078FFF78DF9FFF7AEFE2B
:10526000FFF760FE7C4D7D4B00200A2228809A705B
:10527000794F7A493C888E7820B2B04202D0FFF74D
:10528000F7FDF5E70024ADF80440744DAA78931EAD
:105290009C4209DABDF80460295DB0B2FFF74EFA0E
:1052A0000134ADF80400F0E7EF79ADF80670BDF811
:1052B0000640210201F47F46ADF80660BDF8060005
:1052C000AA7983B242EA0307ADF80670BDF804403C
:1052D000BDF80660A1B2B0B28142C3D12B78AA2B2F
:1052E000C0D16A78AA2ABDD1544EEF783478BC4236
:1052F000B8D12F79112F00F0BD8033D8042F7FD083
:105300000DD8012F6CD0002F59D0022F6FD0032F52
:10531000A8D15348FEF7CAFF514802216DE0062F7D
:1053200078D074D3072F00F08280102F9AD14B4E83
:10533000404D7079FFF71FF929683F4B08783F4CC3
:105340001A6820703F491578767908686570A670EC
:10535000404D03782868E370FFF770FE2868214607
:105360003A469FE0202F00F0C0801AD8132F00F09B
:10537000B580C0F09A80142F00F0B480152F7FF410
:1053800071AF344E2D4D012430686C73FFF756FE1B
:10539000306829461022FFF7C9FE204600F05CFA6B
:1053A00060E7222F00F0C080C0F0B580232F00F00E
:1053B000C480FF2F7FF456AFFFF706FC52E76979F0
:1053C0002848FEF710FF69792748FEF73DFF24487B
:1053D000FEF76CFF23482449214A00F08BF941E78E
:1053E00069792048FEF7FFFE1E48002105E0697933
:1053F0001D48FEF729FF1C48012100F00FF931E795
:105400001A48FFF7EFF8194800F0EAF92AE7FFF722
:10541000D1FA27E7164F14483946FFF79BF912488F
:10542000012100F0FBF83878FFF71CF81AE7FFF7C6
:10543000FFFA17E7240200201C020020E8040020E5
:105440000802002018020020200200200C02002088
:105450001002002014020020E6020020C6020020F4
:10546000B8020020B2020020C0020020E4020020A6
:10547000B00200206879FEF7F5FF344A344C116819
:105480006D790878276875703070324A3B781168FA
:10549000B3700878304DF0702868FFF7CFFD2868AA
:1054A00031461022FFF742FEDCE66879FEF77AFF0C
:1054B000264A2A4B11682A4F08781C683870244AFB
:1054C000267811687E700878234C6D79B870206852
:1054D000FD70FFF7B3FD20683946E2E76879FFF712
:1054E0005DF8BFE6FFF714FBBCE669791D48FEF7DF
:1054F0007AFE69791C48FEF7A7FE1C48FEF7D6FE27
:10550000032100221748FFF7F1FB1748032101226E
:10551000FFF7ECFB14E0164F12487979FEF763FEB3
:105520001048032100220EE0114B0F485979FEF775
:105530008BFE0D480321012205E00C48FEF7B6FE64
:105540000A4804210222FFF7D1FB8BE62402002047
:105550000802002018020020140200201C02002073
:10556000E8040020B2020020C0020020B80200209F
:10557000C6020020032804D107494FF40040C86543
:105580007047042801D1402202E0052803D180227F
:10559000014BC3F88020704700600040032804D10D
:1055A00007494FF4004088657047042801D1402224
:1055B00002E0052802D18022014BDA67704700BF64
:1055C00000600040044B58631A699206FCD50248FB
:1055D000C169C8B2704700BF00C40040014B01223E
:1055E0005A60704700000140024B022200205A60BE
:1055F0005862704700000140014B01229A617047D8
:1056000000000140044B1A695106FBD55863186924
:105610008206FCD5704700BF00C0004030B5058849
:1056200087B0AA2345F307228DF808308DF809309A
:105630008DF80D204388828800248DF80C508DF859
:105640000E3043F30725022942F30723ADF8064045
:105650008DF80B408DF80F508DF810208DF811301B
:1056600023491DD1C0884FF4804240F307258DF8AF
:1056700012008DF813508A650E218DF80A1002ABC6
:10568000E55CBDF80600294680B2FFF757F8013403
:10569000ADF806002846FFF7B5FF0C2CEFD115E05A
:1056A0004FF480400C2588658DF80A5002ABE55C0C
:1056B000BDF80620294690B2FFF740F80134ADF856
:1056C00006002846FFF79EFF0A2CEFD1BDF8062002
:1056D000BDF80640D0B2A4B2FFF794FF200AFFF74E
:1056E00091FF03484FF48041C16507B030BD00BF52
:1056F0000060004030B5AA2389B005888DF80830D5
:105700008DF8093018238DF80A308DF80C5045F3C8
:105710000723458880888DF80D308DF80E5045F3AD
:10572000072340F307258DF80F308DF811500B88B3
:105730004D888DF81000898843F307208DF81230CA
:105740008DF8145045F3072315888DF813008DF854
:10575000153041F3072045F307238DF816105188C3
:1057600092888DF819301D4B00248DF817008DF8A4
:1057700018508DF81A1041F3072042F307254FF413
:105780008041ADF806408DF80B408DF81B008DF878
:105790001C208DF81D50996502AAA55CBDF8060075
:1057A000294680B2FEF7CAFF0134ADF8060028464C
:1057B000FFF728FF162CEFD1BDF80610BDF8063014
:1057C000C8B29CB2FFF71EFF200AFFF71BFF034A77
:1057D0004FF48040D06509B030BD00BF006000408C
:1057E00030B5AA2385B005788DF808308DF80930DA
:1057F0004078184B002408214FF48042ADF8064051
:105800008DF80A108DF80B408DF80C508DF80D00B6
:105810009A6502AD655DBDF80610013488B229466F
:10582000FEF78CFFADF806002846FFF7EBFE062CCE
:10583000EFD1BDF80600BDF80620C0B294B2FFF764
:10584000E1FE200AFFF7DEFE024B4FF48041D965EE
:1058500005B030BD0060004018B9034B9968CB0714
:10586000FBD4024A106070470080084000001043DB
:10587000074880470749084A084B9B1A40F30580B0
:10588000043BC858D0503FF7FBAF05480047000025
:10589000E95800004C5A000000000020940200204B
:1058A00055410000FEE7FEE7FEE7FEE7FEE7FEE704
:1058B000FEE7FEE7FEE7FEE7FEE7FEE7FEE7FEE7C0
:1058C000FEE7FEE7FEE7FEE7FEE7FEE7FEE7FEE7B0
:1058D000FEE7FEE7FEE7FEE7FEE7FEE7FEE7FEE7A0
:1058E000FEE7FEE7FEE700BF7047000010B5034C7F
:1058F00014B1AFF3008010BD204610BD00000000C1
:1059000008B5084B04461BB10021AFF3008001E04D
:1059100000F00CF804480068816A01B1884720460D
:1059200000F048F8000000003C5A000070B5084B39
:10593000084C0025E01A841003EB8406043D1CB1DA
:1059400072599047013CF9E7BDE8704000F03AB861
:10595000900200209402002038B50E4D0E4B00241A
:10596000E81A8510AC4205D00B4951F82420904725
:105970000134F7E700F020F80849094A541AA51045
:105980000024AC4205D0054B53F824008047013475
:10599000F7E738BD8C0200208C0200208C0200202A
:1059A0009002002082180346934202D003F8011BA4
:1059B000FAE77047FEE700BFF8B500BFF8BC08BCC7
:1059C0009E467047F8B500BFF8BC08BC9E467047BD
:1059D0000A0D4779726F2D49440A0D000A0D416383
:1059E000632D49440A0D000A0D4D61672D49440A93
:1059F0000D000A0D4759524F4D45544552200A0D8E
:105A0000000A0D414343454C45524F4D45544552C4
:105A1000200A0D000A0D4D41474E45544F4D455447
:105A20004552200A0D000A0D54454D50455241542F
:105A3000555245200A0D00430000000028020020B6
:045A40000000000062
:085A440010E7FF7F01000000E4
:105A4C000201000005800F800A001B801E0014005C
:105A5C001180338036003C00398028002D8027804F
:105A6C002200638066006C00698078007D807780FE
:105A7C007200500055805F805A004B804E004400ED
:105A8C004180C380C600CC00C980D800DD80D7809F
:105A9C00D200F000F580FF80FA00EB80EE00E4000D
:105AAC00E180A000A580AF80AA00BB80BE00B4003E
:105ABC00B180938096009C00998088008D808780AF
:105ACC008200838186018C01898198019D81978157
:105ADC009201B001B581BF81BA01AB81AE01A401C5
:105AEC00A181E001E581EF81EA01FB81FE01F40176
:105AFC00F181D381D601DC01D981C801CD81C78167
:105B0C00C201400145814F814A015B815E01540114
:105B1C005181738176017C01798168016D81678186
:105B2C006201238126012C01298138013D813781B5
:105B3C003201100115811F811A010B810E01040124
:105B4C000181038306030C03098318031D83178348
:105B5C001203300335833F833A032B832E03240334
:105B6C002183600365836F836A037B837E037403E5
:105B7C007183538356035C03598348034D834783D6
:105B8C004203C003C583CF83CA03DB83DE03D40384
:105B9C00D183F383F603FC03F983E803ED83E783F6
:105BAC00E203A383A603AC03A983B803BD83B78325
:105BBC00B203900395839F839A038B838E03840394
:105BCC008183800285828F828A029B829E0294024C
:105BDC009182B382B602BC02B982A802AD82A782BE
:105BEC00A202E382E602EC02E982F802FD82F7826D
:105BFC00F202D002D582DF82DA02CB82CE02C4025C
:105C0C00C182438246024C02498258025D8257820D
:105C1C005202700275827F827A026B826E0264027B
:105C2C006182200225822F822A023B823E023402AC
:105C3C003182138216021C02198208020D8207821D
:105C4C0002023078202000000238000006380000E4
:105C5C000C38000000380000033800000138000048
:105C6C0004380000003800000000000000000000B4
:105C7C000000000000000000000000000000000018
:105C8C000000000000000000375A00000000000077
:105C9C0000000000000000000000000000000000F8
:105CAC0000000000000000000000000000000000E8
:105CBC0000000000000000000000000000000000D8
:105CCC000000000000000000000000002541000062
:045CDC000141000082
:040000030000587130
:00000001FF
