:104000000010002031580000675800006958000077
:104010006B5800006D5800006F5800006558000094
:104020006558000065580000655800007158000090
:10403000735800006558000075580000775800005C
:10404000795800007B58000021500000E54F000027
:1040500081580000835800008558000087580000F0
:10406000895800008B580000415000008F58000014
:104070009158000093580000955800009758000090
:10408000995800009B5800009D5800009F58000060
:10409000A1580000A3580000A5580000000000002F
:1040A0000000000000000000000000000000000010
:1040B0000000000000000000000000000000000000
:1040C00000000000000000000000000000000000F0
:1040D00000000000000000000000000000000000E0
:1040E00000000000000000000000000000000000D0
:1040F00000000000000000000000000000000000C0
:1041000010B5054C237833B9044810B10448AFF317
:1041100000800121217010BDB003002000000000CC
:10412000205A000008B5064B1BB106480649AFF3FC
:1041300000800648016811B1054A02B1904708BDE8
:1041400000000000205A0000B4030020B00300204B
:1041500000000000154B002B08BF134B9D46A3F534
:10416000803A00218B460F461348144A121A01F078
:10417000F9FB0F4B002B00D098470E4B002B00D0C3
:1041800098470020002104460D4600200C490022DB
:10419000002301F08BFB01F0BFFB2046294600F015
:1041A0009FFF01F08DFB00BF000008000010002001
:1041B0000000000000000000B0030020FC0500200B
:1041C000ED58000008B500F0B7FE00F077FE00F0F3
:1041D00047FE00F05FFE00F0A5FE4BF68030BDE824
:1041E000084000F029BE70B5B0B005466C4618AE68
:1041F000032001F067F9822001F08CF9FF2001F023
:1042000089F92070FF2001F085F96070FF2001F02E
:1042100081F9A070FF2001F07DF9E070FF2001F02E
:1042200079F92071FF2001F075F9607103200634DF
:1042300001F05CF9B442DBD16846294660220623CE
:1042400000F006FA30B070BD70B5B0B005466C46EF
:1042500018AE042001F036F9822001F05BF9FF204E
:1042600001F058F92070FF2001F054F96070FF2030
:1042700001F050F9A070FF2001F04CF9E070FF2030
:1042800001F048F92071FF2001F044F96071042029
:10429000063401F02BF9B442DBD16846294660228E
:1042A000062300F0D5F930B070BD00002DE9F74FBE
:1042B0000446052001F006F94C2001F02BF92E20D0
:1042C00001F028F9052001F011F9052001F0FAF8B4
:1042D0004C2001F01FF92A2001F01CF9052001F003
:1042E00005F92C4B1978012908BF4FF4A07007D0AD
:1042F000042901D1284803E007290CBF2748284892
:1043000000F09AFD052001F0DDF8C22001F002F96D
:10431000FF2001F0FFF88346FF2001F0FBF8024682
:10432000FF20019201F0F6F88146FF2001F0F2F83B
:104330008246FF2001F0EEF80746FF2001F0EAF880
:104340008046FF2001F0E6F80546FF2001F0E2F884
:104350000646052001F0CAF80198CBF3C70B43B21B
:104360004FFA8AFAC9F3C7024FFA88F8C7F347072A
:1043700076B2C5F387054BEA431142EA4A1947EA88
:10438000C81745EA86152180A4F80290A780E58029
:10439000BDE8FE8F0100002000E2040000C4090017
:1043A000006A180008B52D4A2D4B18B9012111706B
:1043B00002200EE0012803D1042010700E2008E036
:1043C000022803D1072111701A2002E02E2111705A
:1043D00052201870052001F075F84B2001F09AF872
:1043E000012001F097F8052001F080F8052001F088
:1043F00069F84C2001F08EF8282001F08BF8052098
:1044000001F074F8052001F05DF84E2001F082F80B
:10441000072001F07FF8052001F068F8052001F081
:1044200051F8512001F076F80C4A107801F072F83A
:10443000052001F05BF8052001F044F8522001F05E
:1044400069F8074B187801F065F8052001F04EF87F
:104450004FF47A50BDE8084000F0EEBC01000020A7
:1044600000000020052818BF032810B5044604D01A
:1044700000F0FB03082B18BF0324042001F022F8EE
:10448000142001F047F8B62001F044F8042001F0B0
:104490002DF8042001F016F80F2001F03BF820461B
:1044A00001F038F8042001F021F8042001F00AF8A6
:1044B000102001F02FF80F2001F02CF8042001F05B
:1044C00015F8042000F0FEFF112001F023F8002071
:1044D00001F020F8042001F009F8042000F0F2FFB8
:1044E000132001F017F8802001F014F80420BDE833
:1044F000104000F0FBBF10B5042894BF0446002410
:10450000032000F0DFFF142001F004F8B62001F0D2
:1045100001F8032000F0EAFF032000F0D3FF0F2092
:1045200000F0F8FF204600F0F5FF032000F0DEFF6A
:10453000102000F0EFFF022000F0ECFF032000F05D
:10454000D5FF032000F0BEFF112000F0E3FF0020A4
:1045500000F0E0FF032000F0C9FF032000F0B2FFED
:10456000132000F0D7FF002000F0D4FF0320BDE8A7
:10457000104000F0BBBF10B5042894BF04460024CF
:10458000032000F09FFF0F2000F0C4FF204600F042
:10459000C1FF0320BDE8104000F0A8BF38B5064CAD
:1045A000064D2070288801F0FBF928882146082252
:1045B000BDE8384001F0ECB9CE03002044020020F1
:1045C00010B50446032000F07DFF8F2000F0A2FF0D
:1045D000FF2000F09FFF2070032000F087FF0420E1
:1045E00000F070FF8F2000F095FFFF2000F092FF99
:1045F0006070042000F07AFF2378617803F00700F0
:1046000001F00F022070627010BD002870B503DA4F
:104610002D2301F8013B404200230A24B0FBF4F2B1
:1046200004FB12003030C85401331046002AF4D184
:104630005C10CB181A46A04207DA0D5C12F8016C28
:104640000E5402F8015D0130F5E70021197070BDCC
:104650002DE9F0470024A04626462746A44690456B
:1046600004EB030928DA051995F901A098444FEAEB
:104670000A1A1FFA8AFAA1F800A0045D4AEA141483
:104680000C8024B2A44495F903402401A4B24C80C8
:1046900095F802A044EA1A144C8024B23F1995F907
:1046A00005402401A4B28C802D7944EA15148C8035
:1046B00024B236194C46D2E792FBF3F20FFA8CFC87
:1046C0003FB236B29CFBF2F097FBF2F796FBF2F3A7
:1046D00008804F808B80BDE8F087000000231A021D
:1046E00092B2082012F4004F18BF09494FEA420263
:1046F0001ABF51408AB292B2411E11F0FF00F1D1AF
:10470000044921F813200133B3F5807FE7D17047C6
:104710000580FFFFFC030020044B81EA102133F8E1
:10472000112082EA002080B2704700BF0200002002
:1047300030B5002389B0054604200093ADF804305D
:104740000293ADF80C30ADF81030ADF81230ADF882
:104750001430ADF81830ADF81A30ADF81C300C46F6
:1047600000F0B0FE8F2000F0D5FEFF2000F0D2FE5A
:104770002070042000F0BAFE207800F00F012170B4
:10478000042000F09FFE0F2000F0C4FE082000F07F
:10479000C1FE042000F0AAFE042000F093FE3220A7
:1047A0007A4C00F0B7FE152000F0B4FE042000F0B3
:1047B0009DFE204600F040FB042000F083FE822096
:1047C00000F0A8FEFF2000F0A5FE8DF80000FF20FD
:1047D00000F0A0FE8DF80100042000F087FE042008
:1047E00000F070FE322000F095FE162000F092FEE0
:1047F000042000F07BFE204600F01EFB042000F0A9
:1048000061FE842000F086FEFF2000F083FE8DF81C
:104810000200FF2000F07EFE8DF80300042000F06F
:1048200065FE042000F04EFE322000F073FE1720DB
:1048300000F070FE042000F059FE204600F0FCFA63
:10484000042000F03FFE862000F064FEFF2000F010
:1048500061FE8DF80400FF2000F05CFE8DF805007D
:10486000042000F043FE042000F02CFE322000F073
:1048700051FE112000F04EFE042000F037FE2046CD
:1048800000F0DAFA042000F01DFE822000F042FE63
:10489000FF2000F03FFE8DF80800FF2000F03AFEF8
:1048A0008DF80900042000F021FE042000F00AFE2B
:1048B000322000F02FFE122000F02CFE042000F029
:1048C00015FE204600F0B8FA042000F0FBFD84201D
:1048D00000F020FEFF2000F01DFE8DF80A00FF20F2
:1048E00000F018FE8DF80B00042000F0FFFD0420FE
:1048F00000F0E8FD322000F00DFE132000F00AFE6B
:10490000042000F0F3FD204600F096FA042000F0A9
:10491000D9FD862000F0FEFDFF2000F0FBFD8DF8A4
:104920000C00FF2000F0F6FD8DF80D00042000F0D3
:10493000DDFD042000F0C6FD142000F0EBFDB620E4
:1049400000F0E8FD042000F0D1FD684604A906222D
:104950000123FFF77DFE02A806A906220123FFF727
:1049600077FEBDF81830BDF81020BDF81A10D01A27
:10497000BDF8123028805A1ABDF81C00BDF814107A
:104980006A800B1AAB8009B030BD00BF00D4300084
:1049900030B5072085B0AA2300248DF80B00032032
:1049A0008DF808308DF80930ADF806408DF80A40D2
:1049B00000F088FDBC2000F0ADFDFF2000F0AAFD56
:1049C0000546032000F092FDC5F300118DF80C1090
:1049D00002ABE55CBDF80620294690B2FFF79CFECD
:1049E0000134ADF80600284600F0C8FD052CEFD1D3
:1049F000BDF80600BDF80610C0B28CB200F0BEFDD6
:104A0000200A00F0BBFD05B030BD0000F0B5092064
:104A100085B0AA2300248DF8070005208DF8043006
:104A20008DF80530ADF802408DF8064000F04AFDE3
:104A30004B2000F06FFD012000F06CFD052000F020
:104A400055FD052000F03EFD4C2000F063FD2F20B9
:104A500000F060FD052000F049FD234800F0ECF96E
:104A6000052000F02FFDC22000F054FDFF2000F0D3
:104A700051FD0746FF2000F04DFDFF2000F04AFDEC
:104A80000646FF2000F046FDFF2000F043FD0546EE
:104A9000052000F02BFD07F0010706F0010605F0E8
:104AA00001018DF808708DF809608DF80A1001ABCE
:104AB000E55CBDF80220294690B2FFF72DFE0134D7
:104AC000ADF80200284600F059FD072CEFD1BDF8E3
:104AD0000200BDF80210C0B28CB200F04FFD200AF7
:104AE00000F04CFD05B0F0BD00D4300030B51B49DE
:104AF00085B0AA238DF808308DF809300D78184B51
:104B0000002407204FF48042ADF806408DF80A00DB
:104B10008DF80B408DF80C509A6502A9655CBDF8C4
:104B20000600294680B2FFF7F7FD0134ADF8060014
:104B3000284600F023FD052CEFD1BDF80620BDF876
:104B40000630D0B29CB200F019FD200A00F016FD2C
:104B500003494FF48040C86505B030BDCE03002046
:104B6000006000400309092B03DC0D4A03F130010A
:104B70009170A3F10A01052902D8094A37339370CD
:104B800000F00F00092803DC054B00F13001D9705B
:104B9000A0F10A02052A02D801493730C8707047CF
:104BA000020200202DE9F041424A8AB010685168A3
:104BB00007AB03C3404C906861681860206801AD82
:104BC00003C53E4F218938682980796804AB03C347
:104BD0003889BA7AA67A188003209A70AE7000F0ED
:104BE00071FC802000F096FC002000F093FC8046D1
:104BF000032000F07BFC042000F064FC802000F027
:104C000089FC002000F086FC0746042000F06EFCC2
:104C1000052000F057FCC02000F07CFC002000F0D4
:104C200079FC274D06464FF48044052000F05EFCD9
:104C3000AC650DF11B0515F8014F1CB1204600F0C5
:104C40009DFCF8E74046FFF78DFF1E49085D0134E3
:104C500000F094FC042CF8D10DF1030515F8014F78
:104C60001CB1204600F08AFCF8E73846FFF77AFFCF
:104C7000144B185D013400F081FC042CF8D10DF1C7
:104C80000F0515F8014F1CB1204600F077FCF8E73E
:104C90003046FFF767FF0B48005D013400F06EFC03
:104CA000042CF8D106494FF48042CA650AB0BDE829
:104CB000F08100BFB0590000BC590000C759000086
:104CC0000060004002020020F0B5564B4FF48041D6
:104CD00095B0054699651446A2B9534A0FAB516881
:104CE000106803C352F8080F967991889E71186076
:104CF00099800DF13B0616F8010F00284CD000F00A
:104D00003DFCF8E7012A17D1484B0FA803F1100723
:104D1000024659681868083303C2BB421046F7D1EF
:104D20009E781988967011800DF13B0616F8010FD8
:104D300090B300F023FCF9E7022A15D13C4B0FA9F0
:104D400003F110070A4618685968083303C2BB42CA
:104D50001146F7D118880DF13B06108016F8010FA7
:104D6000D0B100F00BFCF9E7032A15D1314B0FAAA3
:104D700003F1100718685968164603C60833BB428A
:104D80003246F7D1187830700DF13B0616F8010F56
:104D900010B100F0F3FBF9E7B5F900006946FFF741
:104DA00034FCB5F9020005A9FFF72FFCB5F90400A2
:104DB0000AA9FFF72AFC0DF1FF3616F8010F10B112
:104DC00000F0DCFBF9E7202000F0D8FB0DF1130622
:104DD00016F8010F10B100F0D1FBF9E7202000F028
:104DE000CDFB0DF1270616F8010F10B100F0C6FB40
:104DF000F9E7022C05D00B4B4FF48042DA6515B071
:104E0000F0BDB5F906000FA9FFF7FFFB202000F069
:104E1000B5FB0DF13B0414F8010F0028EBD000F0B6
:104E2000ADFBF8E700600040D2590000E1590000F6
:104E3000F4590000065A0000034B00225A605968DA
:104E40008142FCD3704700BF001000E0034B1A6999
:104E500022F00400186130BF704700BF00ED00E091
:104E60000B4B40F2014241F205004FF480611A60A1
:104E7000586040F61542596141F6F9700B21DA602D
:104E8000986459655A6D42F00B005865704700BF31
:104E900000C40040084B4FF4407240F605405A6190
:104EA000D860196841F6F97041F0600240F20331B0
:104EB0001A6098645965704700C00040114B4FF06C
:104EC00080429A6280204FF08842142198631A65CC
:104ED00044F20200D96448F20101D86599654FF4A3
:104EE00082001A674FF40051C022DA67C3F89800B5
:104EF000C3F8A010D3F8202142F00400C3F8200129
:104F0000704700BF00600040054B40224FF4A07185
:104F1000A0201A60D961C3F80024C3F81C047047AC
:104F200000000140034B40F20C7200201A605860F0
:104F3000704700BF00800840164B174A1A60186A75
:104F400040F0040119621846C26A124B1207FBD5E1
:104F50004FF4807140F2AE3099604C22D860B3219A
:104F600005201A6159610222986204217C205A624C
:104F7000196458649A65094B0948DA6842F08071EF
:104F8000D960036841F6713143F0010202600548BF
:104F9000C163704700800C402C060C00F0ED00E06F
:104FA000001000E000000C400A4B08220A48C3F839
:104FB00080211A60C16C41F004020849C2640120DA
:104FC000C860074904221A60C8604FF48060186006
:104FD000704700BF00E100E000C000400000014059
:104FE0000004014010B500F0A7FA00F09FFA09494B
:104FF000094B0A88DC69094B10B21C54013290B28B
:105000009B78088001B2994203D1BDE8104000F0BE
:1050100093BA10BDF203002000C00040140200202B
:1050200008B500F091FA00F087FA034B034900221B
:105030001E201A80887008BDF20300201402002090
:1050400008B500F08DFA00F093FA044B1A68501D71
:105050001860BDE8084000F07DBA00BFEC030020F6
:1050600030B5124B124AD46914F0080F0DD153B168
:10507000013BF7E70823D3600C4B0D4AD06910F0D1
:1050800001010DD183B9FD210EE0002BFBD00023DF
:105090008B42EFDA50F82340054D0133AC61F7E75E
:1050A000002BF0D0013BE8E748B230BD8096980075
:1050B00000000C40094B01221861DA60D96911F037
:1050C000060008D04A0705D411F0020F0CBF0020DB
:1050D000FE2000E0FF2040B2704700BF00000C40FF
:1050E000F7B5A64BA64A1968146891F800E0A549DF
:1050F000A54D81F800E022782E684A70A34F3678DB
:105100003B688E70A24C1D782468CD702788A14B17
:1051100000201F7024884FFA8EFC270A9E4C5F7077
:105120002468ADF800002768ADF802009F7027687A
:105130003F0ADF70678884451F71E478974F5C7180
:105140003C682778D8719F7101DC01200870042E1B
:1051500002D91020887001200C2A8A490AD0082A16
:1051600008D0052A06D0032A04D0032295424A70AB
:1051700002D805E0032D02D90026CE7000E040B130
:10518000874D288800F00CFC28887E49082200F012
:10519000FFFB7C4CFFF7A2FAFFF714F86078FFF7EB
:1051A00061F9A078FFF7A7F9E078FFF7FBF8A0789E
:1051B000FFF7E1F9FFF7F8FEFFF7A6FEFFF7B2FEF3
:1051C00000F0C8F9774B784900271E201F808870AF
:1051D000744A754C1688A57837B2AF4202D0FFF7F3
:1051E00035FEF5E72378AA2BECD16078AA28E9D11F
:1051F000644EE1783378994240F00B812079112890
:1052000000F090801DD8042872D00CD801285FD0FF
:105210004ED3022863D00328D4D16448FFF746F860
:105220006248022161E006286CD068D3072876D056
:105230001028C7D16079FFF79EF96379514CA370AC
:1052400085E0162800F0918018D8132800F0868099
:1052500077D3142800F086801528B3D1544E4D4DD5
:1052600001273088EF7100F09BFB30882946082227
:1052700000F08EFB384600F0CFFAA3E7222800F0BA
:10528000B7800DD82028484F00F09C80212899D164
:1052900079794848FEF7A7FF464803210022B5E088
:1052A000232800F0AD80FF288CD1FFF77BFC89E735
:1052B00061794048FEF797FF61793F48FEF7C4FFE8
:1052C0003A48FEF7F3FF3B483B49384A0023C5E024
:1052D00061793848FEF787FF3648002105E061799B
:1052E0003548FEF7B1FF3448012100F053F969E772
:1052F0003248FFF765F9314800F052FA62E7FFF7EC
:1053000047FB5FE72E4C2C482146FFF711FA2A484D
:10531000012100F03FF92078FFF7A4F852E7FFF7EA
:1053200075FB4FE76079FFF79DF862791C4C72704E
:10533000208800F035FB20883146082200F028FB49
:1053400040E76079FFF72EF861790E4CE170144D5B
:10535000288800F025FB28882146EEE76079FFF7D2
:105360001DF92FE7FFF7C2FB2CE7104A114812493D
:10537000012300F07BF9002263E000BF4802002017
:105380003C020020CE03002008020020380200204A
:1053900040020020F403002034020020100200200C
:1053A00044020020F203002014020020DC0300204D
:1053B0000C020020D6030020E4030020F0030020AC
:1053C000CD03002079793848FEF70DFF7979374809
:1053D000FEF73AFF3648FEF769FF03210022324804
:1053E000FFF772FC314803210122FFF76DFC0AE050
:1053F00061792E48FEF728FF2C480321012205E0A1
:105400002B48FEF753FF2A4804210222FFF75CFCD9
:10541000D8E6E278802A7FF4D5AE2579012D13D025
:1054200003D3022D7FF4CEAE12E061791E48FEF761
:10543000DAFE61791D48FEF707FF1D48FEF736FFCB
:10544000A2791C480270BDE61B4F00253D60B9E6FD
:10545000012B06D114481549154A012300F006F91D
:10546000B0E6282001270197E0754FF47A70584381
:10547000124E591EF47D8C42ECD0019A002AE9D0DC
:105480000F4F00251E2401903D80B4700C4E0B4A36
:10549000318895780FB2AF42EAD0019C002CE7D05A
:1054A000019E711E0191F1E7D6030020E403002064
:1054B000DC030020CC030020EC03002014020020B9
:1054C000F2030020032804D107494FF40040C865C7
:1054D0007047042801D1402202E0052803D1802230
:1054E000014BC3F88020704700600040032804D1BE
:1054F00007494FF4004088657047042801D14022D5
:1055000002E0052802D18022014BDA67704700BF14
:1055100000600040044B58631A699206FCD50248AB
:10552000C169C8B2704700BF00C40040014B0122EE
:105530005A60704700000140024B022200205A606E
:105540005862704700000140014B01229A61704788
:1055500000000140014B01225A60704700040140E5
:10556000024B022200205A6058627047000401403A
:10557000014B01229A61704700040140044B1A69F3
:105580005106FBD5586318698206FCD5704700BFE9
:1055900000C0004030B5058887B0AA2345F3072234
:1055A0008DF808308DF809308DF80D2043888288F9
:1055B00000248DF80C508DF80E3043F30725022996
:1055C00042F30723ADF806408DF80B408DF80F50DD
:1055D0008DF810208DF8113023491DD1C0884FF46B
:1055E000804240F307258DF812008DF813508A652C
:1055F0000E218DF80A1002ABE55CBDF806002946C5
:1056000080B2FFF789F80134ADF806002846FFF7AD
:10561000B5FF0C2CEFD115E04FF480400C258865C8
:105620008DF80A5002ABE55CBDF80620294690B221
:10563000FFF772F80134ADF806002846FFF79EFF29
:105640000A2CEFD1BDF80620BDF80640D0B2A4B2B6
:10565000FFF794FF200AFFF791FF03484FF48041C2
:10566000C16507B030BD00BF0060004070B50024C8
:1056700088B02546ADF802408DF80750AA24058869
:105680008DF804408DF8054018248DF806408DF8FB
:10569000085045F30724458880888DF8094045F374
:1056A00007248DF80A508DF80B4040F307250C882D
:1056B0008DF80D504D8889888DF80C0044F3072033
:1056C0008DF80E408DF80F0045F3072441F30720B5
:1056D0008DF810508DF812101588518892888DF829
:1056E00011408DF8130045F307248DF8145041F351
:1056F000072042F30725012B8DF815408DF8161071
:105700008DF817008DF818208DF8195019D1204BFD
:105710002048214D1C681D2102782B78200C8DF823
:1057200006108DF81C40210A240E8DF81A208DF8E1
:105730001B308DF81D108DF81E008DF81F401C25A4
:1057400000E01625154B4FF480429A650024AC42C8
:10575000BDF802100CDA01AEA65D88B23146FEF744
:10576000DBFFADF802003046FFF708FF0134EEE73B
:10577000BDF8020084B2C8B2FFF700FF200AFFF7AD
:10578000FDFE064B4FF48042DA6508B070BD00BFE5
:10579000EC030020CC030020CE030020006000407A
:1057A00030B5AA2385B005788DF808308DF809301A
:1057B0004078184B002408214FF48042ADF8064091
:1057C0008DF80A108DF80B408DF80C508DF80D00F7
:1057D0009A6502AD655DBDF80610013488B22946B0
:1057E000FEF79AFFADF806002846FFF7C7FE062C25
:1057F000EFD1BDF80600BDF80620C0B294B2FFF7A5
:10580000BDFE200AFFF7BAFE024B4FF48041D96576
:1058100005B030BD0060004018B9034B9968CB0754
:10582000FBD4024A1060704700800840000010431B
:10583000074880470749084A084B9B1A40F30580F0
:10584000043BC858D0503FF7FBAF05480047000065
:10585000A95800002C5A000000000020B0030020CE
:1058600055410000FEE7FEE7FEE7FEE7FEE7FEE744
:10587000FEE7FEE7FEE7FEE7FEE7FEE7FEE7FEE700
:10588000FEE7FEE7FEE7FEE7FEE7FEE7FEE7FEE7F0
:10589000FEE7FEE7FEE7FEE7FEE7FEE7FEE7FEE7E0
:1058A000FEE7FEE7FEE700BF7047000010B5034CBF
:1058B00014B1AFF3008010BD204610BD0000000001
:1058C00008B5084B04461BB10021AFF3008001E08E
:1058D00000F00CF804480068816A01B1884720464E
:1058E00000F048F8000000001C5A000070B5084B9A
:1058F000084C0025E01A841003EB8406043D1CB11B
:1059000072599047013CF9E7BDE8704000F03AB8A1
:10591000AC030020B003002038B50E4D0E4B002420
:10592000E81A8510AC4205D00B4951F82420904765
:105930000134F7E700F020F80849094A541AA51085
:105940000024AC4205D0054B53F8240080470134B5
:10595000F7E738BDA8030020A8030020A803002013
:10596000AC03002082180346934202D003F8011BC7
:10597000FAE77047FEE700BFF8B500BFF8BC08BC07
:105980009E467047F8B500BFF8BC08BC9E467047FD
:1059900001B40248844601BC604700BF21030020D7
:1059A00001B40248844601BC604700BFB102002038
:1059B0000A0D4779726F2D49440A0D000A0D4163A3
:1059C000632D49440A0D000A0D4D61672D49440AB3
:1059D0000D000A0D4759524F4D45544552200A0DAE
:1059E000000A0D414343454C45524F4D45544552E5
:1059F000200A0D000A0D4D41474E45544F4D455468
:105A00004552200A0D000A0D54454D50455241544F
:105A1000555245200A0D0043000000004C020020B2
:045A20000000000082
:085A240030E7FF7F01000000E4
:105A2C000201000005800F800A001B801E0014007C
:105A3C001180338036003C00398028002D8027806F
:105A4C002200638066006C00698078007D8077801E
:105A5C007200500055805F805A004B804E0044000D
:105A6C004180C380C600CC00C980D800DD80D780BF
:105A7C00D200F000F580FF80FA00EB80EE00E4002D
:105A8C00E180A000A580AF80AA00BB80BE00B4005E
:105A9C00B180938096009C00998088008D808780CF
:105AAC008200838186018C01898198019D81978177
:105ABC009201B001B581BF81BA01AB81AE01A401E5
:105ACC00A181E001E581EF81EA01FB81FE01F40196
:105ADC00F181D381D601DC01D981C801CD81C78187
:105AEC00C201400145814F814A015B815E01540135
:105AFC005181738176017C01798168016D816781A7
:105B0C006201238126012C01298138013D813781D5
:105B1C003201100115811F811A010B810E01040144
:105B2C000181038306030C03098318031D83178368
:105B3C001203300335833F833A032B832E03240354
:105B4C002183600365836F836A037B837E03740305
:105B5C007183538356035C03598348034D834783F6
:105B6C004203C003C583CF83CA03DB83DE03D403A4
:105B7C00D183F383F603FC03F983E803ED83E78316
:105B8C00E203A383A603AC03A983B803BD83B78345
:105B9C00B203900395839F839A038B838E038403B4
:105BAC008183800285828F828A029B829E0294026C
:105BBC009182B382B602BC02B982A802AD82A782DE
:105BCC00A202E382E602EC02E982F802FD82F7828D
:105BDC00F202D002D582DF82DA02CB82CE02C4027C
:105BEC00C182438246024C02498258025D8257822E
:105BFC005202700275827F827A026B826E0264029C
:105C0C006182200225822F822A023B823E023402CC
:105C1C003182138216021C02198208020D8207823D
:105C2C0002023078202000000278000000380000CA
:105C3C00063800000000000000000000000000001A
:105C4C000000000000000000000000280000000020
:105C5C00000000000238000003780000017800000A
:105C6C000038000000780000007800000000000000
:105C7C000000000000000000000000000000000018
:105C8C00000000000000000000000000175A000097
:105C9C0000000000000000000000000000000000F8
:105CAC0000000000000000000000000000000000E8
:105CBC0000000000000000000000000000000000D8
:105CCC0000000000000000000000000000000000C8
:105CDC00194B9A6842F00101996018610120D86053
:105CEC00DA69510705D59A68FF2022F00101996005
:105CFC001FE0D9698A0705D5996821F001009860E1
:105D0C00FE2016E002200D4AD8600B4BD96911F029
:105D1C000100194602D012B1013AF6E72AB98B6894
:105D2C0023F001008860FD2003E09A6822F0010155
:105D3C00996040B2704700BF00000C4080969800FC
:105D4C00174B2DE9F04180469868971040F00104FC
:105D5C009C600E460024BC4219DA08EB84052846E8
:105D6C0000F022F8A0B9ED05E90DC1F500723B1B5E
:105D7C0095089D42A8BF1D466419002DEBD03046F6
:105D8C00012100F019F818B90436013DF5E700209F
:105D9C00034940B28A6822F001038B60BDE8F081B0
:105DAC0000000C400000000001B40248844601BC15
:105DBC00604700BFB550000001B40248844601BCE6
:105DCC00604700BF61500000254100000141000008
:040000030000583170
:00000001FF
