:1000000000100020111800004718000049180000D7
:100010004B1800004D1800004F1800004518000054
:100020004518000045180000451800005118000050
:10003000531800004518000055180000571800001C
:10004000591800005B18000021100000E50F0000A7
:1000500061180000631800006518000067180000B0
:10006000691800006B180000411000006F180000B4
:100070007118000073180000751800007718000050
:10008000791800007B1800007D1800007F18000020
:10009000811800008318000085180000000000008F
:1000A0000000000000000000000000000000000050
:1000B0000000000000000000000000000000000040
:1000C0000000000000000000000000000000000030
:1000D0000000000000000000000000000000000020
:1000E0000000000000000000000000000000000010
:1000F0000000000000000000000000000000000000
:1001000010B5054C237833B9044810B10448AFF357
:1001100000800121217010BDB0030020000000000C
:10012000001A000008B5064B1BB106480649AFF39C
:1001300000800648016811B1054A02B1904708BD28
:1001400000000000001A0000B4030020B0030020EB
:1001500000000000154B002B08BF134B9D46A3F574
:10016000803A00218B460F461348144A121A01F0B8
:10017000E9FB0F4B002B00D098470E4B002B00D013
:1001800098470020002104460D4600200C4900221B
:10019000002301F07BFB01F0AFFB2046294600F075
:1001A00099FF01F07DFB00BF000008000010002057
:1001B0000000000000000000B0030020FC0500204B
:1001C000CD18000008B500F0B7FE00F077FE00F093
:1001D00047FE00F05FFE00F0A5FE4BF68030BDE864
:1001E000084000F029BE70B5B0B005466C4618AEA8
:1001F000032001F05FF9822001F084F9FF2001F073
:1002000081F92070FF2001F07DF96070FF2001F07E
:1002100079F9A070FF2001F075F9E070FF2001F07E
:1002200071F92071FF2001F06DF96071032006342F
:1002300001F054F9B442DBD1684629466022062316
:1002400000F006FA30B070BD70B5B0B005466C462F
:1002500018AE042001F02EF9822001F053F9FF209E
:1002600001F050F92070FF2001F04CF96070FF2080
:1002700001F048F9A070FF2001F044F9E070FF2080
:1002800001F040F92071FF2001F03CF96071042079
:10029000063401F023F9B442DBD1684629466022D6
:1002A000062300F0D5F930B070BD00002DE9F74FFE
:1002B0000446052001F0FEF84C2001F023F92E2021
:1002C00001F020F9052001F009F9052001F0F2F80C
:1002D0004C2001F017F92A2001F014F9052001F053
:1002E000FDF82C4B1978012908BF4FF4A07007D0F6
:1002F000042901D1284803E007290CBF27482848D2
:1003000000F09AFD052001F0D5F8C22001F0FAF8BE
:10031000FF2001F0F7F88346FF2001F0F3F80246D2
:10032000FF20019201F0EEF88146FF2001F0EAF88B
:100330008246FF2001F0E6F80746FF2001F0E2F8D0
:100340008046FF2001F0DEF80546FF2001F0DAF8D4
:100350000646052001F0C2F80198CBF3C70B43B263
:100360004FFA8AFAC9F3C7024FFA88F8C7F347076A
:1003700076B2C5F387054BEA431142EA4A1947EAC8
:10038000C81745EA86152180A4F80290A780E58069
:10039000BDE8FE8F0100002000E2040000C4090057
:1003A000006A180008B52D4A2D4B18B901211170AB
:1003B00002200EE0012803D1042010700E2008E076
:1003C000022803D1072111701A2002E02E2111709A
:1003D00052201870052001F06DF84B2001F092F8C2
:1003E000012001F08FF8052001F078F8052001F0D8
:1003F00061F84C2001F086F8282001F083F80520F0
:1004000001F06CF8052001F055F84E2001F07AF863
:10041000072001F077F8052001F060F8052001F0D1
:1004200049F8512001F06EF80C4A107801F06AF892
:10043000052001F053F8052001F03CF8522001F0AE
:1004400061F8074B187801F05DF8052001F046F8D7
:100450004FF47A50BDE8084000F0EEBC01000020E7
:1004600000000020052818BF032810B5044604D05A
:1004700000F0FB03082B18BF0324042001F01AF836
:10048000142001F03FF8B62001F03CF8042001F000
:1004900025F8042001F00EF80F2001F033F8204673
:1004A00001F030F8042001F019F8042001F002F8FE
:1004B000102001F027F80F2001F024F8042001F0AB
:1004C0000DF8042000F0F6FF112001F01BF80020C9
:1004D00001F018F8042001F001F8042000F0EAFF10
:1004E000132001F00FF8802001F00CF80420BDE883
:1004F000104000F0F3BF10B5042894BF0446002458
:10050000032000F0D7FF142000F0FCFFB62000F01D
:10051000F9FF032000F0E2FF032000F0CBFF0F20E3
:1005200000F0F0FF204600F0EDFF032000F0D6FFC2
:10053000102000F0E7FF022000F0E4FF032000F0AD
:10054000CDFF032000F0B6FF112000F0DBFF0020FC
:1005500000F0D8FF032000F0C1FF032000F0AAFF45
:10056000132000F0CFFF002000F0CCFF0320BDE8F7
:10057000104000F0B3BF10B5042894BF0446002417
:10058000032000F097FF0F2000F0BCFF204600F092
:10059000B9FF0320BDE8104000F0A0BF38B5064CFD
:1005A000064D2070288801F0EBF9288821460822A2
:1005B000BDE8384001F0DCB9CE0300204402002041
:1005C00010B50446032000F075FF8F2000F09AFF5D
:1005D000FF2000F097FF2070032000F07FFF042031
:1005E00000F068FF8F2000F08DFFFF2000F08AFFF1
:1005F0006070042000F072FF2378617803F0070038
:1006000001F00F022070627010BD002870B503DA8F
:100610002D2301F8013B404200230A24B0FBF4F2F1
:1006200004FB12003030C85401331046002AF4D1C4
:100630005C10CB181A46A04207DA0D5C12F8016C68
:100640000E5402F8015D0130F5E70021197070BD0C
:100650002DE9F0470024A04626462746A4469045AB
:1006600004EB030928DA051995F901A098444FEA2B
:100670000A1A1FFA8AFAA1F800A0045D4AEA1414C3
:100680000C8024B2A44495F903402401A4B24C8008
:1006900095F802A044EA1A144C8024B23F1995F947
:1006A00005402401A4B28C802D7944EA15148C8075
:1006B00024B236194C46D2E792FBF3F20FFA8CFCC7
:1006C0003FB236B29CFBF2F097FBF2F796FBF2F3E7
:1006D00008804F808B80BDE8F087000000231A025D
:1006E00092B2082012F4004F18BF09494FEA4202A3
:1006F0001ABF51408AB292B2411E11F0FF00F1D1EF
:10070000044921F813200133B3F5807FE7D1704706
:100710000580FFFFFC030020044B81EA102133F821
:10072000112082EA002080B2704700BF0200002042
:1007300030B5002389B0054604200093ADF804309D
:100740000293ADF80C30ADF81030ADF81230ADF8C2
:100750001430ADF81830ADF81A30ADF81C300C4636
:1007600000F0A8FE8F2000F0CDFEFF2000F0CAFEB2
:100770002070042000F0B2FE207800F00F012170FC
:10078000042000F097FE0F2000F0BCFE082000F0CF
:10079000B9FE042000F0A2FE042000F08BFE3220FF
:1007A0007A4C00F0AFFE152000F0ACFE042000F003
:1007B00095FE204600F040FB042000F07BFE8220E6
:1007C00000F0A0FEFF2000F09DFE8DF80000FF204D
:1007D00000F098FE8DF80100042000F07FFE042058
:1007E00000F068FE322000F08DFE162000F08AFE38
:1007F000042000F073FE204600F01EFB042000F0F1
:1008000059FE842000F07EFEFF2000F07BFE8DF874
:100810000200FF2000F076FE8DF80300042000F0B7
:100820005DFE042000F046FE322000F06BFE172033
:1008300000F068FE042000F051FE204600F0FCFAB3
:10084000042000F037FE862000F05CFEFF2000F060
:1008500059FE8DF80400FF2000F054FE8DF80500CD
:10086000042000F03BFE042000F024FE322000F0C3
:1008700049FE112000F046FE042000F02FFE204625
:1008800000F0DAFA042000F015FE822000F03AFEB3
:10089000FF2000F037FE8DF80800FF2000F032FE48
:1008A0008DF80900042000F019FE042000F002FE7B
:1008B000322000F027FE122000F024FE042000F079
:1008C0000DFE204600F0B8FA042000F0F3FD84206D
:1008D00000F018FEFF2000F015FE8DF80A00FF2042
:1008E00000F010FE8DF80B00042000F0F7FD04204E
:1008F00000F0E0FD322000F005FE132000F002FEC3
:10090000042000F0EBFD204600F096FA042000F0F1
:10091000D1FD862000F0F6FDFF2000F0F3FD8DF8FC
:100920000C00FF2000F0EEFD8DF80D00042000F01B
:10093000D5FD042000F0BEFD142000F0E3FDB6203C
:1009400000F0E0FD042000F0C9FD684604A906227D
:100950000123FFF77DFE02A806A906220123FFF767
:1009600077FEBDF81830BDF81020BDF81A10D01A67
:10097000BDF8123028805A1ABDF81C00BDF81410BA
:100980006A800B1AAB8009B030BD00BF00D43000C4
:1009900030B5072085B0AA2300248DF80B00032072
:1009A0008DF808308DF80930ADF806408DF80A4012
:1009B00000F080FDBC2000F0A5FDFF2000F0A2FDAE
:1009C0000546032000F08AFDC5F300118DF80C10D8
:1009D00002ABE55CBDF80620294690B2FFF79CFE0D
:1009E0000134ADF80600284600F0B8FD052CEFD123
:1009F000BDF80600BDF80610C0B28CB200F0AEFD26
:100A0000200A00F0ABFD05B030BD0000F0B50920B4
:100A100085B0AA2300248DF8070005208DF8043046
:100A20008DF80530ADF802408DF8064000F042FD2B
:100A30004B2000F067FD012000F064FD052000F070
:100A40004DFD052000F036FD4C2000F05BFD2F2011
:100A500000F058FD052000F041FD234800F0ECF9BE
:100A6000052000F027FDC22000F04CFDFF2000F023
:100A700049FD0746FF2000F045FDFF2000F042FD44
:100A80000646FF2000F03EFDFF2000F03BFD05463E
:100A9000052000F023FD07F0010706F0010605F030
:100AA00001018DF808708DF809608DF80A1001AB0E
:100AB000E55CBDF80220294690B2FFF72DFE013417
:100AC000ADF80200284600F049FD072CEFD1BDF833
:100AD0000200BDF80210C0B28CB200F03FFD200A47
:100AE00000F03CFD05B0F0BD00D4300030B51B492E
:100AF00085B0AA238DF808308DF809300D78184B91
:100B0000002407204FF48042ADF806408DF80A001B
:100B10008DF80B408DF80C509A6502A9655CBDF804
:100B20000600294680B2FFF7F7FD0134ADF8060054
:100B3000284600F013FD052CEFD1BDF80620BDF8C6
:100B40000630D0B29CB200F009FD200A00F006FD8C
:100B500003494FF48040C86505B030BDCE03002086
:100B6000006000400309092B03DC0D4A03F130014A
:100B70009170A3F10A01052902D8094A373393700D
:100B800000F00F00092803DC054B00F13001D9709B
:100B9000A0F10A02052A02D801493730C87070470F
:100BA000020200202DE9F041424A8AB010685168E3
:100BB00007AB03C3404C906861681860206801ADC2
:100BC00003C53E4F218938682980796804AB03C387
:100BD0003889BA7AA67A188003209A70AE7000F02D
:100BE00069FC802000F08EFC002000F08BFC804629
:100BF000032000F073FC042000F05CFC802000F077
:100C000081FC002000F07EFC0746042000F066FC1A
:100C1000052000F04FFCC02000F074FC002000F024
:100C200071FC274D06464FF48044052000F056FC29
:100C3000AC650DF11B0515F8014F1CB1204600F005
:100C40008DFCF8E74046FFF78DFF1E49085D013433
:100C500000F084FC042CF8D10DF1030515F8014FC8
:100C60001CB1204600F07AFCF8E73846FFF77AFF1F
:100C7000144B185D013400F071FC042CF8D10DF117
:100C80000F0515F8014F1CB1204600F067FCF8E78E
:100C90003046FFF767FF0B48005D013400F05EFC53
:100CA000042CF8D106494FF48042CA650AB0BDE869
:100CB000F08100BF901900009C190000A7190000E6
:100CC0000060004002020020F0B5564B4FF4804116
:100CD00095B0054699651446A2B9534A0FAB5168C1
:100CE000106803C352F8080F967991889E711860B6
:100CF00099800DF13B0616F8010F00284CD000F04A
:100D00002DFCF8E7012A17D1484B0FA803F1100773
:100D1000024659681868083303C2BB421046F7D12F
:100D20009E781988967011800DF13B0616F8010F18
:100D300090B300F013FCF9E7022A15D13C4B0FA940
:100D400003F110070A4618685968083303C2BB420A
:100D50001146F7D118880DF13B06108016F8010FE7
:100D6000D0B100F0FBFBF9E7032A15D1314B0FAAF4
:100D700003F1100718685968164603C60833BB42CA
:100D80003246F7D1187830700DF13B0616F8010F96
:100D900010B100F0E3FBF9E7B5F900006946FFF791
:100DA00034FCB5F9020005A9FFF72FFCB5F90400E2
:100DB0000AA9FFF72AFC0DF1FF3616F8010F10B152
:100DC00000F0CCFBF9E7202000F0C8FB0DF1130682
:100DD00016F8010F10B100F0C1FBF9E7202000F078
:100DE000BDFB0DF1270616F8010F10B100F0B6FBA0
:100DF000F9E7022C05D00B4B4FF48042DA6515B0B1
:100E0000F0BDB5F906000FA9FFF7FFFB202000F0A9
:100E1000A5FB0DF13B0414F8010F0028EBD000F006
:100E20009DFBF8E700600040B2190000C119000006
:100E3000D4190000E6190000034B00225A605968DB
:100E40008142FCD3704700BF001000E0034B1A69D9
:100E500022F00400186130BF704700BF00ED00E0D1
:100E60000B4B40F2014241F205004FF480611A60E1
:100E7000586040F61542596141F6F9700B21DA606D
:100E8000986459655A6D42F00B005865704700BF71
:100E900000C40040084B4FF4407240F605405A61D0
:100EA000D860196841F6F97041F0600240F20331F0
:100EB0001A6098645965704700C00040114B4FF0AC
:100EC00080429A6280204FF08842142198631A650C
:100ED00044F20200D96448F20101D86599654FF4E3
:100EE00082001A674FF40051C022DA67C3F89800F5
:100EF000C3F8A010D3F8202142F00400C3F8200169
:100F0000704700BF00600040054B40224FF4A071C5
:100F1000A0201A60D961C3F80024C3F81C047047EC
:100F200000000140034B40F20C7200201A60586030
:100F3000704700BF00800840164B174A1A60186AB5
:100F400040F0040119621846C26A124B1207FBD521
:100F50004FF4807140F2AE3099604C22D860B321DA
:100F600005201A6159610222986204217C205A628C
:100F7000196458649A65094B0948DA6842F080712F
:100F8000D960036841F6713143F0010202600548FF
:100F9000C163704700800C402C060C00F0ED00E0AF
:100FA000001000E000000C400A4B08220A48C3F879
:100FB00080211A60C16C41F004020849C26401201A
:100FC000C860074904221A60C8604FF48060186046
:100FD000704700BF00E100E000C000400000014099
:100FE0000004014010B500F09FFA00F097FA09499B
:100FF000094B0A88DC69094B10B21C54013290B2CB
:101000009B78088001B2994203D1BDE8104000F0FE
:101010008BBA10BDF203002000C000401402002073
:1010200008B500F089FA00F07FFA034B034900226B
:101030001E201A80887008BDF203002014020020D0
:1010400008B500F085FA024B1A68501D186008BDFB
:10105000EC03002030B5124B124AD46914F0080F8B
:101060000DD153B1013BF7E70823D3600C4B0D4A78
:10107000D06910F001010DD183B9FD210EE0002BE4
:10108000FBD000238B42EFDA50F82340054D0133AB
:10109000AC61F7E7002BF0D0013BE8E748B230BD88
:1010A0008096980000000C40094B01221861DA601C
:1010B000D96911F0060008D04A0705D411F0020FD3
:1010C0000CBF0020FE2000E0FF2040B2704700BFB0
:1010D00000000C40F7B5A64BA64A1968146891F8B1
:1010E00000E0A549A54D81F800E022782E684A70FD
:1010F000A34F36783B688E70A24C1D782468CD7063
:101100002788A14B00201F7024884FFA8EFC270AE5
:101110009E4C5F702468ADF804002768ADF80600A7
:101120009F7027683F0ADF70678884451F71E478E5
:10113000974F5C713C682778D8719F7101DC012062
:101140000870042E02D91020887001200C2A8A49C8
:101150000AD0082A08D0052A06D0032A04D0032280
:1011600095424A7002D805E0032D02D90026CE70C0
:1011700000E040B1874D288800F002FC28887E49B5
:10118000082200F0F5FB7C4CFFF7A8FAFFF71AF8ED
:101190006078FFF767F9A078FFF7ADF9E078FFF71F
:1011A00001F9A078FFF7E7F9FFF7FEFEFFF7ACFEC5
:1011B000FFF7B8FE00F0C6F9774B784900271E20EC
:1011C0001F808870744A754C1688A57837B2AF4274
:1011D00002D0FFF73BFEF5E72378AA2BECD160782D
:1011E000AA28E9D1644EE1783578A94240F00B8114
:1011F0002079112800F090801DD8042872D00CD8D6
:1012000001285FD04ED3022863D00328D4D164488C
:10121000FFF74CF86248022161E006286CD068D3E1
:10122000072876D01028C7D16079FFF7A4F9524F6C
:101230006579BD7085E0162800F0918018D81328D4
:1012400000F0868077D3142800F086801528B3D16B
:10125000544E4D4D01243088EC7100F091FB3088E4
:101260002946082200F084FB204600F0C5FAA3E7D7
:10127000222800F0B7800DD82028484C00F09C8030
:10128000212899D161794848FEF7ADFF46480321EE
:101290000022B5E0232800F0AD80FF288CD1FFF7B5
:1012A00081FC89E761794048FEF79DFF61793F48FD
:1012B000FEF7CAFF3A48FEF7F9FF3B483B49384A78
:1012C0000023C5E061793848FEF78DFF36480021DC
:1012D00005E061793548FEF7B7FF3448012100F099
:1012E00049F969E73248FFF76BF9314800F048FAED
:1012F00062E7FFF74DFB5FE72E4F2C483946FFF7BB
:1013000017FA2A48012100F035F93878FFF7AAF8D2
:1013100052E7FFF77BFB4FE760791E4FFFF7A2F81C
:1013200063793888737000F02BFB388831460822C7
:1013300000F01EFB40E76079FFF734F80E4F62794A
:10134000FA70144D288800F01BFB28883946EEE718
:101350006079FFF723F92FE7FFF7C8FB2CE7124866
:1013600012490F4A012300F071F9002763E000BF22
:10137000480200203C020020CE030020080200208A
:101380003802002040020020F40300203402002034
:101390001002002044020020F2030020140200206A
:1013A000DC0300200C020020D6030020E403002010
:1013B000F0030020CD03002061793648FEF713FFCB
:1013C00061793548FEF740FF3448FEF76FFF03218F
:1013D00000223048FFF778FC2F4803210122FFF755
:1013E00073FC0AE061792C48FEF72EFF2A4803219E
:1013F000012205E02948FEF759FF2848042102226E
:10140000FFF762FCD8E6E278802A7FF4D5AE277930
:10141000012F13D003D3022F7FF4CEAE12E06179F7
:101420001C48FEF7E0FE61791B48FEF70DFF1B48E4
:10143000FEF73CFFA7791A490F70BDE6194E00244C
:101440003460B9E6032D06D112481349134A01232B
:1014500000F0FCF8B0E61E20FFF7EEFC2823E37551
:101460003478114B611E114EF07D88420ED0104A27
:1014700000251E270C4B1580B7700D4C0B48268895
:10148000857832B2AA42EED0013BF6E7002BEED1CE
:10149000DAE700BFD6030020E4030020DC030020CD
:1014A000CC030020EC03002000E204001402002022
:1014B000F2030020032804D107494FF40040C86517
:1014C0007047042801D1402202E0052803D1802280
:1014D000014BC3F88020704700600040032804D10E
:1014E00007494FF4004088657047042801D1402225
:1014F00002E0052802D18022014BDA67704700BF65
:1015000000600040044B58631A699206FCD50248FB
:10151000C169C8B2704700BF00C40040014B01223E
:101520005A60704700000140024B022200205A60BE
:101530005862704700000140014B01229A617047D8
:1015400000000140014B01225A6070470004014035
:10155000014B01229A61704700040140044B1A6953
:101560005106FBD5586318698206FCD5704700BF49
:1015700000C0004030B5058887B0AA2345F3072294
:101580008DF808308DF809308DF80D204388828859
:1015900000248DF80C508DF80E3043F307250229F6
:1015A00042F30723ADF806408DF80B408DF80F503D
:1015B0008DF810208DF8113023491DD1C0884FF4CB
:1015C000804240F307258DF812008DF813508A658C
:1015D0000E218DF80A1002ABE55CBDF80600294625
:1015E00080B2FFF799F80134ADF806002846FFF7FE
:1015F000B5FF0C2CEFD115E04FF480400C25886529
:101600008DF80A5002ABE55CBDF80620294690B281
:10161000FFF782F80134ADF806002846FFF79EFF79
:101620000A2CEFD1BDF80620BDF80640D0B2A4B216
:10163000FFF794FF200AFFF791FF03484FF4804122
:10164000C16507B030BD00BF0060004070B5002428
:1016500088B02546ADF802408DF80750AA240588C9
:101660008DF804408DF8054018248DF806408DF85B
:10167000085045F30724458880888DF8094045F3D4
:1016800007248DF80A508DF80B4040F307250C888D
:101690008DF80D504D8889888DF80C0044F3072093
:1016A0008DF80E408DF80F0045F3072441F3072015
:1016B0008DF810508DF812101588518892888DF889
:1016C00011408DF8130045F307248DF8145041F3B1
:1016D000072042F30725012B8DF815408DF81610D1
:1016E0008DF817008DF818208DF8195019D1204B5E
:1016F0002048214D1C681D2102782B78200C8DF884
:1017000006108DF81C40210A240E8DF81A208DF841
:101710001B308DF81D108DF81E008DF81F401C2504
:1017200000E01625154B4FF480429A650024AC4228
:10173000BDF802100CDA01AEA65D88B23146FEF7A4
:10174000EBFFADF802003046FFF708FF0134EEE78B
:10175000BDF8020084B2C8B2FFF700FF200AFFF70D
:10176000FDFE064B4FF48042DA6508B070BD00BF45
:10177000EC030020CC030020CE03002000600040DA
:1017800030B5AA2385B005788DF808308DF809307A
:101790004078184B002408214FF48042ADF80640F1
:1017A0008DF80A108DF80B408DF80C508DF80D0057
:1017B0009A6502AD655DBDF80610013488B2294610
:1017C000FEF7AAFFADF806002846FFF7C7FE062C75
:1017D000EFD1BDF80600BDF80620C0B294B2FFF705
:1017E000BDFE200AFFF7BAFE024B4FF48041D965D7
:1017F00005B030BD0060004018B9034B9968CB07B5
:10180000FBD4024A1060704700800840000010437B
:10181000074880470749084A084B9B1A40F3058050
:10182000043BC858D0503FF7FBAF054800470000C5
:10183000891800000C1A000000000020B0030020EE
:1018400055010000FEE7FEE7FEE7FEE7FEE7FEE7E4
:10185000FEE7FEE7FEE7FEE7FEE7FEE7FEE7FEE760
:10186000FEE7FEE7FEE7FEE7FEE7FEE7FEE7FEE750
:10187000FEE7FEE7FEE7FEE7FEE7FEE7FEE7FEE740
:10188000FEE7FEE7FEE700BF7047000010B5034C1F
:1018900014B1AFF3008010BD204610BD0000000061
:1018A00008B5084B04461BB10021AFF3008001E0EE
:1018B00000F00CF804480068816A01B188472046AE
:1018C00000F048F800000000FC19000070B5084B5B
:1018D000084C0025E01A841003EB8406043D1CB17B
:1018E00072599047013CF9E7BDE8704000F03AB802
:1018F000AC030020B003002038B50E4D0E4B002481
:10190000E81A8510AC4205D00B4951F824209047C5
:101910000134F7E700F020F80849094A541AA510E5
:101920000024AC4205D0054B53F824008047013415
:10193000F7E738BDA8030020A8030020A803002073
:10194000AC03002082180346934202D003F8011B27
:10195000FAE77047FEE700BFF8B500BFF8BC08BC67
:101960009E467047F8B500BFF8BC08BC9E4670475D
:1019700001B40248844601BC604700BF2103002037
:1019800001B40248844601BC604700BFB102002098
:101990000A0D4779726F2D49440A0D000A0D416303
:1019A000632D49440A0D000A0D4D61672D49440A13
:1019B0000D000A0D4759524F4D45544552200A0D0E
:1019C000000A0D414343454C45524F4D4554455245
:1019D000200A0D000A0D4D41474E45544F4D4554C8
:1019E0004552200A0D000A0D54454D5045524154B0
:1019F000555245200A0D0043000000004C02002013
:041A000000000000E2
:081A040050E7FF7F0100000024
:101A0C000201000005800F800A001B801E001400DC
:101A1C001180338036003C00398028002D802780CF
:101A2C002200638066006C00698078007D8077807E
:101A3C007200500055805F805A004B804E0044006D
:101A4C004180C380C600CC00C980D800DD80D7801F
:101A5C00D200F000F580FF80FA00EB80EE00E4008D
:101A6C00E180A000A580AF80AA00BB80BE00B400BE
:101A7C00B180938096009C00998088008D8087802F
:101A8C008200838186018C01898198019D819781D7
:101A9C009201B001B581BF81BA01AB81AE01A40145
:101AAC00A181E001E581EF81EA01FB81FE01F401F6
:101ABC00F181D381D601DC01D981C801CD81C781E7
:101ACC00C201400145814F814A015B815E01540195
:101ADC005181738176017C01798168016D81678107
:101AEC006201238126012C01298138013D81378136
:101AFC003201100115811F811A010B810E010401A5
:101B0C000181038306030C03098318031D831783C8
:101B1C001203300335833F833A032B832E032403B4
:101B2C002183600365836F836A037B837E03740365
:101B3C007183538356035C03598348034D83478356
:101B4C004203C003C583CF83CA03DB83DE03D40304
:101B5C00D183F383F603FC03F983E803ED83E78376
:101B6C00E203A383A603AC03A983B803BD83B783A5
:101B7C00B203900395839F839A038B838E03840314
:101B8C008183800285828F828A029B829E029402CC
:101B9C009182B382B602BC02B982A802AD82A7823E
:101BAC00A202E382E602EC02E982F802FD82F782ED
:101BBC00F202D002D582DF82DA02CB82CE02C402DC
:101BCC00C182438246024C02498258025D8257828E
:101BDC005202700275827F827A026B826E026402FC
:101BEC006182200225822F822A023B823E0234022D
:101BFC003182138216021C02198208020D8207829E
:101C0C00020230782020000002780000003800002A
:101C1C00063800000000000000000000000000007A
:101C2C000000000000000000000000280000000080
:101C3C00000000000238000003780000017800006A
:101C4C000038000000780000007800000000000060
:101C5C000000000000000000000000000000000078
:101C6C00000000000000000000000000F719000058
:101C7C000000000000000000000000000000000058
:101C8C000000000000000000000000000000000048
:101C9C000000000000000000000000000000000038
:101CAC000000000000000000000000000000000028
:101CBC00194B9A6842F00101996018610120D860B3
:101CCC00DA69510705D59A68FF2022F00101996065
:101CDC001FE0D9698A0705D5996821F00100986041
:101CEC00FE2016E002200D4AD8600B4BD96911F08A
:101CFC000100194602D012B1013AF6E72AB98B68F5
:101D0C0023F001008860FD2003E09A6822F00101B5
:101D1C00996040B2704700BF00000C40809698005C
:101D2C00174B2DE9F04180469868971040F001045C
:101D3C009C600E460024BC4219DA08EB8405284648
:101D4C0000F022F8A0B9ED05E90DC1F500723B1BBE
:101D5C0095089D42A8BF1D466419002DEBD0304656
:101D6C00012100F019F818B90436013DF5E70020FF
:101D7C00034940B28A6822F001038B60BDE8F08110
:101D8C0000000C400000000001B40248844601BC75
:101D9C00604700BFA910000001B40248844601BC92
:101DAC00604700BF55100000250100000101000034
:0400000300001811D0
:00000001FF
