:100000000010002091180000C7180000C918000057
:10001000CB180000CD180000CF180000C518000054
:10002000C5180000C5180000C5180000D118000050
:10003000D3180000C5180000D5180000D71800001C
:10004000D9180000DB18000051100000111000004A
:10005000E1180000E3180000E5180000E7180000B0
:10006000E9180000EB180000ED180000EF18000080
:10007000F1180000F3180000F5180000F718000050
:10008000F918000071100000FD180000FF180000B2
:10009000011900000319000005190000000000000C
:1000A0000000000000000000000000000000000050
:1000B0000000000000000000000000000000000040
:1000C0000000000000000000000000000000000030
:1000D0000000000000000000000000000000000020
:1000E0000000000000000000000000000000000010
:1000F0000000000000000000000000000000000000
:1001000010B5054C237833B9044810B10448AFF357
:1001100000800121217010BD90030020000000002C
:10012000801A000008B5064B1BB106480649AFF31C
:1001300000800648016811B1054A02B1904708BD28
:1001400000000000801A00009403002090030020AB
:1001500000000000154B002B08BF134B9D46A3F574
:10016000803A00218B460F461348144A121A01F0B8
:1001700029FC0F4B002B00D098470E4B002B00D0D2
:1001800098470020002104460D4600200C4900221B
:10019000002301F0BBFB01F0EFFB2046294600F0F5
:1001A000B3FF01F0BDFB00BF0000080000100020FD
:1001B000000000000000000090030020FA0500206D
:1001C0004D19000008B500F0CDFE00F089FE00F0EA
:1001D00059FE00F071FE00F0BBFE4BF68030BDE82A
:1001E000084000F03BBE70B5B0B005466C4618AE96
:1001F000032001F057F9822001F07CF9FF2001F083
:1002000079F92070FF2001F075F96070FF2001F08E
:1002100071F9A070FF2001F06DF9E070FF2001F08E
:1002200069F92071FF2001F065F96071032006343F
:1002300001F04CF9B442DBD168462946602206231E
:1002400000F018FA30B070BD70B5B0B005466C461D
:1002500018AE042001F026F9822001F04BF9FF20AE
:1002600001F048F92070FF2001F044F96070FF2090
:1002700001F040F9A070FF2001F03CF9E070FF2090
:1002800001F038F92071FF2001F034F96071042089
:10029000063401F01BF9B442DBD1684629466022DE
:1002A000062300F0E7F930B070BD00002DE9F74FEC
:1002B0000446052001F0F6F84C2001F01BF92E2031
:1002C00001F018F9052001F001F9052001F0EAF824
:1002D0004C2001F00FF92A2001F00CF9052001F063
:1002E000F5F82C4B1978012908BF4FF4A07007D0FE
:1002F000042901D1284803E007290CBF27482848D2
:1003000000F0ACFD052001F0CDF8C22001F0F2F8BC
:10031000FF2001F0EFF88346FF2001F0EBF80246E2
:10032000FF20019201F0E6F88146FF2001F0E2F89B
:100330008246FF2001F0DEF80746FF2001F0DAF8E0
:100340008046FF2001F0D6F80546FF2001F0D2F8E4
:100350000646052001F0BAF80198CBF3C70B43B26B
:100360004FFA8AFAC9F3C7024FFA88F8C7F347076A
:1003700076B2C5F387054BEA431142EA4A1947EAC8
:10038000C81745EA86152180A4F80290A780E58069
:10039000BDE8FE8F0100002000E2040000C4090057
:1003A000006A180008B52D4A2D4B18B901211170AB
:1003B00002200EE0012803D1042010700E2008E076
:1003C000022803D1072111701A2002E02E2111709A
:1003D00052201870052001F065F84B2001F08AF8D2
:1003E000012001F087F8052001F070F8052001F0E8
:1003F00059F84C2001F07EF8282001F07BF8052008
:1004000001F064F8052001F04DF84E2001F072F87B
:10041000072001F06FF8052001F058F8052001F0E1
:1004200041F8512001F066F80C4A107801F062F8AA
:10043000052001F04BF8052001F034F8522001F0BE
:1004400059F8074B187801F055F8052001F03EF8EF
:100450004FF47A50BDE8084000F000BD01000020D4
:1004600000000020052818BF032810B5044604D05A
:1004700000F0FB03082B18BF0324042001F012F83E
:10048000142001F037F8B62001F034F8042001F010
:100490001DF8042001F006F80F2001F02BF820468B
:1004A00001F028F8042001F011F8042000F0FAFF10
:1004B000102001F01FF80F2001F01CF8042001F0BB
:1004C00005F8042000F0EEFF112001F013F80020E1
:1004D00001F010F8042000F0F9FF042000F0E2FF22
:1004E000132001F007F8802001F004F80420BDE893
:1004F000104000F0EBBF10B5042894BF0446002460
:10050000032000F0CFFF142000F0F4FFB62000F02D
:10051000F1FF032000F0DAFF032000F0C3FF0F20FB
:1005200000F0E8FF204600F0E5FF032000F0CEFFDA
:10053000102000F0DFFF022000F0DCFF032000F0BD
:10054000C5FF032000F0AEFF112000F0D3FF002014
:1005500000F0D0FF032000F0B9FF032000F0A2FF5D
:10056000132000F0C7FF002000F0C4FF0320BDE807
:10057000104000F0ABBF10B5042894BF044600241F
:10058000032000F08FFF0F2000F0B4FF204600F0A2
:10059000B1FF0320BDE8104000F098BF38B50C4C07
:1005A0000C4B207018680C4A0178156861700B4874
:1005B0002B780168A3700A4D0A782868E27001F070
:1005C0001FFA286821460822BDE8384001F010BA19
:1005D000AE0300201C0200200802002018020020A8
:1005E0002402002010B50446032000F05BFF8F209A
:1005F00000F080FFFF2000F07DFF2070032000F05E
:1006000065FF042000F04EFF8F2000F073FFFF20F5
:1006100000F070FF6070042000F058FF23786178CC
:1006200003F0070001F00F022070627010BD002877
:1006300070B503DA2D2301F8013B404200230A2460
:10064000B0FBF4F204FB12003030C8540133104602
:10065000002AF4D15C10CB181A46A04207DA0D5CD0
:1006600012F8016C0E5402F8015D0130F5E700212B
:10067000197070BD2DE9F0470024A0462646274694
:10068000A446904504EB030928DA051995F901A061
:1006900098444FEA0A1A1FFA8AFAA1F800A0045DEA
:1006A0004AEA14140C8024B2A44495F903402401AE
:1006B000A4B24C8095F802A044EA1A144C8024B2EB
:1006C0003F1995F905402401A4B28C802D7944EAA4
:1006D00015148C8024B236194C46D2E792FBF3F203
:1006E0000FFA8CFC3FB236B29CFBF2F097FBF2F7AC
:1006F00096FBF2F308804F808B80BDE8F087000006
:1007000000231A0292B2082012F4004F18BF0949C0
:100710004FEA42021ABF51408AB292B2411E11F012
:10072000FF00F1D1044921F813200133B3F5807F94
:10073000E7D170470580FFFFFA030020044B81EAF0
:10074000102133F8112082EA002080B2704700BFE8
:100750000200002030B5002389B005460420009334
:10076000ADF804300293ADF80C30ADF81030ADF8B0
:100770001230ADF81430ADF81830ADF81A30ADF8CD
:100780001C300C4600F08EFE8F2000F0B3FEFF20E0
:1007900000F0B0FE2070042000F098FE207800F0F9
:1007A0000F012170042000F07DFE0F2000F0A2FE5A
:1007B000082000F09FFE042000F088FE042000F0D6
:1007C00071FE32207A4C00F095FE152000F092FE6A
:1007D000042000F07BFE204600F040FB042000F0E7
:1007E00061FE822000F086FEFF2000F083FE8DF87F
:1007F0000000FF2000F07EFE8DF80100042000F0D4
:1008000065FE042000F04EFE322000F073FE16203C
:1008100000F070FE042000F059FE204600F01EFBA0
:10082000042000F03FFE842000F064FEFF2000F072
:1008300061FE8DF80200FF2000F05CFE8DF80300E1
:10084000042000F043FE042000F02CFE322000F0D3
:1008500051FE172000F04EFE042000F037FE204627
:1008600000F0FCFA042000F01DFE862000F042FE9D
:10087000FF2000F03FFE8DF80400FF2000F03AFE5C
:100880008DF80500042000F021FE042000F00AFE8F
:10089000322000F02FFE112000F02CFE042000F08A
:1008A00015FE204600F0DAFA042000F0FBFD82205D
:1008B00000F020FEFF2000F01DFE8DF80800FF2054
:1008C00000F018FE8DF80900042000F0FFFD042060
:1008D00000F0E8FD322000F00DFE122000F00AFECC
:1008E000042000F0F3FD204600F0B8FA042000F0E8
:1008F000D9FD842000F0FEFDFF2000F0FBFD8DF807
:100900000A00FF2000F0F6FD8DF80B00042000F037
:10091000DDFD042000F0C6FD322000F0EBFD1320C9
:1009200000F0E8FD042000F0D1FD204600F096FA2A
:10093000042000F0B7FD862000F0DCFDFF2000F071
:10094000D9FD8DF80C00FF2000F0D4FD8DF80D00CE
:10095000042000F0BBFD042000F0A4FD142000F0F2
:10096000C9FDB62000F0C6FD042000F0AFFD6846CA
:1009700004A906220123FFF77DFE02A806A906228C
:100980000123FFF777FEBDF81830BDF81020BDF841
:100990001A10D01ABDF8123028805A1ABDF81C005F
:1009A000BDF814106A800B1AAB8009B030BD00BFCF
:1009B00000D4300030B5072085B0AA2300248DF87C
:1009C0000B0003208DF808308DF80930ADF8064093
:1009D0008DF80A4000F066FDBC2000F08BFDFF2082
:1009E00000F088FD0546032000F070FDC5F30011FE
:1009F0008DF80C1002ABE55CBDF80620294690B2DC
:100A0000FFF79CFE0134ADF80600284600F092FD89
:100A1000052CEFD1BDF80600BDF80610C0B28CB2AF
:100A200000F088FD200A00F085FD05B030BD000013
:100A3000F0B5092085B0AA2300248DF80700052011
:100A40008DF804308DF80530ADF802408DF8064081
:100A500000F028FD4B2000F04DFD012000F04AFD84
:100A6000052000F033FD052000F01CFD4C2000F0B7
:100A700041FD2F2000F03EFD052000F027FD23481A
:100A800000F0ECF9052000F00DFDC22000F032FD71
:100A9000FF2000F02FFD0746FF2000F02BFDFF2078
:100AA00000F028FD0646FF2000F024FDFF2000F0A6
:100AB00021FD0546052000F009FD07F0010706F0BD
:100AC000010605F001018DF808708DF809608DF8B8
:100AD0000A1001ABE55CBDF80220294690B2FFF791
:100AE0002DFE0134ADF80200284600F023FD072C4E
:100AF000EFD1BDF80200BDF80210C0B28CB200F018
:100B000019FD200A00F016FD05B0F0BD00D430003C
:100B100030B51B4985B0AA238DF808308DF809300F
:100B20000D78184B002407204FF48042ADF80640A2
:100B30008DF80A008DF80B408DF80C509A6502A9CB
:100B4000655CBDF80600294680B2FFF7F7FD013469
:100B5000ADF80600284600F0EDFC052CEFD1BDF8FD
:100B60000620BDF80630D0B29CB200F0E3FC200AAB
:100B700000F0E0FC03494FF48040C86505B030BD8B
:100B8000AE030020006000400309092B03DC0D4A7E
:100B900003F130019170A3F10A01052902D8094A35
:100BA0003733937000F00F00092803DC054B00F188
:100BB0003001D970A0F10A02052A02D80149373064
:100BC000C8707047020200202DE9F041424A8AB005
:100BD0001068516807AB03C3404C906861681860A7
:100BE000206801AD03C53E4F2189386829807968A6
:100BF00004AB03C33889BA7AA67A188003209A70A6
:100C0000AE7000F04FFC802000F074FC002000F07B
:100C100071FC8046032000F059FC042000F042FCE7
:100C2000802000F067FC002000F064FC07460420F0
:100C300000F04CFC052000F035FCC02000F05AFC10
:100C4000002000F057FC274D06464FF48044052055
:100C500000F03CFCAC650DF11B0515F8014F1CB113
:100C6000204600F067FCF8E74046FFF78DFF1E497D
:100C7000085D013400F05EFC042CF8D10DF1030591
:100C800015F8014F1CB1204600F054FCF8E7384637
:100C9000FFF77AFF144B185D013400F04BFC042C75
:100CA000F8D10DF10F0515F8014F1CB1204600F0E9
:100CB00041FCF8E73046FFF767FF0B48005D013461
:100CC00000F038FC042CF8D106494FF48042CA6584
:100CD0000AB0BDE8F08100BF101A00001C1A000025
:100CE000271A00000060004002020020F0B5564BB9
:100CF0004FF4804195B0054699651446A2B9534A10
:100D00000FAB5168106803C352F8080F96799188A9
:100D10009E71186099800DF13B0616F8010F0028AE
:100D20004CD000F007FCF8E7012A17D1484B0FA878
:100D300003F11007024659681868083303C2BB4222
:100D40001046F7D19E781988967011800DF13B06F8
:100D500016F8010F90B300F0EDFBF9E7022A15D168
:100D60003C4B0FA903F110070A461868596808336D
:100D700003C2BB421146F7D118880DF13B06108023
:100D800016F8010FD0B100F0D5FBF9E7032A15D111
:100D9000314B0FAA03F1100718685968164603C6AD
:100DA0000833BB423246F7D1187830700DF13B065C
:100DB00016F8010F10B100F0BDFBF9E7B5F900001E
:100DC0006946FFF734FCB5F9020005A9FFF72FFCCF
:100DD000B5F904000AA9FFF72AFC0DF1FF3616F851
:100DE000010F10B100F0A6FBF9E7202000F0A2FBF4
:100DF0000DF1130616F8010F10B100F09BFBF9E797
:100E0000202000F097FB0DF1270616F8010F10B116
:100E100000F090FBF9E7022C05D00B4B4FF4804219
:100E2000DA6515B0F0BDB5F906000FA9FFF7FFFBB5
:100E3000202000F07FFB0DF13B0414F8010F002887
:100E4000EBD000F077FBF8E700600040321A0000BA
:100E5000411A0000541A0000661A0000034B0022D9
:100E60005A6059688142FCD3704700BF001000E00F
:100E7000034B1A6922F00400186130BF704700BFAD
:100E800000ED00E00B4B40F2014241F205004FF44F
:100E900080611A60586040F61542596141F6F97058
:100EA0000B21DA60986459655A6D42F00B00586561
:100EB000704700BF00C40040084B4FF4407240F63A
:100EC00005405A61D860196841F6F97041F0600236
:100ED00040F203311A6098645965704700C00040C1
:100EE000114B4FF080429A6280204FF088421421CB
:100EF00098631A6544F20200D96448F20101D8658A
:100F000099654FF482001A674FF40051C022DA67E6
:100F1000C3F89800C3F8A010D3F8202142F00400D1
:100F2000C3F82001704700BF00600040034B40221F
:100F30004FF4C8501A60D861704700BF00000140EC
:100F4000024B05221F201A6098607047000008407D
:100F5000034B40F20C7200201A605860704700BFCB
:100F600000800840164B174A1A60186A40F00401C6
:100F700019621846C26A124B1207FBD54FF48071F2
:100F800040F2AE3099604C22D860B32105201A613E
:100F900059610222986204215C205A6219645864E3
:100FA0009A65094B0948DA6842F08071D960036894
:100FB00041F6713143F0010202600548C163704798
:100FC00000800C402C060C00F0ED00E0001000E06A
:100FD00000000C400B4B08220B48C3F880211A601C
:100FE000C16C41F00402C264012100F58040C1607F
:100FF000042206481A6002214FF40032C1611A60CF
:10100000704700BF00E100E000C000400000084061
:1010100010B50C4CB4F900300BB900F077FA0A485F
:101020002288C069094B11B25854013290B29B78A2
:1010300001B29942208003D1BDE8104000F06CBAA3
:1010400010BD00BFEA03002000C00040C403002020
:1010500008B500F069FA00F05FFA034B034900227B
:101060000A201A80887008BDEA030020C40300200B
:10107000034B022203489A6101684A1C02607047D0
:1010800000000840E403002030B5124B124AD46936
:1010900014F0080F0DD153B1013BF7E70823D360DB
:1010A0000C4B0D4AD06910F001010DD183B9FD211F
:1010B0000EE0002BFBD000238B42EFDA50F82340E8
:1010C000054D0133AC61F7E7002BF0D0013BE8E7B9
:1010D00048B230BD8096980000000C40094B0122B8
:1010E0001861DA60D96911F0060008D04A0705D402
:1010F00011F0020F0CBF0020FE2000E0FF2040B2E4
:10110000704700BF00000C40F7B5AB48AB4C01681E
:10111000AB4A0E7825681670AA4F297800239E46A0
:10112000ADF80430ADF806303B685170A6481D7824
:1011300004689570A54F24783868D4700788A44B4C
:1011400076B21F700088070AA2485F7000680768BF
:101150009F7007683F0ADF704788002E1F71C078B4
:101160009D4F58713868077883F807E09F7101DC5C
:1011700001231370042D01D910259570052918BF7E
:10118000032906D001F0FB02082A02D08C48032173
:101190004170032C8A4C01D90027E7708F4E3068CC
:1011A00000F02EFC86490822306800F021FCFFF791
:1011B000A7FAFFF707F86078FFF754F9A078FFF770
:1011C0009AF9E078FFF7EEF8A078FFF7D4F9FFF787
:1011D00001FFFFF7ABFEFFF7BBFEFFF7B1FE804B51
:1011E000804900250A221D808A707D487D4C078831
:1011F000A6783DB2B54202D0FFF73AFEF5E7237874
:10120000AA2BECD16278AA2AE9D16D4DE178287831
:10121000884240F027812379112B00F0998024D84F
:10122000042B7BD00CD8012B68D056D3022B6CD06A
:10123000032BD4D16C48FFF739F86B4802216AE0E0
:10124000062B75D071D3072B7FD0102BC7D16079B7
:10125000FFF791F9584A594F1168594D08783E687F
:10126000287033786B7063797EE0162B00F0C880AD
:1012700019D8132B00F09980C0F08580142B00F052
:101280009880152BABD1594E514D01273068EF7125
:1012900000F0B6FB30682946082200F0A9FB38466A
:1012A00000F0EAFA9BE7222B00F0CB800DD8202B30
:1012B0004C4D00F0B080212B91D169794C48FEF75C
:1012C00092FF4B4803210022C9E0232B00F0C1808C
:1012D000FF2B84D1FFF778FC81E761794448FEF762
:1012E00082FF61794348FEF7AFFF3F48FEF7DEFF1C
:1012F0003F4840493C4A00F095F970E761793C4825
:10130000FEF771FF3A48002105E061793948FEF7A0
:101310009BFF3848012100F019F960E73648FFF7D4
:1013200061F9354800F06CFA59E7FFF743FB56E7DF
:10133000324C30482146FFF70DFA2E48012100F0CB
:1013400005F92078FFF78EF849E7FFF771FB46E7CC
:10135000194E6079FFF786F832686079194C117878
:101360002768297068703B78174EAB703268147824
:10137000EC701A4C206800F043FB206829460822D4
:1013800000F036FB2BE76079FFF70CF80A4A0B4BAD
:1013900011680B4D08781F6828700A4A3E7811685A
:1013A0006E7008786479A870E2E76079FFF7F6F864
:1013B00015E7FFF7ADFB12E7280200201C02002012
:1013C000AE030020080200201802002020020020A6
:1013D000EC03002014020020100200202402002050
:1013E000EA030020C4030020BC0300200C020020FC
:1013F000B6030020F4030020E8030020AD03002022
:10140000244F254897F900302449254A00F080F9F7
:1014100000233B70E3E669791F48FEF7E4FE697933
:101420001E48FEF711FF1E48FEF740FF0321002271
:101430001948FFF75BFC194803210122FFF756FC0E
:101440000AE061791548FEF7FFFE144803210122E6
:1014500005E01348FEF72AFF114804210222FFF796
:1014600045FCBCE6E778802F7FF4B9AE2679002EE4
:101470007FF4B5AE61790848FEF7B5FE617907489B
:10148000FEF7E2FE0648FEF711FF024DA4792C702C
:10149000A5E600BFAC030020B6030020F403002043
:1014A000BC030020032804D107494FF40040C8655D
:1014B0007047042801D1402202E0052803D1802290
:1014C000014BC3F88020704700600040032804D11E
:1014D00007494FF4004088657047042801D1402235
:1014E00002E0052802D18022014BDA67704700BF75
:1014F00000600040044B58631A699206FCD502480C
:10150000C169C8B2704700BF00C40040014B01224E
:101510005A60704700000140024B022200205A60CE
:101520005862704700000140014B01229A617047E8
:1015300000000140044B1A695106FBD55863186935
:101540008206FCD5704700BF00C0004030B505885A
:1015500087B0AA2345F307228DF808308DF80930AB
:101560008DF80D204388828800248DF80C508DF86A
:101570000E3043F30725022942F30723ADF8064056
:101580008DF80B408DF80F508DF810208DF811302C
:1015900023491DD1C0884FF4804240F307258DF8C0
:1015A00012008DF813508A650E218DF80A1002ABD7
:1015B000E55CBDF80600294680B2FFF7BFF80134AC
:1015C000ADF806002846FFF7B5FF0C2CEFD115E06B
:1015D0004FF480400C2588658DF80A5002ABE55C1D
:1015E000BDF80620294690B2FFF7A8F80134ADF8FF
:1015F00006002846FFF79EFF0A2CEFD1BDF8062013
:10160000BDF80640D0B2A4B2FFF794FF200AFFF75E
:1016100091FF03484FF48041C16507B030BD00BF62
:101620000060004030B5AA2389B005888DF80830E5
:101630008DF8093018238DF80A308DF80C5045F3D9
:101640000723458880888DF80D308DF80E5045F3BE
:10165000072340F307258DF80F308DF811500B88C4
:101660004D888DF81000898843F307208DF81230DB
:101670008DF8145045F3072315888DF813008DF865
:10168000153041F3072045F307238DF816105188D4
:1016900092888DF819301D4B00248DF817008DF8B5
:1016A00018508DF81A1041F3072042F307254FF424
:1016B0008041ADF806408DF80B408DF81B008DF889
:1016C0001C208DF81D50996502AAA55CBDF8060086
:1016D000294680B2FFF732F80134ADF806002846FB
:1016E000FFF728FF162CEFD1BDF80610BDF8063025
:1016F000C8B29CB2FFF71EFF200AFFF71BFF034A88
:101700004FF48040D06509B030BD00BF006000409C
:1017100070B5AA2588B08DF808508DF809501925A4
:101720008DF80A50058800248DF80C5045F30725E4
:101730008DF80D50458880888DF80E5045F30725AB
:101740008DF80F508DF8100040F3072508888DF8AC
:1017500011508DF8120040F30725488889888DF8CC
:10176000135040F307258DF814008DF8155041F300
:10177000072015888DF81700508892888DF816106C
:1017800045F307218DF818508DF8191040F30725FF
:1017900042F307218DF81A00ADF806408DF80B4092
:1017A0008DF81B508DF81C208DF81D108DF81E3003
:1017B000124B4FF480402646986502AD655DBDF83A
:1017C0000620294690B2FEF7B9FF0134ADF80600B5
:1017D0002846FFF7AFFE172CEFD1BDF80610BDF875
:1017E000060084B2C8B2FFF7A5FE200AFFF7A2FEEA
:1017F000024B4FF48042DA6508B070BD00600040D3
:1018000030B5AA2385B005788DF808308DF80930F9
:101810004078184B002408214FF48042ADF8064070
:101820008DF80A108DF80B408DF80C508DF80D00D6
:101830009A6502AD655DBDF80610013488B229468F
:10184000FEF77CFFADF806002846FFF773FE062C76
:10185000EFD1BDF80600BDF80620C0B294B2FFF784
:1018600069FE200AFFF766FE024B4FF48041D965FE
:1018700005B030BD0060004018B9034B9968CB0734
:10188000FBD4024A106070470080084000001043FB
:10189000074880470749084A084B9B1A40F30580D0
:1018A000043BC858D0503FF7FBAF05480047000045
:1018B000091900008C1A000000000020900300208D
:1018C00055010000FEE7FEE7FEE7FEE7FEE7FEE764
:1018D000FEE7FEE7FEE7FEE7FEE7FEE7FEE7FEE7E0
:1018E000FEE7FEE7FEE7FEE7FEE7FEE7FEE7FEE7D0
:1018F000FEE7FEE7FEE7FEE7FEE7FEE7FEE7FEE7C0
:10190000FEE7FEE7FEE700BF7047000010B5034C9E
:1019100014B1AFF3008010BD204610BD00000000E0
:1019200008B5084B04461BB10021AFF3008001E06D
:1019300000F00CF804480068816A01B1884720462D
:1019400000F048F8000000007C1A000070B5084B59
:10195000084C0025E01A841003EB8406043D1CB1FA
:1019600072599047013CF9E7BDE8704000F03AB881
:101970008C0300209003002038B50E4D0E4B002440
:10198000E81A8510AC4205D00B4951F82420904745
:101990000134F7E700F020F80849094A541AA51065
:1019A0000024AC4205D0054B53F824008047013495
:1019B000F7E738BD88030020880300208803002053
:1019C0008C03002082180346934202D003F8011BC7
:1019D000FAE77047FEE700BFF8B500BFF8BC08BCE7
:1019E0009E467047F8B500BFF8BC08BC9E467047DD
:1019F00001B40248844601BC604700BF01030020D7
:101A000001B40248844601BC604700BF9102002037
:101A10000A0D4779726F2D49440A0D000A0D416382
:101A2000632D49440A0D000A0D4D61672D49440A92
:101A30000D000A0D4759524F4D45544552200A0D8D
:101A4000000A0D414343454C45524F4D45544552C4
:101A5000200A0D000A0D4D41474E45544F4D455447
:101A60004552200A0D000A0D54454D50455241542F
:101A7000555245200A0D0043000000002C020020B2
:041A80000000000062
:081A8400D0E6FF7F0100000025
:101A8C000201000005800F800A001B801E0014005C
:101A9C001180338036003C00398028002D8027804F
:101AAC002200638066006C00698078007D807780FE
:101ABC007200500055805F805A004B804E004400ED
:101ACC004180C380C600CC00C980D800DD80D7809F
:101ADC00D200F000F580FF80FA00EB80EE00E4000D
:101AEC00E180A000A580AF80AA00BB80BE00B4003E
:101AFC00B180938096009C00998088008D808780AF
:101B0C008200838186018C01898198019D81978156
:101B1C009201B001B581BF81BA01AB81AE01A401C4
:101B2C00A181E001E581EF81EA01FB81FE01F40175
:101B3C00F181D381D601DC01D981C801CD81C78166
:101B4C00C201400145814F814A015B815E01540114
:101B5C005181738176017C01798168016D81678186
:101B6C006201238126012C01298138013D813781B5
:101B7C003201100115811F811A010B810E01040124
:101B8C000181038306030C03098318031D83178348
:101B9C001203300335833F833A032B832E03240334
:101BAC002183600365836F836A037B837E037403E5
:101BBC007183538356035C03598348034D834783D6
:101BCC004203C003C583CF83CA03DB83DE03D40384
:101BDC00D183F383F603FC03F983E803ED83E783F6
:101BEC00E203A383A603AC03A983B803BD83B78325
:101BFC00B203900395839F839A038B838E03840394
:101C0C008183800285828F828A029B829E0294024B
:101C1C009182B382B602BC02B982A802AD82A782BD
:101C2C00A202E382E602EC02E982F802FD82F7826C
:101C3C00F202D002D582DF82DA02CB82CE02C4025B
:101C4C00C182438246024C02498258025D8257820D
:101C5C005202700275827F827A026B826E0264027B
:101C6C006182200225822F822A023B823E023402AC
:101C7C003182138216021C02198208020D8207821D
:101C8C0002023078202000000278000000380000AA
:101C9C0006380000023800000378000001780000CC
:101CAC000038000000780000007800000000000000
:101CBC000000000000000000000000000000000018
:101CCC00000000000000000000000000771A000077
:101CDC0000000000000000000000000000000000F8
:101CEC0000000000000000000000000000000000E8
:101CFC0000000000000000000000000000000000D8
:101D0C0000000000000000000000000000000000C7
:101D1C00194B9A6842F00101996018610120D86052
:101D2C00DA69510705D59A68FF2022F00101996004
:101D3C001FE0D9698A0705D5996821F001009860E0
:101D4C00FE2016E002200D4AD8600B4BD96911F029
:101D5C000100194602D012B1013AF6E72AB98B6894
:101D6C0023F001008860FD2003E09A6822F0010155
:101D7C00996040B2704700BF00000C4080969800FC
:101D8C00174B2DE9F04180469868971040F00104FC
:101D9C009C600E460024BC4219DA08EB84052846E8
:101DAC0000F02AF8A0B9ED05E90DC1F500723B1B56
:101DBC0095089D42A8BF1D466419002DEBD03046F6
:101DCC00012100F011F818B90436013DF5E70020A7
:101DDC00034940B28A6822F001038B60BDE8F081B0
:101DEC0000000C400000000001B40248844601BC15
:101DFC00604700BF8910000001B40248844601BC52
:101E0C00604700BFDD10000025010000010100004B
:040000030000189150
:00000001FF
