:1040000000100020F95700002F5800003158000020
:104010003358000035580000375800002D58000074
:104020002D5800002D5800002D5800003958000070
:104030003B5800002D5800003D5800003F5800003C
:1040400041580000435800001D500000DD4F0000A3
:10405000495800004B5800004D5800004F580000D0
:1040600051580000535800005558000057580000A0
:10407000595800005B5800005D5800005F58000070
:104080006158000063580000655800006758000040
:10409000695800006B5800006D58000000000000D7
:1040A0000000000000000000000000000000000010
:1040B0000000000000000000000000000000000000
:1040C00000000000000000000000000000000000F0
:1040D00000000000000000000000000000000000E0
:1040E00000000000000000000000000000000000D0
:1040F00000000000000000000000000000000000C0
:1041000010B5054C237833B9044810B10448AFF317
:1041100000800121217010BD9402002000000000E9
:10412000C859000008B5064B1BB106480649AFF355
:1041300000800648016811B1054A02B1904708BDE8
:1041400000000000C85900009802002094020020DE
:1041500000000000154B002B08BF134B9D46A3F534
:10416000803A00218B460F461348144A121A01F078
:10417000DDFB0F4B002B00D098470E4B002B00D0DF
:1041800098470020002104460D4600200C490022DB
:10419000002301F06FFB01F0A3FB2046294600F04D
:1041A000F7FF01F071FB00BF0000080000100020C5
:1041B000000000000000000094020020F80400202D
:1041C000B558000008B500F0C7FE00F085FE00F00D
:1041D00059FE00F071FE00F0B5FE4BF68030BDE8F0
:1041E000084000F03BBE70B5B0B005466C4618AE56
:1041F000032001F083F9822001F0A8F9FF2001F0EB
:10420000A5F92070FF2001F0A1F96070FF2001F0F6
:104210009DF9A070FF2001F099F9E070FF2001F0F6
:1042200095F92071FF2001F091F9607103200634A7
:1042300001F078F9B442DBD16846294660220623B2
:1042400000F018FA30B070BD70B5B0B005466C46DD
:1042500018AE042001F052F9822001F077F9FF2016
:1042600001F074F92070FF2001F070F96070FF20F8
:1042700001F06CF9A070FF2001F068F9E070FF20F8
:1042800001F064F92071FF2001F060F960710420F1
:10429000063401F047F9B442DBD168462946602272
:1042A000062300F0E7F930B070BD00002DE9F74FAC
:1042B0000446052001F022F94C2001F047F92E2098
:1042C00001F044F9052001F02DF9052001F016F95F
:1042D0004C2001F03BF92A2001F038F9052001F0CB
:1042E00021F92C4B1978012908BF4FF4A07007D091
:1042F000042901D1284803E007290CBF2748284892
:1043000000F0ACFD052001F0F9F8C22001F01EF923
:10431000FF2001F01BF98346FF2001F017F9024648
:10432000FF20019201F012F98146FF2001F00EF901
:104330008246FF2001F00AF90746FF2001F006F946
:104340008046FF2001F002F90546FF2001F0FEF84B
:104350000646052001F0E6F80198CBF3C70B43B2FF
:104360004FFA8AFAC9F3C7024FFA88F8C7F347072A
:1043700076B2C5F387054BEA431142EA4A1947EA88
:10438000C81745EA86152180A4F80290A780E58029
:10439000BDE8FE8F0100002000E2040000C4090017
:1043A000006A180008B52D4A2D4B18B9012111706B
:1043B00002200EE0012803D1042010700E2008E036
:1043C000022803D1072111701A2002E02E2111705A
:1043D00052201870052001F091F84B2001F0B6F83A
:1043E000012001F0B3F8052001F09CF8052001F050
:1043F00085F84C2001F0AAF8282001F0A7F8052044
:1044000001F090F8052001F079F84E2001F09EF8B7
:10441000072001F09BF8052001F084F8052001F049
:104420006DF8512001F092F80C4A107801F08EF8E6
:10443000052001F077F8052001F060F8522001F026
:1044400085F8074B187801F081F8052001F06AF82B
:104450004FF47A50BDE8084000F000BD0100002094
:1044600000000020052818BF032810B5044604D01A
:1044700000F0FB03082B18BF0324042001F03EF8D2
:10448000142001F063F8B62001F060F8042001F078
:1044900049F8042001F032F80F2001F057F82046C7
:1044A00001F054F8042001F03DF8042001F026F852
:1044B000102001F04BF80F2001F048F8042001F023
:1044C00031F8042001F01AF8112001F03FF8002023
:1044D00001F03CF8042001F025F8042001F00EF86A
:1044E000132001F033F8802001F030F80420BDE8FB
:1044F000104001F017B810B5042894BF04460024FA
:10450000032000F0FBFF142001F020F8B62001F09A
:104510001DF8032001F006F8032000F0EFFF0F2044
:1045200001F014F8204601F011F8032000F0FAFF22
:10453000102001F00BF8022001F008F8032000F031
:10454000F1FF032000F0DAFF112000F0FFFF002050
:1045500000F0FCFF032000F0E5FF032000F0CEFF99
:10456000132000F0F3FF002000F0F0FF0320BDE86F
:10457000104000F0D7BF10B5042894BF04460024B3
:10458000032000F0BBFF0F2000F0E0FF204600F00A
:10459000DDFF0320BDE8104000F0C4BF38B50C4C6F
:1045A0000C4B207018680C4A0178156861700B4834
:1045B0002B780168A3700A4D0A782868E27000F031
:1045C0003DFD286821461022BDE8384000F0AEBD10
:1045D000E80400201C02002008020020180200202D
:1045E0001402002010B50446032000F087FF8F203E
:1045F00000F0ACFFFF2000F0A9FF2070032000F0C6
:1046000091FF042000F07AFF8F2000F09FFFFF2031
:1046100000F09CFF6070042000F084FF2378617834
:1046200003F0070001F00F022070627010BD002837
:1046300070B503DA2D2301F8013B404200230A2420
:10464000B0FBF4F204FB12003030C85401331046C2
:10465000002AF4D15C10CB181A46A04207DA0D5C90
:1046600012F8016C0E5402F8015D0130F5E70021EB
:10467000197070BD2DE9F0470024A0462646274654
:10468000A446904504EB030928DA051995F901A021
:1046900098444FEA0A1A1FFA8AFAA1F800A0045DAA
:1046A0004AEA14140C8024B2A44495F9034024016E
:1046B000A4B24C8095F802A044EA1A144C8024B2AB
:1046C0003F1995F905402401A4B28C802D7944EA64
:1046D00015148C8024B236194C46D2E792FBF3F2C3
:1046E0000FFA8CFC3FB236B29CFBF2F097FBF2F76C
:1046F00096FBF2F308804F808B80BDE8F0870000C6
:1047000000231A0292B2082012F4004F18BF094980
:104710004FEA42021ABF51408AB292B2411E11F0D2
:10472000FF00F1D1044921F813200133B3F5807F54
:10473000E7D170470580FFFFE8020020044B81EAC3
:10474000102133F8112082EA002080B2704700BFA8
:104750000200002030B5002389B0054604200093F4
:10476000ADF804300293ADF80C30ADF81030ADF870
:104770001230ADF81430ADF81830ADF81A30ADF88D
:104780001C300C4600F0BAFE8F2000F0DFFEFF2048
:1047900000F0DCFE2070042000F0C4FE207800F061
:1047A0000F012170042000F0A9FE0F2000F0CEFEC2
:1047B000082000F0CBFE042000F0B4FE042000F03E
:1047C0009DFE32207A4C00F0C1FE152000F0BEFEA6
:1047D000042000F0A7FE204600F040FB042000F07B
:1047E0008DFE822000F0B2FEFF2000F0AFFE8DF8BB
:1047F0000000FF2000F0AAFE8DF80100042000F068
:1048000091FE042000F07AFE322000F09FFE162078
:1048100000F09CFE042000F085FE204600F01EFB08
:10482000042000F06BFE842000F090FEFF2000F0DA
:104830008DFE8DF80200FF2000F088FE8DF8030049
:10484000042000F06FFE042000F058FE322000F03B
:104850007DFE172000F07AFE042000F063FE204663
:1048600000F0FCFA042000F049FE862000F06EFE05
:10487000FF2000F06BFE8DF80400FF2000F066FEC4
:104880008DF80500042000F04DFE042000F036FEF7
:10489000322000F05BFE112000F058FE042000F0F2
:1048A00041FE204600F0DAFA042000F027FE8220C4
:1048B00000F04CFEFF2000F049FE8DF80800FF20BC
:1048C00000F044FE8DF80900042000F02BFE0420C7
:1048D00000F014FE322000F039FE122000F036FE07
:1048E000042000F01FFE204600F0B8FA042000F07B
:1048F00005FE842000F02AFEFF2000F027FE8DF840
:104900000A00FF2000F022FE8DF80B00042000F0CA
:1049100009FE042000F0F2FD322000F017FE132003
:1049200000F014FE042000F0FDFD204600F096FA91
:10493000042000F0E3FD862000F008FEFF2000F0D8
:1049400005FE8DF80C00FF2000F000FE8DF80D0034
:10495000042000F0E7FD042000F0D0FD142000F05A
:10496000F5FDB62000F0F2FD042000F0DBFD684606
:1049700004A906220123FFF77DFE02A806A906224C
:104980000123FFF777FEBDF81830BDF81020BDF801
:104990001A10D01ABDF8123028805A1ABDF81C001F
:1049A000BDF814106A800B1AAB8009B030BD00BF8F
:1049B00000D4300030B5072085B0AA2300248DF83C
:1049C0000B0003208DF808308DF80930ADF8064053
:1049D0008DF80A4000F092FDBC2000F0B7FDFF20EA
:1049E00000F0B4FD0546032000F09CFDC5F3001166
:1049F0008DF80C1002ABE55CBDF80620294690B29C
:104A0000FFF79CFE0134ADF80600284600F0BEFD1D
:104A1000052CEFD1BDF80600BDF80610C0B28CB26F
:104A200000F0B4FD200A00F0B1FD05B030BD00007B
:104A3000F0B5092085B0AA2300248DF807000520D1
:104A40008DF804308DF80530ADF802408DF8064041
:104A500000F054FD4B2000F079FD012000F076FDC0
:104A6000052000F05FFD052000F048FD4C2000F01F
:104A70006DFD2F2000F06AFD052000F053FD234856
:104A800000F0ECF9052000F039FDC22000F05EFDD9
:104A9000FF2000F05BFD0746FF2000F057FDFF20E0
:104AA00000F054FD0646FF2000F050FDFF2000F00E
:104AB0004DFD0546052000F035FD07F0010706F025
:104AC000010605F001018DF808708DF809608DF878
:104AD0000A1001ABE55CBDF80220294690B2FFF751
:104AE0002DFE0134ADF80200284600F04FFD072CE2
:104AF000EFD1BDF80200BDF80210C0B28CB200F0D8
:104B000045FD200A00F042FD05B0F0BD00D43000A4
:104B100030B51B4985B0AA238DF808308DF80930CF
:104B20000D78184B002407204FF48042ADF8064062
:104B30008DF80A008DF80B408DF80C509A6502A98B
:104B4000655CBDF80600294680B2FFF7F7FD013429
:104B5000ADF80600284600F019FD052CEFD1BDF890
:104B60000620BDF80630D0B29CB200F00FFD200A3E
:104B700000F00CFD03494FF48040C86505B030BD1E
:104B8000E8040020006000400309092B03DC0D4A03
:104B900003F130019170A3F10A01052902D8094AF5
:104BA0003733937000F00F00092803DC054B00F148
:104BB0003001D970A0F10A02052A02D80149373024
:104BC000C8707047020200202DE9F041424A8AB0C5
:104BD0001068516807AB03C3404C90686168186067
:104BE000206801AD03C53E4F218938682980796866
:104BF00004AB03C33889BA7AA67A188003209A7066
:104C0000AE7000F07BFC802000F0A0FC002000F0E3
:104C10009DFC8046032000F085FC042000F06EFC23
:104C2000802000F093FC002000F090FC0746042058
:104C300000F078FC052000F061FCC02000F086FC4C
:104C4000002000F083FC274D06464FF480440520E9
:104C500000F068FCAC650DF11B0515F8014F1CB1A7
:104C6000204600F093FCF8E74046FFF78DFF1E4911
:104C7000085D013400F08AFC042CF8D10DF1030525
:104C800015F8014F1CB1204600F080FCF8E73846CB
:104C9000FFF77AFF144B185D013400F077FC042C09
:104CA000F8D10DF10F0515F8014F1CB1204600F0A9
:104CB0006DFCF8E73046FFF767FF0B48005D0134F5
:104CC00000F064FC042CF8D106494FF48042CA6518
:104CD0000AB0BDE8F08100BF5859000064590000D7
:104CE0006F5900000060004002020020F0B5564BF2
:104CF0004FF4804195B0054699651446A2B9534AD0
:104D00000FAB5168106803C352F8080F9679918869
:104D10009E71186099800DF13B0616F8010F00286E
:104D20004CD000F033FCF8E7012A17D1484B0FA80C
:104D300003F11007024659681868083303C2BB42E2
:104D40001046F7D19E781988967011800DF13B06B8
:104D500016F8010F90B300F019FCF9E7022A15D1FB
:104D60003C4B0FA903F110070A461868596808332D
:104D700003C2BB421146F7D118880DF13B061080E3
:104D800016F8010FD0B100F001FCF9E7032A15D1A4
:104D9000314B0FAA03F1100718685968164603C66D
:104DA0000833BB423246F7D1187830700DF13B061C
:104DB00016F8010F10B100F0E9FBF9E7B5F90000B2
:104DC0006946FFF734FCB5F9020005A9FFF72FFC8F
:104DD000B5F904000AA9FFF72AFC0DF1FF3616F811
:104DE000010F10B100F0D2FBF9E7202000F0CEFB5C
:104DF0000DF1130616F8010F10B100F0C7FBF9E72B
:104E0000202000F0C3FB0DF1270616F8010F10B1AA
:104E100000F0BCFBF9E7022C05D00B4B4FF48042AD
:104E2000DA6515B0F0BDB5F906000FA9FFF7FFFB75
:104E3000202000F0ABFB0DF13B0414F8010F00281B
:104E4000EBD000F0A3FBF8E7006000407A590000C7
:104E5000895900009C590000AE590000034B002204
:104E60005A6059688142FCD3704700BF001000E0CF
:104E7000034B1A6922F00400186130BF704700BF6D
:104E800000ED00E00B4B40F2014241F205004FF40F
:104E900080611A60586040F61542596141F6F97018
:104EA0000B21DA60986459655A6D42F00B00586521
:104EB000704700BF00C40040064B4FF480725A6137
:104EC00040F6054041F6F97140F20332D86099642A
:104ED0005A65704700C00040114B4FF080429A6203
:104EE00080204FF08842142198631A6544F2020032
:104EF000D96448F20101D86599654FF482001A67B8
:104F00004FF40051C022DA67C3F89800C3F8A0102C
:104F1000D3F8202142F00400C3F82001704700BFFD
:104F200000600040054B40224FF4C85001211A6038
:104F3000D861D960024B04221A607047000001401A
:104F400000E100E0034B40F20C7200201A60586050
:104F5000704700BF00800840144B154A1A60186A59
:104F600040F0040119621846C26A104B1207FBD5C3
:104F70004FF4807140F2AE3099604C22D860B3217A
:104F800005201A6159610222986204215C205A624C
:104F900019645864074B0848DA6842F08071D96098
:104FA000036843F001020260704700BF00800C40BC
:104FB0002C060C00F0ED00E0001000E0054B08228C
:104FC0000548C3F880211A60C16C41F00403C36432
:104FD000704700BF00E100E000C0004010B50C4C7D
:104FE000B4F900300BB900F0BDFA0A482288C06954
:104FF000094B11B25854013290B29B7801B29942D8
:10500000208003D1BDE8104000F0B2BA10BD00BF4F
:10501000E602002000C00040C602002008B500F0F3
:10502000AFFA00F0A5FA034B034900220A201A80C8
:10503000887008BDE6020020C6020020194B9A685D
:1050400042F00101996018610120D860DA695107C6
:1050500005D59A68FF2022F0010199601FE0D96907
:105060008A0705D5996821F001009860FE2016E0B6
:1050700002200D4AD8600B4BD96911F00100194686
:1050800002D012B1013AF6E72AB98B6823F0010089
:105090008860FD2003E09A6822F00101996040B227
:1050A000704700BF00000C408096980030B5124B4E
:1050B000124AD46914F0080F0DD153B1013BF7E740
:1050C0000823D3600C4B0D4AD06910F001010DD1BB
:1050D00083B9FD210EE0002BFBD000238B42EFDAD9
:1050E00050F82340054D0133AC61F7E7002BF0D0B9
:1050F000013BE8E748B230BD8096980000000C40C4
:10510000094B01221861DA60D96911F0060008D054
:105110004A0705D411F0020F0CBF0020FE2000E06A
:10512000FF2040B2704700BF00000C40174B2DE934
:10513000F04180469868971040F001049C600E464C
:105140000024BC4219DA08EB84052846FFF7D8FF93
:10515000A0B9ED05E90DC1F500723B1B95089D4214
:10516000A8BF1D466419002DEBD030460121FFF782
:105170009DFF18B90436013DF5E70020034940B210
:105180008A6822F001038B60BDE8F08100000C40CA
:10519000F7B5A44900230A68A34C16781846ADF861
:1051A0000430ADF80630A14B25681E70A04F2A7858
:1051B00039685A709F4C0D7827689D709E493C78DD
:1051C0000968DC700F881F7109880F0A9B495F719D
:1051D00009680F689F710F683F0ADF714F881F725F
:1051E000C978FF27597296499F72DF720F68397824
:1051F000197358739873D87370B2002801DC0126B4
:105200001E70042D01D910259D70052A18BF032A90
:1052100006D002F0FB03082B02D0844F03227A70E1
:10522000032C824C01D90021E170864E3068FFF7D3
:1052300005FF7E4910223068FFF778FFFFF760FA1C
:10524000FEF7C0FF6078FFF70DF9A078FFF753F97C
:10525000E078FFF7A7F8A078FFF78DF9FFF7AEFE2B
:10526000FFF760FE784D794B00200A2228809A7063
:10527000754F764C3988A67808B2B04202D0FFF755
:10528000F7FDF5E72578AA2DECD16278AA2AE9D1B5
:10529000664FE37839789942E4D12679102E6DD0A3
:1052A00021D8032E4DD013D8012E3AD040D86179A1
:1052B0006748FEF798FF61796648FEF7C5FF6648C4
:1052C000FEF7F4FF62486349634A00F0D7F9C9E783
:1052D000052E43D03BD3062E43D0072E40F0F2805C
:1052E000FFF7A6FBBEE7202E00F0BC800BD8122EE5
:1052F0007AD05CD3132E00F08F80142E40F0E28021
:10530000FFF706FCAEE7222E00F0CB80C0F0C08095
:10531000232E00F0CE80FF2E40F0D480FFF754FC07
:10532000A0E761794A48FEF75EFF4948002105E0A1
:1053300061794848FEF788FF4648012100F032F9BC
:1053400090E74548FEF7B2FF43480221F6E743489D
:10535000FFF748F9414800F007FA83E7FFF72AFB17
:1053600080E73F4C3B482146FFF7F4F939480121DB
:1053700000F018F92078FFF775F873E76079FFF708
:10538000FAF8284B284D19682A6808782949387096
:10539000137864790868BC707B702A4C05782068A3
:1053A000FD70FFF74BFE20683946324619E0274D65
:1053B0001F4C6879FFF756F81A4A1C4E1368697932
:1053C0001F782068717037701A4A05781368B570B5
:1053D0001C4C1F782068F770FFF730FE20683146BC
:1053E0001022FFF7A3FE3DE70E4E6079FEF7DAFFCD
:1053F00031680D4D08782A6838700D4E1378316881
:105400007B7008780F4D6479B8702868FC70FFF7DE
:1054100015FE28683946E3E70C484079FFF7BEF8E7
:1054200020E700BF240200201C020020E804002026
:105430000802002018020020200200200C02002098
:105440001002002014020020E6020020C602002004
:10545000B2020020C0020020B8020020E4020020B6
:10546000B002002061791F48FEF7BDFE61791E4839
:10547000FEF7EAFE1D48FEF719FF03210022194836
:10548000FFF734FC184803210122FFF72FFC13E03B
:10549000174A14485179FEF7A6FE1248032100224C
:1054A0000DE061791048FEF7CFFE0F48032101227D
:1054B00005E00E48FEF7FAFE0C4804210222FFF731
:1054C00015FCCFE60B4E0C4F012430687C73FFF7C0
:1054D000B5FD306839461022FFF728FE204600F05F
:1054E0007FF9BFE6B2020020C0020020B80200200F
:1054F000C602002014020020E8040020032804D182
:1055000007494FF40040C8657047042801D1402284
:1055100002E0052803D18022014BC3F880207047A8
:1055200000600040032804D107494FF4004088651B
:105530007047042801D1402202E0052802D18022D0
:10554000014BDA67704700BF00600040044B5863AE
:105550001A699206FCD50248C169C8B2704700BFFB
:1055600000C40040014B01225A6070470000014016
:10557000024B022200205A6058627047000001402E
:10558000014B01229A61704700000140044B1A69E7
:105590005106FBD5586318698206FCD5704700BFD9
:1055A00000C0004030B5058887B0AA2345F3072224
:1055B0008DF808308DF809308DF80D2043888288E9
:1055C00000248DF80C508DF80E3043F30725022986
:1055D00042F30723ADF806408DF80B408DF80F50CD
:1055E0008DF810208DF8113023491DD1C0884FF45B
:1055F000804240F307258DF812008DF813508A651C
:105600000E218DF80A1002ABE55CBDF806002946B4
:1056100080B2FFF793F80134ADF806002846FFF793
:10562000B5FF0C2CEFD115E04FF480400C258865B8
:105630008DF80A5002ABE55CBDF80620294690B211
:10564000FFF77CF80134ADF806002846FFF79EFF0F
:105650000A2CEFD1BDF80620BDF80640D0B2A4B2A6
:10566000FFF794FF200AFFF791FF03484FF48041B2
:10567000C16507B030BD00BF0060004030B5AA234F
:1056800089B005888DF808308DF8093018238DF819
:105690000A308DF80C5045F30723458880888DF833
:1056A0000D308DF80E5045F3072340F307258DF894
:1056B0000F308DF811500B884D888DF810008988B7
:1056C00043F307208DF812308DF8145045F307236B
:1056D00015888DF813008DF8153041F3072045F338
:1056E00007238DF81610518892888DF819301D4BBC
:1056F00000248DF817008DF818508DF81A1041F31A
:10570000072042F307254FF48041ADF806408DF89D
:105710000B408DF81B008DF81C208DF81D509965ED
:1057200002AAA55CBDF80600294680B2FFF706F87C
:105730000134ADF806002846FFF728FF162CEFD1FC
:10574000BDF80610BDF80630C8B29CB2FFF71EFFC8
:10575000200AFFF71BFF034A4FF48040D06509B0D1
:1057600030BD00BF0060004030B5AA2385B0057889
:105770008DF808308DF809304078184B0024082146
:105780004FF48042ADF806408DF80A108DF80B40BA
:105790008DF80C508DF80D009A6502AD655DBDF871
:1057A0000610013488B22946FEF7C8FFADF806009E
:1057B0002846FFF7EBFE062CEFD1BDF80600BDF83A
:1057C0000620C0B294B2FFF7E1FE200AFFF7DEFE2A
:1057D000024B4FF48041D96505B030BD00600040F8
:1057E00018B9034B9968CB07FBD4024A1060704785
:1057F0000080084000001043074880470749084AD6
:10580000084B9B1A40F30580043BC858D0503FF723
:10581000FBAF05480047000071580000D459000054
:10582000000000209402002055410000FEE7FEE742
:10583000FEE7FEE7FEE7FEE7FEE7FEE7FEE7FEE740
:10584000FEE7FEE7FEE7FEE7FEE7FEE7FEE7FEE730
:10585000FEE7FEE7FEE7FEE7FEE7FEE7FEE7FEE720
:10586000FEE7FEE7FEE7FEE7FEE7FEE7FEE700BF36
:105870007047000010B5034C14B1AFF3008010BDA9
:10588000204610BD0000000008B5084B04461BB1BF
:105890000021AFF3008001E000F00CF8044800683C
:1058A000816A01B18847204600F048F800000000F6
:1058B000C459000070B5084B084C0025E01A84104C
:1058C00003EB8406043D1CB172599047013CF9E793
:1058D000BDE8704000F03AB8900200209402002029
:1058E00038B50E4D0E4B0024E81A8510AC4205D099
:1058F0000B4951F8242090470134F7E700F020F8D5
:105900000849094A541AA5100024AC4205D0054B99
:1059100053F8240080470134F7E738BD8C0200209B
:105920008C0200208C020020900200208218034686
:10593000934202D003F8011BFAE77047FEE700BF6D
:10594000F8B500BFF8BC08BC9E467047F8B500BF6C
:10595000F8BC08BC9E4670470A0D4779726F2D4906
:10596000440A0D000A0D4163632D49440A0D000AE3
:105970000D4D61672D49440A0D000A0D4759524FDC
:105980004D45544552200A0D000A0D414343454CF4
:1059900045524F4D45544552200A0D000A0D4D41C8
:1059A000474E45544F4D45544552200A0D000A0DAF
:1059B00054454D5045524154555245200A0D00431F
:0C59C00000000000280200200000000091
:0859CC0088E7FF7F01000000E5
:1059D4000201000005800F800A001B801E001400D5
:1059E4001180338036003C00398028002D802780C8
:1059F4002200638066006C00698078007D80778077
:105A04007200500055805F805A004B804E00440065
:105A14004180C380C600CC00C980D800DD80D78017
:105A2400D200F000F580FF80FA00EB80EE00E40085
:105A3400E180A000A580AF80AA00BB80BE00B400B6
:105A4400B180938096009C00998088008D80878027
:105A54008200838186018C01898198019D819781CF
:105A64009201B001B581BF81BA01AB81AE01A4013D
:105A7400A181E001E581EF81EA01FB81FE01F401EE
:105A8400F181D381D601DC01D981C801CD81C781DF
:105A9400C201400145814F814A015B815E0154018D
:105AA4005181738176017C01798168016D816781FF
:105AB4006201238126012C01298138013D8137812E
:105AC4003201100115811F811A010B810E0104019D
:105AD4000181038306030C03098318031D831783C1
:105AE4001203300335833F833A032B832E032403AD
:105AF4002183600365836F836A037B837E0374035E
:105B04007183538356035C03598348034D8347834E
:105B14004203C003C583CF83CA03DB83DE03D403FC
:105B2400D183F383F603FC03F983E803ED83E7836E
:105B3400E203A383A603AC03A983B803BD83B7839D
:105B4400B203900395839F839A038B838E0384030C
:105B54008183800285828F828A029B829E029402C4
:105B64009182B382B602BC02B982A802AD82A78236
:105B7400A202E382E602EC02E982F802FD82F782E5
:105B8400F202D002D582DF82DA02CB82CE02C402D4
:105B9400C182438246024C02498258025D82578286
:105BA4005202700275827F827A026B826E026402F4
:105BB4006182200225822F822A023B823E02340225
:105BC4003182138216021C02198208020D82078296
:105BD400020230782020000002380000063800005D
:105BE4000C380000003800000338000001380000C1
:105BF400043800000038000000000000000000002D
:105C04000000000000000000000000000000000090
:105C14000000000000000000BF5900000000000068
:105C24000000000000000000000000000000000070
:105C34000000000000000000000000000000000060
:105C44000000000000000000000000000000000050
:105C540000000000000000000000000025410000DA
:045C640001410000FA
:04000003000057F9A9
:00000001FF
