:10400000001000203157000067570000695700007A
:104010006B5700006D5700006F5700006557000098
:104020006557000065570000655700007157000094
:104030007357000065570000755700007757000060
:10404000795700007B57000029500000E94F00001D
:1040500081570000835700008557000087570000F4
:10406000895700008B5700008D5700008F570000C4
:104070009157000093570000955700009757000094
:10408000995700009B5700009D5700009F57000064
:10409000A1570000A3570000A55700000000000032
:1040A0000000000000000000000000000000000010
:1040B0000000000000000000000000000000000000
:1040C00000000000000000000000000000000000F0
:1040D00000000000000000000000000000000000E0
:1040E00000000000000000000000000000000000D0
:1040F00000000000000000000000000000000000C0
:1041000010B5054C237833B9044810B10448AFF317
:1041100000800121217010BD8803002000000000F4
:104120002059000008B5064B1BB106480649AFF3FD
:1041300000800648016811B1054A02B1904708BDE8
:1041400000000000205900008C030020880300209C
:1041500000000000154B002B08BF134B9D46A3F534
:10416000803A00218B460F461348144A121A01F078
:1041700079FB0F4B002B00D098470E4B002B00D043
:1041800098470020002104460D4600200C490022DB
:10419000002301F00BFB01F03FFB2046294600F015
:1041A00093FF01F00DFB00BF00000800001000208D
:1041B000000000000000000088030020EC05002043
:1041C000ED57000008B500F0C7FE00F085FE00F0D6
:1041D00059FE00F071FE00F0B5FE4BF68030BDE8F0
:1041E000084000F03BBE70B5B0B005466C4618AE56
:1041F000032001F01FF9822001F044F9FF2001F0B3
:1042000041F92070FF2001F03DF96070FF2001F0BE
:1042100039F9A070FF2001F035F9E070FF2001F0BE
:1042200031F92071FF2001F02DF96071032006346F
:1042300001F014F9B442DBD1684629466022062316
:1042400000F018FA30B070BD70B5B0B005466C46DD
:1042500018AE042001F0EEF8822001F013F9FF20DF
:1042600001F010F92070FF2001F00CF96070FF20C0
:1042700001F008F9A070FF2001F004F9E070FF20C0
:1042800001F000F92071FF2001F0FCF860710420BA
:10429000063401F0E3F8B442DBD1684629466022D7
:1042A000062300F0E7F930B070BD00002DE9F74FAC
:1042B0000446052001F0BEF84C2001F0E3F82E2062
:1042C00001F0E0F8052001F0C9F8052001F0B2F88E
:1042D0004C2001F0D7F82A2001F0D4F8052001F095
:1042E000BDF82C4B1978012908BF4FF4A07007D0F6
:1042F000042901D1284803E007290CBF2748284892
:1043000000F0ACFD052001F095F8C22001F0BAF8EC
:10431000FF2001F0B7F88346FF2001F0B3F8024612
:10432000FF20019201F0AEF88146FF2001F0AAF8CB
:104330008246FF2001F0A6F80746FF2001F0A2F810
:104340008046FF2001F09EF80546FF2001F09AF814
:104350000646052001F082F80198CBF3C70B43B263
:104360004FFA8AFAC9F3C7024FFA88F8C7F347072A
:1043700076B2C5F387054BEA431142EA4A1947EA88
:10438000C81745EA86152180A4F80290A780E58029
:10439000BDE8FE8F0100002000E2040000C4090017
:1043A000006A180008B52D4A2D4B18B9012111706B
:1043B00002200EE0012803D1042010700E2008E036
:1043C000022803D1072111701A2002E02E2111705A
:1043D00052201870052001F02DF84B2001F052F802
:1043E000012001F04FF8052001F038F8052001F018
:1043F00021F84C2001F046F8282001F043F8052070
:1044000001F02CF8052001F015F84E2001F03AF8E3
:10441000072001F037F8052001F020F8052001F011
:1044200009F8512001F02EF80C4A107801F02AF812
:10443000052001F013F8052000F0FCFF522001F0E8
:1044400021F8074B187801F01DF8052001F006F857
:104450004FF47A50BDE8084000F000BD0100002094
:1044600000000020052818BF032810B5044604D01A
:1044700000F0FB03082B18BF0324042000F0DAFF30
:10448000142000F0FFFFB62000F0FCFF042000F035
:10449000E5FF042000F0CEFF0F2000F0F3FF2046E0
:1044A00000F0F0FF042000F0D9FF042000F0C2FF6C
:1044B000102000F0E7FF0F2000F0E4FF042000F0E0
:1044C000CDFF042000F0B6FF112000F0DBFF00203C
:1044D00000F0D8FF042000F0C1FF042000F0AAFF84
:1044E000132000F0CFFF802000F0CCFF0420BDE8B7
:1044F000104000F0B3BF10B5042894BF0446002458
:10450000032000F097FF142000F0BCFFB62000F05D
:10451000B9FF032000F0A2FF032000F08BFF0F2063
:1045200000F0B0FF204600F0ADFF032000F096FF42
:10453000102000F0A7FF022000F0A4FF032000F0ED
:104540008DFF032000F076FF112000F09BFF00207C
:1045500000F098FF032000F081FF032000F06AFFC5
:10456000132000F08FFF002000F08CFF0320BDE837
:10457000104000F073BF10B5042894BF0446002417
:10458000032000F057FF0F2000F07CFF204600F0D2
:1045900079FF0320BDE8104000F060BF38B50C4C37
:1045A0000C4B207018680C4A0178156861700B4834
:1045B0002B780168A3700A4D0A782868E27001F030
:1045C0006FF9286821461022BDE8384001F060B933
:1045D000DC0500201C020020080200201802002038
:1045E0001402002010B50446032000F023FF8F20A2
:1045F00000F048FFFF2000F045FF2070032000F08E
:104600002DFF042000F016FF8F2000F03BFFFF205D
:1046100000F038FF6070042000F020FF23786178FC
:1046200003F0070001F00F022070627010BD002837
:1046300070B503DA2D2301F8013B404200230A2420
:10464000B0FBF4F204FB12003030C85401331046C2
:10465000002AF4D15C10CB181A46A04207DA0D5C90
:1046600012F8016C0E5402F8015D0130F5E70021EB
:10467000197070BD2DE9F0470024A0462646274654
:10468000A446904504EB030928DA051995F901A021
:1046900098444FEA0A1A1FFA8AFAA1F800A0045DAA
:1046A0004AEA14140C8024B2A44495F9034024016E
:1046B000A4B24C8095F802A044EA1A144C8024B2AB
:1046C0003F1995F905402401A4B28C802D7944EA64
:1046D00015148C8024B236194C46D2E792FBF3F2C3
:1046E0000FFA8CFC3FB236B29CFBF2F097FBF2F76C
:1046F00096FBF2F308804F808B80BDE8F0870000C6
:1047000000231A0292B2082012F4004F18BF094980
:104710004FEA42021ABF51408AB292B2411E11F0D2
:10472000FF00F1D1044921F813200133B3F5807F54
:10473000E7D170470580FFFFDC030020044B81EACE
:10474000102133F8112082EA002080B2704700BFA8
:104750000200002030B5002389B0054604200093F4
:10476000ADF804300293ADF80C30ADF81030ADF870
:104770001230ADF81430ADF81830ADF81A30ADF88D
:104780001C300C4600F056FE8F2000F07BFEFF2010
:1047900000F078FE2070042000F060FE207800F029
:1047A0000F012170042000F045FE0F2000F06AFE8A
:1047B000082000F067FE042000F050FE042000F006
:1047C00039FE32207A4C00F05DFE152000F05AFED2
:1047D000042000F043FE204600F040FB042000F0DF
:1047E00029FE822000F04EFEFF2000F04BFE8DF8E7
:1047F0000000FF2000F046FE8DF80100042000F0CC
:104800002DFE042000F016FE322000F03BFE1620A4
:1048100000F038FE042000F021FE204600F01EFBD0
:10482000042000F007FE842000F02CFEFF2000F0A2
:1048300029FE8DF80200FF2000F024FE8DF8030011
:10484000042000F00BFE042000F0F4FD322000F004
:1048500019FE172000F016FE042000F0FFFD204690
:1048600000F0FCFA042000F0E5FD862000F00AFECE
:10487000FF2000F007FE8DF80400FF2000F002FE8C
:104880008DF80500042000F0E9FD042000F0D2FDC1
:10489000322000F0F7FD112000F0F4FD042000F0BC
:1048A000DDFD204600F0DAFA042000F0C3FD82208E
:1048B00000F0E8FDFF2000F0E5FD8DF80800FF2086
:1048C00000F0E0FD8DF80900042000F0C7FD042091
:1048D00000F0B0FD322000F0D5FD122000F0D2FD36
:1048E000042000F0BBFD204600F0B8FA042000F0E0
:1048F000A1FD842000F0C6FDFF2000F0C3FD8DF86F
:104900000A00FF2000F0BEFD8DF80B00042000F02F
:10491000A5FD042000F08EFD322000F0B3FD132031
:1049200000F0B0FD042000F099FD204600F096FA5A
:10493000042000F07FFD862000F0A4FDFF2000F0A1
:10494000A1FD8DF80C00FF2000F09CFD8DF80D00FE
:10495000042000F083FD042000F06CFD142000F022
:1049600091FDB62000F08EFD042000F077FD684632
:1049700004A906220123FFF77DFE02A806A906224C
:104980000123FFF777FEBDF81830BDF81020BDF801
:104990001A10D01ABDF8123028805A1ABDF81C001F
:1049A000BDF814106A800B1AAB8009B030BD00BF8F
:1049B00000D4300030B5072085B0AA2300248DF83C
:1049C0000B0003208DF808308DF80930ADF8064053
:1049D0008DF80A4000F02EFDBC2000F053FDFF20B2
:1049E00000F050FD0546032000F038FDC5F300112E
:1049F0008DF80C1002ABE55CBDF80620294690B29C
:104A0000FFF79CFE0134ADF80600284600F05AFD81
:104A1000052CEFD1BDF80600BDF80610C0B28CB26F
:104A200000F050FD200A00F04DFD05B030BD000043
:104A3000F0B5092085B0AA2300248DF807000520D1
:104A40008DF804308DF80530ADF802408DF8064041
:104A500000F0F0FC4B2000F015FD012000F012FDED
:104A6000052000F0FBFC052000F0E4FC4C2000F0E9
:104A700009FD2F2000F006FD052000F0EFFC234883
:104A800000F0ECF9052000F0D5FCC22000F0FAFCA3
:104A9000FF2000F0F7FC0746FF2000F0F3FCFF20AA
:104AA00000F0F0FC0646FF2000F0ECFCFF2000F0D8
:104AB000E9FC0546052000F0D1FC07F0010706F0EF
:104AC000010605F001018DF808708DF809608DF878
:104AD0000A1001ABE55CBDF80220294690B2FFF751
:104AE0002DFE0134ADF80200284600F0EBFC072C47
:104AF000EFD1BDF80200BDF80210C0B28CB200F0D8
:104B0000E1FC200A00F0DEFC05B0F0BD00D430006E
:104B100030B51B4985B0AA238DF808308DF80930CF
:104B20000D78184B002407204FF48042ADF8064062
:104B30008DF80A008DF80B408DF80C509A6502A98B
:104B4000655CBDF80600294680B2FFF7F7FD013429
:104B5000ADF80600284600F0B5FC052CEFD1BDF8F5
:104B60000620BDF80630D0B29CB200F0ABFC200AA3
:104B700000F0A8FC03494FF48040C86505B030BD83
:104B8000DC050020006000400309092B03DC0D4A0E
:104B900003F130019170A3F10A01052902D8094AF5
:104BA0003733937000F00F00092803DC054B00F148
:104BB0003001D970A0F10A02052A02D80149373024
:104BC000C8707047020200202DE9F041424A8AB0C5
:104BD0001068516807AB03C3404C90686168186067
:104BE000206801AD03C53E4F218938682980796866
:104BF00004AB03C33889BA7AA67A188003209A7066
:104C0000AE7000F017FC802000F03CFC002000F0AB
:104C100039FC8046032000F021FC042000F00AFC4F
:104C2000802000F02FFC002000F02CFC0746042020
:104C300000F014FC052000F0FDFBC02000F022FC79
:104C4000002000F01FFC274D06464FF4804405204D
:104C500000F004FCAC650DF11B0515F8014F1CB10B
:104C6000204600F02FFCF8E74046FFF78DFF1E4975
:104C7000085D013400F026FC042CF8D10DF1030589
:104C800015F8014F1CB1204600F01CFCF8E738462F
:104C9000FFF77AFF144B185D013400F013FC042C6D
:104CA000F8D10DF10F0515F8014F1CB1204600F0A9
:104CB00009FCF8E73046FFF767FF0B48005D013459
:104CC00000F000FC042CF8D106494FF48042CA657C
:104CD0000AB0BDE8F08100BFB0580000BC58000029
:104CE000C75800000060004002020020F0B5564B9B
:104CF0004FF4804195B0054699651446A2B9534AD0
:104D00000FAB5168106803C352F8080F9679918869
:104D10009E71186099800DF13B0616F8010F00286E
:104D20004CD000F0CFFBF8E7012A17D1484B0FA871
:104D300003F11007024659681868083303C2BB42E2
:104D40001046F7D19E781988967011800DF13B06B8
:104D500016F8010F90B300F0B5FBF9E7022A15D160
:104D60003C4B0FA903F110070A461868596808332D
:104D700003C2BB421146F7D118880DF13B061080E3
:104D800016F8010FD0B100F09DFBF9E7032A15D109
:104D9000314B0FAA03F1100718685968164603C66D
:104DA0000833BB423246F7D1187830700DF13B061C
:104DB00016F8010F10B100F085FBF9E7B5F9000016
:104DC0006946FFF734FCB5F9020005A9FFF72FFC8F
:104DD000B5F904000AA9FFF72AFC0DF1FF3616F811
:104DE000010F10B100F06EFBF9E7202000F06AFB24
:104DF0000DF1130616F8010F10B100F063FBF9E78F
:104E0000202000F05FFB0DF1270616F8010F10B10E
:104E100000F058FBF9E7022C05D00B4B4FF4804211
:104E2000DA6515B0F0BDB5F906000FA9FFF7FFFB75
:104E3000202000F047FB0DF13B0414F8010F00287F
:104E4000EBD000F03FFBF8E700600040D2580000D4
:104E5000E1580000F458000006590000034B0022FE
:104E60005A6059688142FCD3704700BF001000E0CF
:104E7000034B1A6922F00400186130BF704700BF6D
:104E800000ED00E00B4B40F2014241F205004FF40F
:104E900080611A60586040F61542596141F6F97018
:104EA0000B21DA60986459655A6D42F00B00586521
:104EB000704700BF00C40040064B4FF480725A6137
:104EC00040F6054041F6F97140F20332D86099642A
:104ED0005A65704700C00040114B4FF080429A6203
:104EE00080204FF08842142198631A6544F2020032
:104EF000D96448F20101D86599654FF482001A67B8
:104F00004FF40051C022DA67C3F89800C3F8A0102C
:104F1000D3F8202142F00400C3F82001704700BFFD
:104F200000600040054B40224FF4C85001211A6038
:104F3000D861D960024B04221A607047000001401A
:104F400000E100E0034B40F20C7200201A60586050
:104F5000704700BF00800840164B174A1A60186A55
:104F600040F0040119621846C26A124B1207FBD5C1
:104F70004FF4807140F2AE3099604C22D860B3217A
:104F800005201A6159610222986204215C205A624C
:104F900019645864094B0A48DA6842F08071D96094
:104FA000036841F6713143F0010202600548C163B4
:104FB000704700BF00800C402C060C00F0ED00E0B4
:104FC000001000E000000C40054B08220548C3F823
:104FD00080211A60C16C41F00403C364704700BFB4
:104FE00000E100E000C0004010B50C4CB4F9003006
:104FF0000BB900F053FA0A482288C069094B11B274
:105000005854013290B29B7801B29942208003D16A
:10501000BDE8104000F048BA10BD00BFDA03002020
:1050200000C00040BA03002008B500F045FA00F0C7
:105030003BFA034B034900220A201A80887008BDFE
:10504000DA030020BA03002030B5124B124AD469AB
:1050500014F0080F0DD153B1013BF7E70823D360DB
:105060000C4B0D4AD06910F001010DD183B9FD211F
:105070000EE0002BFBD000238B42EFDA50F82340E8
:10508000054D0133AC61F7E7002BF0D0013BE8E7B9
:1050900048B230BD8096980000000C40094B0122B8
:1050A0001861DA60D96911F0060008D04A0705D402
:1050B00011F0020F0CBF0020FE2000E0FF2040B2E4
:1050C000704700BF00000C40F7B5AA4900230A68EA
:1050D000A94C16781846ADF80430ADF80630A74B49
:1050E00025681E70A64F2A7839685A70A54C0D782D
:1050F00027689D70A4493C780968DC700F881F718F
:1051000009880F0AA1495F7109680F689F710F68CC
:105110003F0ADF714F881F72C978FF2759729C4977
:105120009F72DF720F683978197358739873D87348
:1051300070B2002801DC01261E70042D01D9102553
:105140009D70052A18BF032A06D002F0FB03082B26
:1051500002D08A4F03227A70032C884C01D9002197
:10516000E1708C4E306800F09BFB8449102230685F
:1051700000F08EFBFFF7C4FAFFF724F86078FFF722
:1051800071F9A078FFF7B7F9E078FFF70BF9A0788D
:10519000FFF7F1F9FFF718FFFFF7C4FE7E4D7F4BD5
:1051A00000200A2228809A707B4F7C4C3988A67890
:1051B00008B2B04202D0FFF75BFEF5E72578AA2DD2
:1051C000ECD16278AA2AE9D16C4FE3783978994218
:1051D000E4D12579112D00F0978030D8042D79D0B5
:1051E0000CD8012D66D054D3022D6AD0032DD5D111
:1051F0006B48FFF75BF86A48022168E0062D73D020
:105200006FD3072D7DD0102DC8D15A4E6079FFF78E
:10521000B2F93068584B0278584F19683A705948BB
:105220000E78647902687E70BC705A4E13783068CC
:10523000FB7000F035FB306839462A467CE0202DB3
:1052400000F0BF8018D8132D00F0B48077D3142D50
:1052500000F0B480152DA1D14E4E484F0124306886
:105260007C7300F01DFB30683946102200F010FB03
:10527000204600F051FA91E7222D00F0C180C0F0E5
:10528000B680232D00F0C480FF2D87D1FFF79CFC52
:1052900084E761794348FEF7A6FF61794248FEF74B
:1052A000D3FF3F48FFF702F83E483F493C4A00F031
:1052B00081F973E761793B48FEF795FF3948002192
:1052C00005E061793848FEF7BFFF3748012100F05B
:1052D00005F963E73548FFF785F9344800F0E0F950
:1052E0005CE7FFF767FB59E7314D2F482946FFF789
:1052F00031FA2D48012100F0F1F82878FFF7B2F8D3
:105300004CE7FFF795FB49E76079FFF7ABF8194BDE
:105310001B4A1E6860793178156878703970194BAE
:105320002C781E68BC701B4D31782868F97000F02D
:10533000B7FA28683946102200F0AAFA2EE7174D6E
:105340000E4F6879FFF72EF80A490B4B08681C6866
:1053500002780B493A70267808687E700D4C027806
:105360006D792068BA70FD7000F09AFA20683946AD
:10537000E1E700BF240200201C020020DC05002021
:105380000802002018020020200200200C02002049
:105390001002002014020020DA030020BA030020CB
:1053A000AC030020A6030020B4030020D803002093
:1053B000A40300206079FFF7F1F8EFE6FFF7A8FB00
:1053C000ECE661791748FEF70EFF61791648FEF7A3
:1053D0003BFF1648FEF76AFF032100221148FFF742
:1053E00085FC114803210122FFF780FC13E0104FD8
:1053F0000C487979FEF7F7FE0A48032100220DE0F8
:1054000061790948FEF720FF07480321012205E0E2
:105410000648FEF74BFF054804210222FFF766FC11
:10542000BCE600BFA6030020B4030020AC030020AC
:10543000BA030020032804D107494FF40040C8658F
:105440007047042801D1402202E0052803D18022C0
:10545000014BC3F88020704700600040032804D14E
:1054600007494FF4004088657047042801D1402265
:1054700002E0052802D18022014BDA67704700BFA5
:1054800000600040044B58631A699206FCD502483C
:10549000C169C8B2704700BF00C40040014B01227F
:1054A0005A60704700000140024B022200205A60FF
:1054B0005862704700000140014B01229A61704719
:1054C00000000140044B1A695106FBD55863186966
:1054D0008206FCD5704700BF00C0004030B505888B
:1054E00087B0AA2345F307228DF808308DF80930DC
:1054F0008DF80D204388828800248DF80C508DF89B
:105500000E3043F30725022942F30723ADF8064086
:105510008DF80B408DF80F508DF810208DF811305C
:1055200023491DD1C0884FF4804240F307258DF8F0
:1055300012008DF813508A650E218DF80A1002AB07
:10554000E55CBDF80600294680B2FFF7F7F80134A4
:10555000ADF806002846FFF7B5FF0C2CEFD115E09B
:105560004FF480400C2588658DF80A5002ABE55C4D
:10557000BDF80620294690B2FFF7E0F80134ADF8F7
:1055800006002846FFF79EFF0A2CEFD1BDF8062043
:10559000BDF80640D0B2A4B2FFF794FF200AFFF78F
:1055A00091FF03484FF48041C16507B030BD00BF93
:1055B0000060004030B5AA2389B005888DF8083016
:1055C0008DF8093018238DF80A308DF80C5045F30A
:1055D0000723458880888DF80D308DF80E5045F3EF
:1055E000072340F307258DF80F308DF811500B88F5
:1055F0004D888DF81000898843F307208DF812300C
:105600008DF8145045F3072315888DF813008DF895
:10561000153041F3072045F307238DF81610518804
:1056200092888DF819301D4B00248DF817008DF8E5
:1056300018508DF81A1041F3072042F307254FF454
:105640008041ADF806408DF80B408DF81B008DF8B9
:105650001C208DF81D50996502AAA55CBDF80600B6
:10566000294680B2FFF76AF80134ADF806002846F3
:10567000FFF728FF162CEFD1BDF80610BDF8063055
:10568000C8B29CB2FFF71EFF200AFFF71BFF034AB8
:105690004FF48040D06509B030BD00BF00600040CD
:1056A00030B5AA2385B005788DF808308DF809301B
:1056B0004078184B002408214FF48042ADF8064092
:1056C0008DF80A108DF80B408DF80C508DF80D00F8
:1056D0009A6502AD655DBDF80610013488B22946B1
:1056E000FFF72CF8ADF806002846FFF7EBFE062C76
:1056F000EFD1BDF80600BDF80620C0B294B2FFF7A6
:10570000E1FE200AFFF7DEFE024B4FF48041D9652F
:1057100005B030BD0060004018B9034B9968CB0755
:10572000FBD4024A1060704700800840000010431C
:10573000074880470749084A084B9B1A40F30580F1
:10574000043BC858D0503FF7FBAF05480047000066
:10575000A95700002C5900000000002088030020F9
:1057600055410000FEE7FEE7FEE7FEE7FEE7FEE745
:10577000FEE7FEE7FEE7FEE7FEE7FEE7FEE7FEE701
:10578000FEE7FEE7FEE7FEE7FEE7FEE7FEE7FEE7F1
:10579000FEE7FEE7FEE7FEE7FEE7FEE7FEE7FEE7E1
:1057A000FEE7FEE7FEE700BF7047000010B5034CC0
:1057B00014B1AFF3008010BD204610BD0000000002
:1057C00008B5084B04461BB10021AFF3008001E08F
:1057D00000F00CF804480068816A01B1884720464F
:1057E00000F048F8000000001C59000070B5084B9C
:1057F000084C0025E01A841003EB8406043D1CB11C
:1058000072599047013CF9E7BDE8704000F03AB8A2
:10581000840300208803002038B50E4D0E4B002471
:10582000E81A8510AC4205D00B4951F82420904766
:105830000134F7E700F020F80849094A541AA51086
:105840000024AC4205D0054B53F8240080470134B6
:10585000F7E738BD8003002080030020800300208C
:105860008403002082180346934202D003F8011BF0
:10587000FAE77047FEE700BFF8B500BFF8BC08BC08
:105880009E467047F8B500BFF8BC08BC9E467047FE
:1058900001B40248844601BC604700BFFD020020FD
:1058A00001B40248844601BC604700BF8D0200205D
:1058B0000A0D4779726F2D49440A0D000A0D4163A4
:1058C000632D49440A0D000A0D4D61672D49440AB4
:1058D0000D000A0D4759524F4D45544552200A0DAF
:1058E000000A0D414343454C45524F4D45544552E6
:1058F000200A0D000A0D4D41474E45544F4D455469
:105900004552200A0D000A0D54454D504552415450
:10591000555245200A0D00430000000028020020D7
:045920000000000083
:0859240030E8FF7F01000000E4
:10592C000201000005800F800A001B801E0014007D
:10593C001180338036003C00398028002D80278070
:10594C002200638066006C00698078007D8077801F
:10595C007200500055805F805A004B804E0044000E
:10596C004180C380C600CC00C980D800DD80D780C0
:10597C00D200F000F580FF80FA00EB80EE00E4002E
:10598C00E180A000A580AF80AA00BB80BE00B4005F
:10599C00B180938096009C00998088008D808780D0
:1059AC008200838186018C01898198019D81978178
:1059BC009201B001B581BF81BA01AB81AE01A401E6
:1059CC00A181E001E581EF81EA01FB81FE01F40197
:1059DC00F181D381D601DC01D981C801CD81C78188
:1059EC00C201400145814F814A015B815E01540136
:1059FC005181738176017C01798168016D816781A8
:105A0C006201238126012C01298138013D813781D6
:105A1C003201100115811F811A010B810E01040145
:105A2C000181038306030C03098318031D83178369
:105A3C001203300335833F833A032B832E03240355
:105A4C002183600365836F836A037B837E03740306
:105A5C007183538356035C03598348034D834783F7
:105A6C004203C003C583CF83CA03DB83DE03D403A5
:105A7C00D183F383F603FC03F983E803ED83E78317
:105A8C00E203A383A603AC03A983B803BD83B78346
:105A9C00B203900395839F839A038B838E038403B5
:105AAC008183800285828F828A029B829E0294026D
:105ABC009182B382B602BC02B982A802AD82A782DF
:105ACC00A202E382E602EC02E982F802FD82F7828E
:105ADC00F202D002D582DF82DA02CB82CE02C4027D
:105AEC00C182438246024C02498258025D8257822F
:105AFC005202700275827F827A026B826E0264029D
:105B0C006182200225822F822A023B823E023402CD
:105B1C003182138216021C02198208020D8207823E
:105B2C000202307820200000023800000638000005
:105B3C000C38000000380000033800000138000069
:105B4C0004380000003800000000000000000000D5
:105B5C000000000000000000000000000000000039
:105B6C0000000000000000001759000000000000B9
:105B7C000000000000000000000000000000000019
:105B8C000000000000000000000000000000000009
:105B9C0000000000000000000000000000000000F9
:105BAC00000000000000000000000000194B9A6883
:105BBC0042F00101996018610120D860DA6951073F
:105BCC0005D59A68FF2022F0010199601FE0D96980
:105BDC008A0705D5996821F001009860FE2016E02F
:105BEC0002200D4AD8600B4BD96911F001001946FF
:105BFC0002D012B1013AF6E72AB98B6823F0010002
:105C0C008860FD2003E09A6822F00101996040B29F
:105C1C00704700BF00000C4080969800174B2DE990
:105C2C00F04180469868971040F001049C600E4645
:105C3C000024BC4219DA08EB8405284600F028F849
:105C4C00A0B9ED05E90DC1F500723B1B95089D420D
:105C5C00A8BF1D466419002DEBD03046012100F081
:105C6C000FF818B90436013DF5E70020034940B29E
:105C7C008A6822F001038B60BDE8F08100000C40C3
:105C8C0001B40248844601BC604700BF4950000083
:105C9C0001B40248844601BC604700BF9D5000001F
:085CAC00254100000141000048
:040000030000573171
:00000001FF
