:1040000000100020195700004F57000051570000C2
:104010005357000055570000575700004D570000F8
:104020004D5700004D5700004D57000059570000F4
:104030005B5700004D5700005D5700005F570000C0
:10404000615700006357000029500000E94F00004D
:10405000695700006B5700006D5700006F57000054
:104060007157000073570000755700007757000024
:10407000795700007B5700007D5700007F570000F4
:1040800081570000835700008557000087570000C4
:10409000895700008B5700008D570000000000007A
:1040A0000000000000000000000000000000000010
:1040B0000000000000000000000000000000000000
:1040C00000000000000000000000000000000000F0
:1040D00000000000000000000000000000000000E0
:1040E00000000000000000000000000000000000D0
:1040F00000000000000000000000000000000000C0
:1041000010B5054C237833B9044810B10448AFF317
:1041100000800121217010BD9003002000000000EC
:104120000859000008B5064B1BB106480649AFF315
:1041300000800648016811B1054A02B1904708BDE8
:1041400000000000085900009403002090030020A4
:1041500000000000154B002B08BF134B9D46A3F534
:10416000803A00218B460F461348144A121A01F078
:104170006DFB0F4B002B00D098470E4B002B00D04F
:1041800098470020002104460D4600200C490022DB
:10419000002301F0FFFA01F033FB2046294600F02E
:1041A00093FF01F001FB00BF000008000010002099
:1041B000000000000000000090030020F405002033
:1041C000D557000008B500F0C7FE00F085FE00F0EE
:1041D00059FE00F071FE00F0B5FE4BF68030BDE8F0
:1041E000084000F03BBE70B5B0B005466C4618AE56
:1041F000032001F013F9822001F038F9FF2001F0CB
:1042000035F92070FF2001F031F96070FF2001F0D6
:104210002DF9A070FF2001F029F9E070FF2001F0D6
:1042200025F92071FF2001F021F960710320063487
:1042300001F008F9B442DBD1684629466022062322
:1042400000F018FA30B070BD70B5B0B005466C46DD
:1042500018AE042001F0E2F8822001F007F9FF20F7
:1042600001F004F92070FF2001F000F96070FF20D8
:1042700001F0FCF8A070FF2001F0F8F8E070FF20DA
:1042800001F0F4F82071FF2001F0F0F860710420D3
:10429000063401F0D7F8B442DBD1684629466022E3
:1042A000062300F0E7F930B070BD00002DE9F74FAC
:1042B0000446052001F0B2F84C2001F0D7F82E207A
:1042C00001F0D4F8052001F0BDF8052001F0A6F8B2
:1042D0004C2001F0CBF82A2001F0C8F8052001F0AD
:1042E000B1F82C4B1978012908BF4FF4A07007D002
:1042F000042901D1284803E007290CBF2748284892
:1043000000F0ACFD052001F089F8C22001F0AEF804
:10431000FF2001F0ABF88346FF2001F0A7F802462A
:10432000FF20019201F0A2F88146FF2001F09EF8E3
:104330008246FF2001F09AF80746FF2001F096F828
:104340008046FF2001F092F80546FF2001F08EF82C
:104350000646052001F076F80198CBF3C70B43B26F
:104360004FFA8AFAC9F3C7024FFA88F8C7F347072A
:1043700076B2C5F387054BEA431142EA4A1947EA88
:10438000C81745EA86152180A4F80290A780E58029
:10439000BDE8FE8F0100002000E2040000C4090017
:1043A000006A180008B52D4A2D4B18B9012111706B
:1043B00002200EE0012803D1042010700E2008E036
:1043C000022803D1072111701A2002E02E2111705A
:1043D00052201870052001F021F84B2001F046F81A
:1043E000012001F043F8052001F02CF8052001F030
:1043F00015F84C2001F03AF8282001F037F8052094
:1044000001F020F8052001F009F84E2001F02EF807
:10441000072001F02BF8052001F014F8052000F02A
:10442000FDFF512001F022F80C4A107801F01EF82F
:10443000052001F007F8052000F0F0FF522001F000
:1044400015F8074B187801F011F8052000F0FAFF75
:104450004FF47A50BDE8084000F000BD0100002094
:1044600000000020052818BF032810B5044604D01A
:1044700000F0FB03082B18BF0324042000F0CEFF3C
:10448000142000F0F3FFB62000F0F0FF042000F04D
:10449000D9FF042000F0C2FF0F2000F0E7FF204604
:1044A00000F0E4FF042000F0CDFF042000F0B6FF90
:1044B000102000F0DBFF0F2000F0D8FF042000F0F8
:1044C000C1FF042000F0AAFF112000F0CFFF002060
:1044D00000F0CCFF042000F0B5FF042000F09EFFA8
:1044E000132000F0C3FF802000F0C0FF0420BDE8CF
:1044F000104000F0A7BF10B5042894BF0446002464
:10450000032000F08BFF142000F0B0FFB62000F075
:10451000ADFF032000F096FF032000F07FFF0F2087
:1045200000F0A4FF204600F0A1FF032000F08AFF66
:10453000102000F09BFF022000F098FF032000F005
:1045400081FF032000F06AFF112000F08FFF0020A0
:1045500000F08CFF032000F075FF032000F05EFFE9
:10456000132000F083FF002000F080FF0320BDE84F
:10457000104000F067BF10B5042894BF0446002423
:10458000032000F04BFF0F2000F070FF204600F0EA
:104590006DFF0320BDE8104000F054BF38B50C4C4F
:1045A0000C4B207018680C4A0178156861700B4834
:1045B0002B780168A3700A4D0A782868E27001F030
:1045C00063F9286821460822BDE8384001F054B953
:1045D000AD0300201C020020080200201802002069
:1045E0002402002010B50446032000F017FF8F209E
:1045F00000F03CFFFF2000F039FF2070032000F0A6
:1046000021FF042000F00AFF8F2000F02FFFFF2081
:1046100000F02CFF6070042000F014FF2378617814
:1046200003F0070001F00F022070627010BD002837
:1046300070B503DA2D2301F8013B404200230A2420
:10464000B0FBF4F204FB12003030C85401331046C2
:10465000002AF4D15C10CB181A46A04207DA0D5C90
:1046600012F8016C0E5402F8015D0130F5E70021EB
:10467000197070BD2DE9F0470024A0462646274654
:10468000A446904504EB030928DA051995F901A021
:1046900098444FEA0A1A1FFA8AFAA1F800A0045DAA
:1046A0004AEA14140C8024B2A44495F9034024016E
:1046B000A4B24C8095F802A044EA1A144C8024B2AB
:1046C0003F1995F905402401A4B28C802D7944EA64
:1046D00015148C8024B236194C46D2E792FBF3F2C3
:1046E0000FFA8CFC3FB236B29CFBF2F097FBF2F76C
:1046F00096FBF2F308804F808B80BDE8F0870000C6
:1047000000231A0292B2082012F4004F18BF094980
:104710004FEA42021ABF51408AB292B2411E11F0D2
:10472000FF00F1D1044921F813200133B3F5807F54
:10473000E7D170470580FFFFF4030020044B81EAB6
:10474000102133F8112082EA002080B2704700BFA8
:104750000200002030B5002389B0054604200093F4
:10476000ADF804300293ADF80C30ADF81030ADF870
:104770001230ADF81430ADF81830ADF81A30ADF88D
:104780001C300C4600F04AFE8F2000F06FFEFF2028
:1047900000F06CFE2070042000F054FE207800F041
:1047A0000F012170042000F039FE0F2000F05EFEA2
:1047B000082000F05BFE042000F044FE042000F01E
:1047C0002DFE32207A4C00F051FE152000F04EFEF6
:1047D000042000F037FE204600F040FB042000F0EB
:1047E0001DFE822000F042FEFF2000F03FFE8DF80B
:1047F0000000FF2000F03AFE8DF80100042000F0D8
:1048000021FE042000F00AFE322000F02FFE1620C8
:1048100000F02CFE042000F015FE204600F01EFBE8
:10482000042000F0FBFD842000F020FEFF2000F0BB
:104830001DFE8DF80200FF2000F018FE8DF8030029
:10484000042000F0FFFD042000F0E8FD322000F01D
:104850000DFE172000F00AFE042000F0F3FD2046B4
:1048600000F0FCFA042000F0D9FD862000F0FEFDE7
:10487000FF2000F0FBFD8DF80400FF2000F0F6FDA6
:104880008DF80500042000F0DDFD042000F0C6FDD9
:10489000322000F0EBFD112000F0E8FD042000F0D4
:1048A000D1FD204600F0DAFA042000F0B7FD8220A6
:1048B00000F0DCFDFF2000F0D9FD8DF80800FF209E
:1048C00000F0D4FD8DF80900042000F0BBFD0420A9
:1048D00000F0A4FD322000F0C9FD122000F0C6FD5A
:1048E000042000F0AFFD204600F0B8FA042000F0EC
:1048F00095FD842000F0BAFDFF2000F0B7FD8DF893
:104900000A00FF2000F0B2FD8DF80B00042000F03B
:1049100099FD042000F082FD322000F0A7FD132055
:1049200000F0A4FD042000F08DFD204600F096FA72
:10493000042000F073FD862000F098FDFF2000F0B9
:1049400095FD8DF80C00FF2000F090FD8DF80D0016
:10495000042000F077FD042000F060FD142000F03A
:1049600085FDB62000F082FD042000F06BFD684656
:1049700004A906220123FFF77DFE02A806A906224C
:104980000123FFF777FEBDF81830BDF81020BDF801
:104990001A10D01ABDF8123028805A1ABDF81C001F
:1049A000BDF814106A800B1AAB8009B030BD00BF8F
:1049B00000D4300030B5072085B0AA2300248DF83C
:1049C0000B0003208DF808308DF80930ADF8064053
:1049D0008DF80A4000F022FDBC2000F047FDFF20CA
:1049E00000F044FD0546032000F02CFDC5F3001146
:1049F0008DF80C1002ABE55CBDF80620294690B29C
:104A0000FFF79CFE0134ADF80600284600F04EFD8D
:104A1000052CEFD1BDF80600BDF80610C0B28CB26F
:104A200000F044FD200A00F041FD05B030BD00005B
:104A3000F0B5092085B0AA2300248DF807000520D1
:104A40008DF804308DF80530ADF802408DF8064041
:104A500000F0E4FC4B2000F009FD012000F006FD11
:104A6000052000F0EFFC052000F0D8FC4C2000F001
:104A7000FDFC2F2000F0FAFC052000F0E3FC2348A9
:104A800000F0ECF9052000F0C9FCC22000F0EEFCBB
:104A9000FF2000F0EBFC0746FF2000F0E7FCFF20C2
:104AA00000F0E4FC0646FF2000F0E0FCFF2000F0F0
:104AB000DDFC0546052000F0C5FC07F0010706F007
:104AC000010605F001018DF808708DF809608DF878
:104AD0000A1001ABE55CBDF80220294690B2FFF751
:104AE0002DFE0134ADF80200284600F0DFFC072C53
:104AF000EFD1BDF80200BDF80210C0B28CB200F0D8
:104B0000D5FC200A00F0D2FC05B0F0BD00D4300086
:104B100030B51B4985B0AA238DF808308DF80930CF
:104B20000D78184B002407204FF48042ADF8064062
:104B30008DF80A008DF80B408DF80C509A6502A98B
:104B4000655CBDF80600294680B2FFF7F7FD013429
:104B5000ADF80600284600F0A9FC052CEFD1BDF801
:104B60000620BDF80630D0B29CB200F09FFC200AAF
:104B700000F09CFC03494FF48040C86505B030BD8F
:104B8000AD030020006000400309092B03DC0D4A3F
:104B900003F130019170A3F10A01052902D8094AF5
:104BA0003733937000F00F00092803DC054B00F148
:104BB0003001D970A0F10A02052A02D80149373024
:104BC000C8707047020200202DE9F041424A8AB0C5
:104BD0001068516807AB03C3404C90686168186067
:104BE000206801AD03C53E4F218938682980796866
:104BF00004AB03C33889BA7AA67A188003209A7066
:104C0000AE7000F00BFC802000F030FC002000F0C3
:104C10002DFC8046032000F015FC042000F0FEFB74
:104C2000802000F023FC002000F020FC0746042038
:104C300000F008FC052000F0F1FBC02000F016FC9D
:104C4000002000F013FC274D06464FF48044052059
:104C500000F0F8FBAC650DF11B0515F8014F1CB118
:104C6000204600F023FCF8E74046FFF78DFF1E4981
:104C7000085D013400F01AFC042CF8D10DF1030595
:104C800015F8014F1CB1204600F010FCF8E738463B
:104C9000FFF77AFF144B185D013400F007FC042C79
:104CA000F8D10DF10F0515F8014F1CB1204600F0A9
:104CB000FDFBF8E73046FFF767FF0B48005D013466
:104CC00000F0F4FB042CF8D106494FF48042CA6589
:104CD0000AB0BDE8F08100BF98580000A458000059
:104CE000AF5800000060004002020020F0B5564BB3
:104CF0004FF4804195B0054699651446A2B9534AD0
:104D00000FAB5168106803C352F8080F9679918869
:104D10009E71186099800DF13B0616F8010F00286E
:104D20004CD000F0C3FBF8E7012A17D1484B0FA87D
:104D300003F11007024659681868083303C2BB42E2
:104D40001046F7D19E781988967011800DF13B06B8
:104D500016F8010F90B300F0A9FBF9E7022A15D16C
:104D60003C4B0FA903F110070A461868596808332D
:104D700003C2BB421146F7D118880DF13B061080E3
:104D800016F8010FD0B100F091FBF9E7032A15D115
:104D9000314B0FAA03F1100718685968164603C66D
:104DA0000833BB423246F7D1187830700DF13B061C
:104DB00016F8010F10B100F079FBF9E7B5F9000022
:104DC0006946FFF734FCB5F9020005A9FFF72FFC8F
:104DD000B5F904000AA9FFF72AFC0DF1FF3616F811
:104DE000010F10B100F062FBF9E7202000F05EFB3C
:104DF0000DF1130616F8010F10B100F057FBF9E79B
:104E0000202000F053FB0DF1270616F8010F10B11A
:104E100000F04CFBF9E7022C05D00B4B4FF480421D
:104E2000DA6515B0F0BDB5F906000FA9FFF7FFFB75
:104E3000202000F03BFB0DF13B0414F8010F00288B
:104E4000EBD000F033FBF8E700600040BA580000F8
:104E5000C9580000DC580000EE580000034B002247
:104E60005A6059688142FCD3704700BF001000E0CF
:104E7000034B1A6922F00400186130BF704700BF6D
:104E800000ED00E00B4B40F2014241F205004FF40F
:104E900080611A60586040F61542596141F6F97018
:104EA0000B21DA60986459655A6D42F00B00586521
:104EB000704700BF00C40040064B4FF480725A6137
:104EC00040F6054041F6F97140F20332D86099642A
:104ED0005A65704700C00040114B4FF080429A6203
:104EE00080204FF08842142198631A6544F2020032
:104EF000D96448F20101D86599654FF482001A67B8
:104F00004FF40051C022DA67C3F89800C3F8A0102C
:104F1000D3F8202142F00400C3F82001704700BFFD
:104F200000600040054B40224FF4C85001211A6038
:104F3000D861D960024B04221A607047000001401A
:104F400000E100E0034B40F20C7200201A60586050
:104F5000704700BF00800840164B174A1A60186A55
:104F600040F0040119621846C26A124B1207FBD5C1
:104F70004FF4807140F2AE3099604C22D860B3217A
:104F800005201A6159610222986204215C205A624C
:104F900019645864094B0A48DA6842F08071D96094
:104FA000036841F6713143F0010202600548C163B4
:104FB000704700BF00800C402C060C00F0ED00E0B4
:104FC000001000E000000C40054B08220548C3F823
:104FD00080211A60C16C41F00403C364704700BFB4
:104FE00000E100E000C0004010B50C4CB4F9003006
:104FF0000BB900F047FA0A482288C069094B11B280
:105000005854013290B29B7801B29942208003D16A
:10501000BDE8104000F03CBA10BD00BFEA0300201C
:1050200000C00040CA03002008B500F039FA00F0C3
:105030002FFA034B034900220A201A80887008BD0A
:10504000EA030020CA03002030B5124B124AD4698B
:1050500014F0080F0DD153B1013BF7E70823D360DB
:105060000C4B0D4AD06910F001010DD183B9FD211F
:105070000EE0002BFBD000238B42EFDA50F82340E8
:10508000054D0133AC61F7E7002BF0D0013BE8E7B9
:1050900048B230BD8096980000000C40094B0122B8
:1050A0001861DA60D96911F0060008D04A0705D402
:1050B00011F0020F0CBF0020FE2000E0FF2040B2E4
:1050C000704700BF00000C40F7B5A648A64C016829
:1050D000A64A0E7825681670A54F297800239E46AB
:1050E000ADF80430ADF806303B685170A1481D782A
:1050F00004689570A04F24783868D47007889F4B57
:1051000076B21F700088070A9D485F7000680768C4
:105110009F7007683F0ADF704788002E1F71C078B4
:10512000984F58713868077883F807E09F7101DC61
:1051300001231370042D01D910259570052918BF7E
:10514000032906D001F0FB02082A02D08748032178
:105150004170032C854C01D90027E7708A4E3068D6
:1051600000F092FB81490822306800F085FBFFF7D0
:10517000C7FAFFF727F86078FFF774F9A078FFF710
:10518000BAF9E078FFF70EF9A078FFF7F4F9FFF726
:105190001BFFFFF7C7FE7D4B7D4900250A221D80BE
:1051A0008A707A487A4C0788A6783DB2B54202D018
:1051B000FFF75EFEF5E72378AA2BECD16278AA2AE6
:1051C000E9D16A4FE17838788842E4D12679112E06
:1051D00000F08B8024D8042E6DD00CD8012E5AD02C
:1051E00048D3022E5ED0032ED5D16A48FFF75EF871
:1051F000684802215CE0062E67D063D3072E71D089
:10520000102EC8D1574D6079FFF7B5F92B68564974
:105210001A78564F08683A70067864797E7070E0A4
:10522000202E00F0C38018D8132E00F0938077D37F
:10523000142E00F09380152EADD1574E4F4F0125FF
:105240003068FD7100F020FB30683946082200F01C
:1052500013FB284600F054FA9DE7222E00F0C5808B
:10526000C0F0BA80232E00F0C880FF2E93D1FFF744
:10527000ABFC90E761794948FEF7B5FF6179484892
:10528000FEF7E2FF4348FFF711F844484449414A1A
:1052900000F084F97FE761794048FEF7A4FF3F48BA
:1052A000002105E061793E48FEF7CEFF3C48012130
:1052B00000F008F96FE73B48FFF794F9394800F030
:1052C000E3F968E7FFF776FB65E7374C344821469A
:1052D000FFF740FA3248012100F0F4F82078FFF798
:1052E000C1F858E7FFF7A4FB55E76079FFF7BAF874
:1052F0001C481F490668627933780D683B707A70E4
:105300002C781C48BC7006681F4D33782868FB70E9
:1053100000F0BAFA28683946082200F0ADFA3AE7F8
:105320001B4F124C7879FFF73DF80E4B0E481A6868
:10533000056811780E4B21702E781A686670124D30
:1053400011787F792868A170E77000F09DFA2868CD
:105350002146E1E76079FFF721F91CE7FFF7D8FB69
:1053600019E700BF280200201C020020AD03002026
:10537000080200201802002020020020EC03002078
:10538000140200201002002024020020EA03002062
:10539000CA030020BC0300200C020020B60300203A
:1053A000C4030020E8030020AC0300206179174803
:1053B000FEF719FF61791648FEF746FF1548FEF71C
:1053C00075FF032100221148FFF790FC10480321CC
:1053D0000122FFF78BFC13E00F4C0C486179FEF7BC
:1053E00002FF0A48032100220DE061790848FEF718
:1053F0002BFF07480321012205E00648FEF756FF70
:10540000044804210222FFF771FCC4E6B603002021
:10541000C4030020BC030020CA030020032804D1D9
:1054200007494FF40040C8657047042801D1402265
:1054300002E0052803D18022014BC3F88020704789
:1054400000600040032804D107494FF400408865FC
:105450007047042801D1402202E0052802D18022B1
:10546000014BDA67704700BF00600040044B58638F
:105470001A699206FCD50248C169C8B2704700BFDC
:1054800000C40040014B01225A60704700000140F7
:10549000024B022200205A6058627047000001400F
:1054A000014B01229A61704700000140044B1A69C8
:1054B0005106FBD5586318698206FCD5704700BFBA
:1054C00000C0004030B5058887B0AA2345F3072205
:1054D0008DF808308DF809308DF80D2043888288CA
:1054E00000248DF80C508DF80E3043F30725022967
:1054F00042F30723ADF806408DF80B408DF80F50AE
:105500008DF810208DF8113023491DD1C0884FF43B
:10551000804240F307258DF812008DF813508A65FC
:105520000E218DF80A1002ABE55CBDF80600294695
:1055300080B2FFF703F90134ADF806002846FFF703
:10554000B5FF0C2CEFD115E04FF480400C25886599
:105550008DF80A5002ABE55CBDF80620294690B2F2
:10556000FFF7ECF80134ADF806002846FFF79EFF80
:105570000A2CEFD1BDF80620BDF80640D0B2A4B287
:10558000FFF794FF200AFFF791FF03484FF4804193
:10559000C16507B030BD00BF0060004030B5AA2330
:1055A00089B005888DF808308DF8093018238DF8FA
:1055B0000A308DF80C5045F30723458880888DF814
:1055C0000D308DF80E5045F3072340F307258DF875
:1055D0000F308DF811500B884D888DF81000898898
:1055E00043F307208DF812308DF8145045F307234C
:1055F00015888DF813008DF8153041F3072045F319
:1056000007238DF81610518892888DF819301D4B9C
:1056100000248DF817008DF818508DF81A1041F3FA
:10562000072042F307254FF48041ADF806408DF87E
:105630000B408DF81B008DF81C208DF81D509965CE
:1056400002AAA55CBDF80600294680B2FFF776F8ED
:105650000134ADF806002846FFF728FF162CEFD1DD
:10566000BDF80610BDF80630C8B29CB2FFF71EFFA9
:10567000200AFFF71BFF034A4FF48040D06509B0B2
:1056800030BD00BF0060004030B5AA2385B005786A
:105690008DF808308DF809304078184B0024082127
:1056A0004FF48042ADF806408DF80A108DF80B409B
:1056B0008DF80C508DF80D009A6502AD655DBDF852
:1056C0000610013488B22946FFF738F8ADF8060015
:1056D0002846FFF7EBFE062CEFD1BDF80600BDF81B
:1056E0000620C0B294B2FFF7E1FE200AFFF7DEFE0B
:1056F000024B4FF48041D96505B030BD00600040D9
:1057000018B9034B9968CB07FBD4024A1060704765
:105710000080084000001043074880470749084AB6
:10572000084B9B1A40F30580043BC858D0503FF704
:10573000FBAF0548004700009157000014590000D6
:10574000000000209003002055410000FEE7FEE726
:10575000FEE7FEE7FEE7FEE7FEE7FEE7FEE7FEE721
:10576000FEE7FEE7FEE7FEE7FEE7FEE7FEE7FEE711
:10577000FEE7FEE7FEE7FEE7FEE7FEE7FEE7FEE701
:10578000FEE7FEE7FEE7FEE7FEE7FEE7FEE700BF17
:105790007047000010B5034C14B1AFF3008010BD8A
:1057A000204610BD0000000008B5084B04461BB1A0
:1057B0000021AFF3008001E000F00CF8044800681D
:1057C000816A01B18847204600F048F800000000D7
:1057D0000459000070B5084B084C0025E01A8410ED
:1057E00003EB8406043D1CB172599047013CF9E774
:1057F000BDE8704000F03AB88C0300209003002010
:1058000038B50E4D0E4B0024E81A8510AC4205D079
:105810000B4951F8242090470134F7E700F020F8B5
:105820000849094A541AA5100024AC4205D0054B7A
:1058300053F8240080470134F7E738BD880300207F
:1058400088030020880300208C0300208218034670
:10585000934202D003F8011BFAE77047FEE700BF4E
:10586000F8B500BFF8BC08BC9E467047F8B500BF4D
:10587000F8BC08BC9E46704701B40248844601BC8F
:10588000604700BF0103002001B40248844601BC08
:10589000604700BF910200200A0D4779726F2D49C1
:1058A000440A0D000A0D4163632D49440A0D000AA4
:1058B0000D4D61672D49440A0D000A0D4759524F9D
:1058C0004D45544552200A0D000A0D414343454CB5
:1058D00045524F4D45544552200A0D000A0D4D4189
:1058E000474E45544F4D45544552200A0D000A0D70
:1058F00054454D5045524154555245200A0D0043E0
:0C590000000000002C020020000000004D
:08590C0048E8FF7F01000000E4
:105914000201000005800F800A001B801E00140095
:105924001180338036003C00398028002D80278088
:105934002200638066006C00698078007D80778037
:105944007200500055805F805A004B804E00440026
:105954004180C380C600CC00C980D800DD80D780D8
:10596400D200F000F580FF80FA00EB80EE00E40046
:10597400E180A000A580AF80AA00BB80BE00B40077
:10598400B180938096009C00998088008D808780E8
:105994008200838186018C01898198019D81978190
:1059A4009201B001B581BF81BA01AB81AE01A401FE
:1059B400A181E001E581EF81EA01FB81FE01F401AF
:1059C400F181D381D601DC01D981C801CD81C781A0
:1059D400C201400145814F814A015B815E0154014E
:1059E4005181738176017C01798168016D816781C0
:1059F4006201238126012C01298138013D813781EF
:105A04003201100115811F811A010B810E0104015D
:105A14000181038306030C03098318031D83178381
:105A24001203300335833F833A032B832E0324036D
:105A34002183600365836F836A037B837E0374031E
:105A44007183538356035C03598348034D8347830F
:105A54004203C003C583CF83CA03DB83DE03D403BD
:105A6400D183F383F603FC03F983E803ED83E7832F
:105A7400E203A383A603AC03A983B803BD83B7835E
:105A8400B203900395839F839A038B838E038403CD
:105A94008183800285828F828A029B829E02940285
:105AA4009182B382B602BC02B982A802AD82A782F7
:105AB400A202E382E602EC02E982F802FD82F782A6
:105AC400F202D002D582DF82DA02CB82CE02C40295
:105AD400C182438246024C02498258025D82578247
:105AE4005202700275827F827A026B826E026402B5
:105AF4006182200225822F822A023B823E023402E6
:105B04003182138216021C02198208020D82078256
:105B140002023078202000000278000000380000E3
:105B24000638000002380000037800000178000005
:105B34000038000000780000007800000000000039
:105B44000000000000000000000000000000000051
:105B5400000000000000000000000000FF580000EA
:105B64000000000000000000000000000000000031
:105B74000000000000000000000000000000000021
:105B84000000000000000000000000000000000011
:105B94000000000000000000000000000000000001
:105BA400194B9A6842F00101996018610120D8608C
:105BB400DA69510705D59A68FF2022F0010199603E
:105BC4001FE0D9698A0705D5996821F0010098601A
:105BD400FE2016E002200D4AD8600B4BD96911F063
:105BE4000100194602D012B1013AF6E72AB98B68CE
:105BF40023F001008860FD2003E09A6822F001018F
:105C0400996040B2704700BF00000C408096980035
:105C1400174B2DE9F04180469868971040F0010435
:105C24009C600E460024BC4219DA08EB8405284621
:105C340000F02AF8A0B9ED05E90DC1F500723B1B8F
:105C440095089D42A8BF1D466419002DEBD030462F
:105C5400012100F011F818B90436013DF5E70020E0
:105C6400034940B28A6822F001038B60BDE8F081E9
:105C740000000C400000000001B40248844601BC4E
:105C8400604700BF4950000001B40248844601BC8B
:105C9400604700BF9D500000254100000141000005
:040000030000571989
:00000001FF
