:10000000001000209D180000D3180000D518000033
:10001000D7180000D9180000DB180000D118000024
:10002000D1180000D1180000D1180000DD18000020
:10003000DF180000D1180000E1180000E3180000EC
:10004000E5180000E7180000491000000910000042
:10005000ED180000EF180000F1180000F318000080
:10006000F5180000F718000069100000FB180000E8
:10007000FD180000FF18000001190000031900001E
:100080000519000007190000091900000B190000EC
:100090000D1900000F1900001119000000000000E8
:1000A0000000000000000000000000000000000050
:1000B0000000000000000000000000000000000040
:1000C0000000000000000000000000000000000030
:1000D0000000000000000000000000000000000020
:1000E0000000000000000000000000000000000010
:1000F0000000000000000000000000000000000000
:1001000010B5054C237833B9044810B10448AFF357
:1001100000800121217010BD90030020000000002C
:10012000901A000008B5064B1BB106480649AFF30C
:1001300000800648016811B1054A02B1904708BD28
:1001400000000000901A000094030020900300209B
:1001500000000000154B002B08BF134B9D46A3F574
:10016000803A00218B460F461348144A121A01F0B8
:100170002FFC0F4B002B00D098470E4B002B00D0CC
:1001800098470020002104460D4600200C4900221B
:10019000002301F0C1FB01F0F5FB2046294600F0E9
:1001A000ADFF01F0C3FB00BF0000080000100020FD
:1001B000000000000000000090030020FA0500206D
:1001C0005919000008B500F0C9FE00F089FE00F0E2
:1001D00059FE00F071FE00F0B7FE4BF68030BDE82E
:1001E000084000F03BBE70B5B0B005466C4618AE96
:1001F000032001F051F9822001F076F9FF2001F08F
:1002000073F92070FF2001F06FF96070FF2001F09A
:100210006BF9A070FF2001F067F9E070FF2001F09A
:1002200063F92071FF2001F05FF96071032006344B
:1002300001F046F9B442DBD1684629466022062324
:1002400000F018FA30B070BD70B5B0B005466C461D
:1002500018AE042001F020F9822001F045F9FF20BA
:1002600001F042F92070FF2001F03EF96070FF209C
:1002700001F03AF9A070FF2001F036F9E070FF209C
:1002800001F032F92071FF2001F02EF96071042095
:10029000063401F015F9B442DBD1684629466022E4
:1002A000062300F0E7F930B070BD00002DE9F74FEC
:1002B0000446052001F0F0F84C2001F015F92E203D
:1002C00001F012F9052001F0FBF8052001F0E4F837
:1002D0004C2001F009F92A2001F006F9052001F06F
:1002E000EFF82C4B1978012908BF4FF4A07007D004
:1002F000042901D1284803E007290CBF27482848D2
:1003000000F0ACFD052001F0C7F8C22001F0ECF8C8
:10031000FF2001F0E9F88346FF2001F0E5F80246EE
:10032000FF20019201F0E0F88146FF2001F0DCF8A7
:100330008246FF2001F0D8F80746FF2001F0D4F8EC
:100340008046FF2001F0D0F80546FF2001F0CCF8F0
:100350000646052001F0B4F80198CBF3C70B43B271
:100360004FFA8AFAC9F3C7024FFA88F8C7F347076A
:1003700076B2C5F387054BEA431142EA4A1947EAC8
:10038000C81745EA86152180A4F80290A780E58069
:10039000BDE8FE8F0100002000E2040000C4090057
:1003A000006A180008B52D4A2D4B18B901211170AB
:1003B00002200EE0012803D1042010700E2008E076
:1003C000022803D1072111701A2002E02E2111709A
:1003D00052201870052001F05FF84B2001F084F8DE
:1003E000012001F081F8052001F06AF8052001F0F4
:1003F00053F84C2001F078F8282001F075F805201A
:1004000001F05EF8052001F047F84E2001F06CF88D
:10041000072001F069F8052001F052F8052001F0ED
:100420003BF8512001F060F80C4A107801F05CF8BC
:10043000052001F045F8052001F02EF8522001F0CA
:1004400053F8074B187801F04FF8052001F038F801
:100450004FF47A50BDE8084000F000BD01000020D4
:100460000000002010B5052818BF0328044604D05A
:1004700000F0FB03082B18BF0324042001F00CF844
:10048000142001F031F8B62001F02EF8042001F01C
:1004900017F8042001F000F80F2001F025F820469D
:1004A00001F022F8042001F00BF8042000F0F4FF22
:1004B000102001F019F80F2001F016F8042000F0C8
:1004C000FFFF042000F0E8FF112001F00DF80020EC
:1004D00001F00AF8042000F0F3FF042000F0DCFF34
:1004E000132001F001F8802000F0FEFF0420BDE899
:1004F000104000F0E5BF10B5042894BF0446002466
:10050000032000F0C9FF142000F0EEFFB62000F039
:10051000EBFF032000F0D4FF032000F0BDFF0F200D
:1005200000F0E2FF204600F0DFFF032000F0C8FFEC
:10053000102000F0D9FF022000F0D6FF032000F0C9
:10054000BFFF032000F0A8FF112000F0CDFF002026
:1005500000F0CAFF032000F0B3FF032000F09CFF6F
:10056000132000F0C1FF002000F0BEFF0320BDE813
:10057000104000F0A5BF10B5042894BF0446002425
:10058000032000F089FF0F2000F0AEFF204600F0AE
:10059000ABFF0320BDE8104000F092BF38B50C4C13
:1005A0000C4B207018680C4A0178156861700B4874
:1005B0002B780168A3700A4D0A782868E27001F070
:1005C00027FA286821460822BDE8384001F018BA09
:1005D000AE0300201C0200200802002018020020A8
:1005E0002402002010B50446032000F055FF8F20A0
:1005F00000F07AFFFF2000F077FF2070032000F06A
:100600005FFF042000F048FF8F2000F06DFFFF2007
:1006100000F06AFF6070042000F052FF23786178D8
:1006200003F0070001F00F022070627010BD70B57A
:10063000002803DA2D2301F8013B404200230A245D
:10064000B0FBF4F204FB12003030C8540133104602
:10065000002AF4D15C10CB181A46A04207DA0D5CD0
:1006600012F8016C0E5402F8015D0130F5E700212B
:10067000197070BD2DE9F0470024A0462646274694
:10068000A446904504EB030928DA051995F901A061
:1006900098444FEA0A1A1FFA8AFAA1F800A0045DEA
:1006A0004AEA14140C8024B2A44495F903402401AE
:1006B000A4B24C8095F802A044EA1A144C8024B2EB
:1006C0003F1995F905402401A4B28C802D7944EAA4
:1006D00015148C8024B236194C46D2E792FBF3F203
:1006E0000FFA8CFC3FB236B29CFBF2F097FBF2F7AC
:1006F00096FBF2F308804F808B80BDE8F087000006
:1007000000231A0292B2082012F4004F18BF0949C0
:100710004FEA42021ABF51408AB292B2411E11F012
:10072000FF00F1D1044921F813200133B3F5807F94
:10073000E7D170470580FFFFFA030020044B81EAF0
:10074000102133F8112082EA002080B2704700BFE8
:100750000200002030B589B0002305460420009334
:10076000ADF804300293ADF80C30ADF81030ADF8B0
:100770001230ADF81430ADF81830ADF81A30ADF8CD
:100780001C300C4600F088FE8F2000F0ADFEFF20EC
:1007900000F0AAFE2070042000F092FE207800F005
:1007A0000F012170042000F077FE0F2000F09CFE66
:1007B000082000F099FE042000F082FE042000F0E2
:1007C0006BFE32207A4C00F08FFE152000F08CFE7C
:1007D000042000F075FE204600F040FB042000F0ED
:1007E0005BFE822000F080FEFF2000F07DFE8DF891
:1007F0000000FF2000F078FE8DF80100042000F0DA
:100800005FFE042000F048FE322000F06DFE16204E
:1008100000F06AFE042000F053FE204600F01EFBAC
:10082000042000F039FE842000F05EFEFF2000F07E
:100830005BFE8DF80200FF2000F056FE8DF80300ED
:10084000042000F03DFE042000F026FE322000F0DF
:100850004BFE172000F048FE042000F031FE204639
:1008600000F0FCFA042000F017FE862000F03CFEA9
:10087000FF2000F039FE8DF80400FF2000F034FE68
:100880008DF80500042000F01BFE042000F004FE9B
:10089000322000F029FE112000F026FE042000F096
:1008A0000FFE204600F0DAFA042000F0F5FD822069
:1008B00000F01AFEFF2000F017FE8DF80800FF2060
:1008C00000F012FE8DF80900042000F0F9FD04206C
:1008D00000F0E2FD322000F007FE122000F004FEDE
:1008E000042000F0EDFD204600F0B8FA042000F0EE
:1008F000D3FD842000F0F8FDFF2000F0F5FD8DF819
:100900000A00FF2000F0F0FD8DF80B00042000F03D
:10091000D7FD042000F0C0FD322000F0E5FD1320DB
:1009200000F0E2FD042000F0CBFD204600F096FA36
:10093000042000F0B1FD862000F0D6FDFF2000F07D
:10094000D3FD8DF80C00FF2000F0CEFD8DF80D00DA
:10095000042000F0B5FD042000F09EFD142000F0FE
:10096000C3FDB62000F0C0FD042000F0A9FD6846DC
:1009700004A906220123FFF77DFE02A806A906228C
:100980000123FFF777FEBDF81830BDF81020BDF841
:100990001A10D01ABDF8123028805A1ABDF81C005F
:1009A000BDF814106A800B1AAB8009B030BD00BFCF
:1009B00000D4300030B585B00720AA2300248DF87C
:1009C0000B0003208DF808308DF80930ADF8064093
:1009D0008DF80A4000F060FDBC2000F085FDFF208E
:1009E00000F082FD0546032000F06AFDC5F300110A
:1009F0008DF80C1002ABE55CBDF80620294690B2DC
:100A0000FFF79CFE0134ADF80600284600F098FD83
:100A1000052CEFD1BDF80600BDF80610C0B28CB2AF
:100A200000F08EFD200A00F08BFD05B030BD000007
:100A3000F0B585B00920AA2300248DF80700052011
:100A40008DF804308DF80530ADF802408DF8064081
:100A500000F022FD4B2000F047FD012000F044FD96
:100A6000052000F02DFD052000F016FD4C2000F0C3
:100A70003BFD2F2000F038FD052000F021FD23482C
:100A800000F0ECF9052000F007FDC22000F02CFD7D
:100A9000FF2000F029FD0746FF2000F025FDFF2084
:100AA00000F022FD0646FF2000F01EFDFF2000F0B2
:100AB0001BFD0546052000F003FD07F0010706F0C9
:100AC000010605F001018DF808708DF809608DF8B8
:100AD0000A1001ABE55CBDF80220294690B2FFF791
:100AE0002DFE0134ADF80200284600F029FD072C48
:100AF000EFD1BDF80200BDF80210C0B28CB200F018
:100B00001FFD200A00F01CFD05B0F0BD00D4300030
:100B100030B585B01A49AA238DF808308DF8093010
:100B20000D78184B002407204FF48042ADF80640A2
:100B30008DF80A008DF80B408DF80C509A6502A9CB
:100B4000655CBDF80600294680B2FFF7F7FD013469
:100B5000ADF80600284600F0F3FC052CEFD1BDF8F7
:100B60000620BDF80630D0B29CB200F0E9FC200AA5
:100B700000F0E6FC03494FF48040C86505B030BD85
:100B8000AE030020006000400309092B03DC0D4A7E
:100B900003F130019170A3F10A01052902D8094A35
:100BA0003733937000F00F00092803DC054B00F188
:100BB0003001D970A0F10A02052A02D80149373064
:100BC000C8707047020200202DE9F0418AB0424A05
:100BD00007AB10685168414C03C3906861681860A6
:100BE000206801AD03C53E4F2189386829807968A6
:100BF00004AB03C33889BA7AA67A188003209A70A6
:100C0000AE7000F049FC802000F06EFC002000F087
:100C10006BFC8046032000F053FC042000F03CFCF9
:100C2000802000F061FC002000F05EFC07460420FC
:100C300000F046FC052000F02FFCC02000F054FC22
:100C4000002000F051FC274D06464FF4804405205B
:100C500000F036FCAC650DF11B0515F8014F1CB119
:100C6000204600F06DFCF8E74046FFF78DFF1E4977
:100C7000085D013400F064FC042CF8D10DF103058B
:100C800015F8014F1CB1204600F05AFCF8E7384631
:100C9000FFF77AFF144B185D013400F051FC042C6F
:100CA000F8D10DF10F0515F8014F1CB1204600F0E9
:100CB00047FCF8E73046FFF767FF0B48005D01345B
:100CC00000F03EFC042CF8D106494FF48042CA657E
:100CD0000AB0BDE8F08100BF201A00002C1A000005
:100CE000371A00000060004002020020F0B595B005
:100CF000554B4FF48041054699651446A2B9534AB5
:100D00000FAB5168106803C352F8080F96799188A9
:100D10009E71186099800DF13B0616F8010F0028AE
:100D20004CD000F00DFCF8E7012A17D1484B0FA872
:100D300003F11007024659681868083303C2BB4222
:100D40001046F7D19E781988967011800DF13B06F8
:100D500016F8010F90B300F0F3FBF9E7022A15D162
:100D60003C4B0FA903F110070A461868596808336D
:100D700003C2BB421146F7D118880DF13B06108023
:100D800016F8010FD0B100F0DBFBF9E7032A15D10B
:100D9000314B0FAA03F1100718685968164603C6AD
:100DA0000833BB423246F7D1187830700DF13B065C
:100DB00016F8010F10B100F0C3FBF9E7B5F9000018
:100DC0006946FFF734FCB5F9020005A9FFF72FFCCF
:100DD000B5F904000AA9FFF72AFC0DF1FF3616F851
:100DE000010F10B100F0ACFBF9E7202000F0A8FBE8
:100DF0000DF1130616F8010F10B100F0A1FBF9E791
:100E0000202000F09DFB0DF1270616F8010F10B110
:100E100000F096FBF9E7022C05D00B4B4FF4804213
:100E2000DA6515B0F0BDB5F906000FA9FFF7FFFBB5
:100E3000202000F085FB0DF13B0414F8010F002881
:100E4000EBD000F07DFBF8E700600040421A0000A4
:100E5000511A0000641A0000761A0000034B0022A9
:100E60005A6059688142FCD3704700BF001000E00F
:100E7000034B1A6922F00400186130BF704700BFAD
:100E800000ED00E00B4B40F2014241F205004FF44F
:100E900080611A60586040F61542596141F6F97058
:100EA0000B21DA60986459655A6D42F00B00586561
:100EB000704700BF00C40040084B4FF4407240F63A
:100EC00005405A61D860196841F6F97041F0600236
:100ED00040F203311A6098645965704700C00040C1
:100EE000114B4FF080429A6280204FF088421421CB
:100EF00098631A6544F20200D96448F20101D8658A
:100F000099654FF482001A674FF40051C022DA67E6
:100F1000C3F89800C3F8A010D3F8202142F00400D1
:100F2000C3F82001704700BF00600040054B40221D
:100F30004FF47071A0201A60D961C3F80024C3F87F
:100F40001C04704700000140034B40F20C7200206B
:100F50001A605860704700BF00800840164B174A5F
:100F60001A60186A40F0040119621846C26A124BEE
:100F70001207FBD54FF4807140F2AE3099604C22DD
:100F8000D860B32105201A615961022298620421B8
:100F90007C205A62196458649A65094B0948DA68DA
:100FA00042F08071D960036841F6713143F001026B
:100FB00002600548C163704700800C402C060C009D
:100FC000F0ED00E0001000E000000C400A4B0822A9
:100FD0000A48C3F880211A60C16C41F00402084934
:100FE000C2640120C860074904221A60C8604FF437
:100FF00080601860704700BF00E100E000C0004062
:10100000000001400004014010B50C4CB4F9003060
:101010000BB900F075FA0A482288C069094B11B271
:101020005854013290B29B7801B29942208003D18A
:10103000BDE8104000F06ABA10BD00BFEA0300200E
:1010400000C00040C403002008B500F067FA00F0BB
:101050005DFA034B034900220A201A80887008BDFC
:10106000EA030020C403002008B500F063FA024B35
:101070001A68501D186008BDE403002030B5124BFB
:10108000124AD46914F0080F0DD153B1013BF7E7B0
:101090000823D3600C4B0D4AD06910F001010DD12B
:1010A00083B9FD210EE0002BFBD000238B42EFDA49
:1010B00050F82340054D0133AC61F7E7002BF0D029
:1010C000013BE8E748B230BD8096980000000C4034
:1010D000094B01221861DA60D96911F0060008D0C5
:1010E0004A0705D411F0020F0CBF0020FE2000E0DB
:1010F000FF2040B2704700BF00000C40F7B5AB487E
:10110000AB4C0168AB4A0E7825681670AA4F297857
:1011100000239E46ADF80430ADF806303B685170B0
:10112000A6481D7804689570A54F24783868D47057
:101130000788A44B76B21F700088070AA2485F7028
:10114000006807689F7007683F0ADF704788002EB5
:101150001F71C0789D4F58713868077883F807E091
:101160009F7101DC01231370042D01D910259570A6
:10117000052918BF032906D001F0FB02082A02D076
:101180008C4803214170032C8A4C01D90027E77059
:101190008F4E306800F03CFC86490822306800F031
:1011A0002FFCFFF7ADFAFFF70DF86078FFF75AF95B
:1011B000A078FFF7A0F9E078FFF7F4F8A078FFF740
:1011C000DAF9FFF703FFFFF7B1FEFFF7BDFE814B32
:1011D000814900250A221D808A707E487E4C07883E
:1011E000A6783DB2B54202D0FFF742FEF5E700F027
:1011F0009BF92378AA2BEAD16278AA2AE7D16D4D10
:10120000E1782878884240F027812379112B00F07B
:10121000998024D8042B7BD00CD8012B68D056D3CE
:10122000022B6CD0032BD2D16C48FFF73FF86B48F0
:1012300002216AE0062B75D071D3072B7FD0102BCB
:10124000C5D16079FFF797F9584A594F1168594D40
:1012500008783E68287033786B7063797EE0162BCF
:1012600000F0C88019D8132B00F09980C0F0858059
:10127000142B00F09880152BA9D1594E514D012700
:101280003068EF7100F0C4FB30682946082200F096
:10129000B7FB384600F0F6FA99E7222B00F0CB8036
:1012A0000DD8202B4C4D00F0B080212B8FD16979C7
:1012B0004C48FEF798FF4B4803210022C9E0232B3E
:1012C00000F0C180FF2B82D1FFF77EFC7FE76179C0
:1012D0004448FEF788FF61794348FEF7B5FF3F4871
:1012E000FEF7E4FF3F4840493C4A00F0A1F96EE7B1
:1012F00061793C48FEF777FF3A48002105E06179C3
:101300003948FEF7A1FF3848012100F025F95EE7D2
:101310003648FFF767F9354800F078FA57E7FFF7E6
:1013200049FB54E7324C30482146FFF713FA2E4868
:10133000012100F011F92078FFF794F847E7FFF753
:1013400077FB44E7194E6079FFF78CF832686079D3
:10135000194C11782768297068703B78174EAB706C
:1013600032681478EC701A4C206800F051FB206849
:101370002946082200F044FB29E76079FFF712F8BC
:101380000A4A0B4B11680B4D08781F6828700A4AEF
:101390003E7811686E7008786479A870E2E7607929
:1013A000FFF7FCF813E7FFF7B3FB10E72802002074
:1013B0001C020020AE0300200802002018020020BA
:1013C00020020020EC030020140200201002002064
:1013D00024020020EA030020C4030020BC030020F4
:1013E0000C020020B6030020F4030020E8030020D4
:1013F000AD030020244F254897F900302449254AA1
:1014000000F08CF900233B70E1E669791F48FEF794
:10141000EAFE69791E48FEF717FF1E48FEF746FFF1
:10142000032100221948FFF761FC1948032101221A
:10143000FFF75CFC0AE061791548FEF705FF1448E8
:101440000321012205E01348FEF730FF1148042173
:101450000222FFF74BFCBAE6E778802F7FF4B7AEA5
:101460002679002E7FF4B3AE61790848FEF7BBFE03
:1014700061790748FEF7E8FE0648FEF717FF024DC0
:10148000A4792C70A3E600BFAC030020B6030020B3
:10149000F4030020BC030020032804D107494FF4C3
:1014A0000040C8657047042801D1402202E00528A9
:1014B00003D18022014BC3F88020704700600040B8
:1014C000032804D107494FF4004088657047042879
:1014D00001D1402202E0052802D18022014BDA67C7
:1014E000704700BF00600040044B58631A699206C1
:1014F000FCD50248C169C8B2704700BF00C40040B3
:10150000014B01225A60704700000140024B022249
:1015100000205A605862704700000140014B0122D0
:101520009A61704700000140014B01225A607047E8
:1015300000040140014B01229A6170470004014000
:10154000044B1A695106FBD5586318698206FCD50D
:10155000704700BF00C0004030B587B00588AA239F
:1015600045F307228DF808308DF809308DF80D20ED
:101570004388828800248DF80C508DF80E3043F398
:101580000725022942F30723ADF806408DF80B40EA
:101590008DF80F508DF810208DF8113023491DD192
:1015A000C0884FF4804240F307258DF812008DF873
:1015B00013508A650E218DF80A1002ABE55CBDF868
:1015C0000600294680B2FFF7B9F80134ADF80600ED
:1015D0002846FFF7B5FF0C2CEFD115E04FF4804003
:1015E0000C2588658DF80A5002ABE55CBDF8062035
:1015F000294690B2FFF7A2F80134ADF8060028465C
:10160000FFF79EFF0A2CEFD1BDF80620BDF806407B
:10161000D0B2A4B2FFF794FF200AFFF791FF03486E
:101620004FF48041C16507B030BD00BF006000408D
:1016300030B589B0AA2305888DF808308DF80930B7
:1016400018238DF80A308DF80C5045F30723458890
:1016500080888DF80D308DF80E5045F3072340F348
:1016600007258DF80F308DF811500B884D888DF8B7
:101670001000898843F307208DF812308DF814503C
:1016800045F3072315888DF813008DF8153041F3C5
:10169000072045F307238DF81610518892888DF89E
:1016A00019301D4B00248DF817008DF818508DF857
:1016B0001A1041F3072042F307254FF48041ADF89B
:1016C00006408DF80B408DF81B008DF81C208DF81E
:1016D0001D50996502AAA55CBDF80600294680B296
:1016E000FFF72CF80134ADF806002846FFF728FF75
:1016F000162CEFD1BDF80610BDF80630C8B29CB26A
:10170000FFF71EFF200AFFF71BFF034A4FF480403C
:10171000D06509B030BD00BF0060004070B588B032
:10172000AA258DF808508DF8095019258DF80A5012
:1017300005888DF81E308DF80C5045F307258DF87F
:101740000D50458880888DF80E5045F307258DF89B
:101750000F508DF8100040F3072508888DF81150C0
:101760008DF8120040F30725488889888DF81350BA
:1017700040F307258DF814008DF8155041F307202C
:1017800015888DF81700508892888DF816101E4B1A
:1017900045F3072100248DF818508DF819108DF8A5
:1017A0001A0040F3072542F307214FF48040ADF8BB
:1017B00006408DF80B408DF81B508DF81C208DF8DD
:1017C0001D102646986502AD655DBDF806202946C8
:1017D00090B2FEF7B3FF0134ADF806002846FFF7DC
:1017E000AFFE172CEFD1BDF80610BDF8060084B28D
:1017F000C8B2FFF7A5FE200AFFF7A2FE024B4FF486
:101800008042DA6508B070BD0060004030B585B038
:10181000AA2305788DF808308DF809304078184BE8
:10182000002408214FF48042ADF806408DF80A10DC
:101830008DF80B408DF80C508DF80D009A6502ADB7
:10184000655DBDF80610013488B22946FEF776FFC3
:10185000ADF806002846FFF773FE062CEFD1BDF861
:101860000600BDF80620C0B294B2FFF769FE200A58
:10187000FFF766FE024B4FF48041D96505B030BDDD
:101880000060004018B9034B9968CB07FBD4024AAB
:1018900010607047008008400000104307488047F0
:1018A0000749084A084B9B1A40F30580043BC85877
:1018B000D0503FF7FBAF0548004700001519000066
:1018C0009C1A000000000020900300205501000039
:1018D000FEE7FEE7FEE7FEE7FEE7FEE7FEE7FEE7E0
:1018E000FEE7FEE7FEE7FEE7FEE7FEE7FEE7FEE7D0
:1018F000FEE7FEE7FEE7FEE7FEE7FEE7FEE7FEE7C0
:10190000FEE7FEE7FEE7FEE7FEE7FEE7FEE7FEE7AF
:10191000FEE700BF7047000010B5034C14B1AFF3F1
:10192000008010BD204610BD0000000008B5084B27
:1019300004461BB10021AFF3008001E000F00CF879
:1019400004480068816A01B18847204600F048F8E1
:10195000000000008C1A000070B5084B084C0025F0
:10196000E01A841003EB8406043D1CB172599047C1
:10197000013CF9E7BDE8704000F03AB88C03002064
:101980009003002038B50E4D0E4B0024E81A851048
:10199000AC4205D00B4951F8242090470134F7E7B9
:1019A00000F020F80849094A541AA5100024AC4256
:1019B00005D0054B53F8240080470134F7E738BDC4
:1019C0008803002088030020880300208C03002067
:1019D00082180346934202D003F8011BFAE77047CE
:1019E000FEE700BFF8B500BFF8BC08BC9E467047D4
:1019F000F8B500BFF8BC08BC9E4670470000000068
:101A000001B40248844601BC604700BF01030020C6
:101A100001B40248844601BC604700BF9102002027
:101A20000A0D4779726F2D49440A0D000A0D416372
:101A3000632D49440A0D000A0D4D61672D49440A82
:101A40000D000A0D4759524F4D45544552200A0D7D
:101A5000000A0D414343454C45524F4D45544552B4
:101A6000200A0D000A0D4D41474E45544F4D455437
:101A70004552200A0D000A0D54454D50455241541F
:101A8000555245200A0D0043000000002C020020A2
:041A90000000000052
:081A9400C0E6FF7F0100000025
:101A9C000201000005800F800A001B801E0014004C
:101AAC001180338036003C00398028002D8027803F
:101ABC002200638066006C00698078007D807780EE
:101ACC007200500055805F805A004B804E004400DD
:101ADC004180C380C600CC00C980D800DD80D7808F
:101AEC00D200F000F580FF80FA00EB80EE00E400FD
:101AFC00E180A000A580AF80AA00BB80BE00B4002E
:101B0C00B180938096009C00998088008D8087809E
:101B1C008200838186018C01898198019D81978146
:101B2C009201B001B581BF81BA01AB81AE01A401B4
:101B3C00A181E001E581EF81EA01FB81FE01F40165
:101B4C00F181D381D601DC01D981C801CD81C78156
:101B5C00C201400145814F814A015B815E01540104
:101B6C005181738176017C01798168016D81678176
:101B7C006201238126012C01298138013D813781A5
:101B8C003201100115811F811A010B810E01040114
:101B9C000181038306030C03098318031D83178338
:101BAC001203300335833F833A032B832E03240324
:101BBC002183600365836F836A037B837E037403D5
:101BCC007183538356035C03598348034D834783C6
:101BDC004203C003C583CF83CA03DB83DE03D40374
:101BEC00D183F383F603FC03F983E803ED83E783E6
:101BFC00E203A383A603AC03A983B803BD83B78315
:101C0C00B203900395839F839A038B838E03840383
:101C1C008183800285828F828A029B829E0294023B
:101C2C009182B382B602BC02B982A802AD82A782AD
:101C3C00A202E382E602EC02E982F802FD82F7825C
:101C4C00F202D002D582DF82DA02CB82CE02C4024B
:101C5C00C182438246024C02498258025D825782FD
:101C6C005202700275827F827A026B826E0264026B
:101C7C006182200225822F822A023B823E0234029C
:101C8C003182138216021C02198208020D8207820D
:101C9C00020230782020000002780000003800009A
:101CAC0006380000023800000378000001780000BC
:101CBC0000380000007800000078000000000000F0
:101CCC000000000000000000000000000000000008
:101CDC00000000000000000000000000871A000057
:101CEC0000000000000000000000000000000000E8
:101CFC0000000000000000000000000000000000D8
:101D0C0000000000000000000000000000000000C7
:101D1C0000000000000000000000000000000000B7
:101D2C00194B9A6842F00101996018610120D86042
:101D3C00DA69510705D59A68FF2022F001019960F4
:101D4C001FE0D9698A0705D5996821F001009860D0
:101D5C00FE2016E002200D4AD8600B4BD96911F019
:101D6C000100194602D012B1013AF6E72AB98B6884
:101D7C0023F001008860FD2003E09A6822F0010145
:101D8C00996040B2704700BF00000C4080969800EC
:101D9C002DE9F041164B80469868971040F00104ED
:101DAC009C600E460024BC4219DA08EB84052846D8
:101DBC0000F022F8A0B9ED05E90DC1F500723B1B4E
:101DCC0095089D42A8BF1D466419002DEBD03046E6
:101DDC00012100F019F818B90436013DF5E700208F
:101DEC00034940B28A6822F001038B60BDE8F081A0
:101DFC0000000C400000000001B40248844601BC05
:101E0C00604700BFD110000001B40248844601BCF9
:101E1C00604700BF7D10000025010000010100009B
:040000030000189D44
:00000001FF
