:1000000000100020E51800001B1900001D19000059
:100010001F19000021190000231900001919000000
:1000200019190000191900001919000025190000FC
:100030002719000019190000291900002B190000C8
:100040002D1900002F19000081100000451000003C
:100050003519000037190000391900003B1900005C
:100060003D1900003F190000A110000043190000D5
:100070004519000047190000491900004B190000FC
:100080004D1900004F1900005119000053190000CC
:100090005519000057190000591900000000000010
:1000A0000000000000000000000000000000000050
:1000B0000000000000000000000000000000000040
:1000C0000000000000000000000000000000000030
:1000D0000000000000000000000000000000000020
:1000E0000000000000000000000000000000000010
:1000F0000000000000000000000000000000000000
:1001000010B5054C237833B9044810B10448AFF357
:1001100000800121217010BDB0030020000000000C
:10012000D81A000008B5064B1BB106480649AFF3C4
:1001300000800648016811B1054A02B1904708BD28
:1001400000000000D81A0000B4030020B003002013
:1001500000000000154B002B08BF134B9D46A3F574
:10016000803A00218B460F461348144A121A01F0B8
:1001700053FC0F4B002B00D098470E4B002B00D0A8
:1001800098470020002104460D4600200C4900221B
:10019000002301F0E5FB01F019FC2046294600F0A0
:1001A000D7FF01F0E7FB00BF0000080000100020AF
:1001B0000000000000000000B0030020FC0500204B
:1001C000A119000008B500F0E7FE00F0A3FE00F062
:1001D00073FE00F08BFE00F0D5FE4BF68030BDE8DC
:1001E000084000F055BE70B5B2B0054602AC1AAE7C
:1001F000032001F0BFF9822001F0E4F9FF2001F0B3
:10020000E1F92070FF2001F0DDF96070FF2001F0BE
:10021000D9F9A070FF2001F0D5F9E070FF2001F0BE
:10022000D1F92071FF2001F0CDF96071032006346F
:1002300001F0B4F9B442DBD10123009302A82946AE
:100240006022062300F012FA32B070BD70B5B2B071
:10025000054602AC1AAE042001F08CF9822001F0B0
:10026000B1F9FF2001F0AEF92070FF2001F0AAF9EA
:100270006070FF2001F0A6F9A070FF2001F0A2F944
:10028000E070FF2001F09EF92071FF2001F09AF943
:1002900060710420063401F081F9B442DBD10023FF
:1002A000009302A829466022062300F0DFF932B04D
:1002B00070BD00002DE9F74F0446052001F05AF902
:1002C0004C2001F07FF92E2001F07CF9052001F08F
:1002D00065F9052001F04EF94C2001F073F92A2050
:1002E00001F070F9052001F059F92C4B197801291A
:1002F00008BF4FF4A07007D0042901D1284803E0BB
:1003000007290CBF2748284800F0C2FD052001F04E
:1003100031F9C22001F056F9FF2001F053F983466C
:10032000FF2001F04FF90246FF20019201F04AF947
:100330008146FF2001F046F98246FF2001F042F994
:100340000746FF2001F03EF98046FF2001F03AF910
:100350000546FF2001F036F90646052001F01EF99A
:100360000198CBF3C70B43B24FFA8AFAC9F3C7021D
:100370004FFA88F8C7F3470776B2C5F387054BEA0B
:10038000431142EA4A1947EAC81745EA861521800F
:10039000A4F80290A780E580BDE8FE8F0100002050
:1003A00000E2040000C40900006A180008B52D4AE4
:1003B0002D4B18B90121117002200EE0012803D144
:1003C000042010700E2008E0022803D107211170CC
:1003D0001A2002E02E21117052201870052001F021
:1003E000C9F84B2001F0EEF8012001F0EBF80520F0
:1003F00001F0D4F8052001F0BDF84C2001F0E2F83E
:10040000282001F0DFF8052001F0C8F8052001F0F0
:10041000B1F84E2001F0D6F8072001F0D3F80520FE
:1004200001F0BCF8052001F0A5F8512001F0CAF850
:100430000C4A107801F0C6F8052001F0AFF805204D
:1004400001F098F8522001F0BDF8074B187801F040
:10045000B9F8052001F0A2F84FF47A50BDE8084041
:1004600000F016BD010000200000002038B505286E
:1004700018BF0328044604D000F0FB03082B18BF64
:100480000324A1F108050420072D94BF0D460F2574
:1004900001F070F8142001F095F8B62001F092F800
:1004A000042001F07BF8042001F064F80F2001F033
:1004B00089F8204601F086F8042001F06FF8042046
:1004C00001F058F8102001F07DF8284601F07AF884
:1004D000042001F063F8042001F04CF8112001F031
:1004E00071F8002001F06EF8042001F057F80420A4
:1004F00001F040F8132001F065F8802001F062F867
:100500000420BDE8384001F049B838B5042894BF4C
:10051000044600240320072994BF0D46002501F05E
:1005200029F8142001F04EF8B62001F04BF8032012
:1005300001F034F8032001F01DF80F2001F042F81B
:10054000204601F03FF8032001F028F8102001F0C8
:1005500039F8284601F036F8032001F01FF803208F
:1005600001F008F8112001F02DF8002001F02AF820
:10057000032001F013F8032000F0FCFF132001F02A
:1005800021F8002001F01EF80320BDE8384001F0FA
:1005900005B810B5042894BF04460024032000F0D9
:1005A000E9FF0F2001F00EF8204601F00BF80320C0
:1005B000BDE8104000F0F2BF38B5064C064D207083
:1005C000288801F049FA288821460822BDE83840E9
:1005D00001F03ABACE0300204402002010B50446D0
:1005E000032000F0C7FF8F2000F0ECFFFF2000F099
:1005F000E9FF2070032000F0D1FF042000F0BAFFD3
:100600008F2000F0DFFFFF2000F0DCFF607004208F
:1006100000F0C4FF2378617803F0070001F00F02B7
:100620002070627010BD70B5002803DA2D2301F828
:10063000013B404200230A24B0FBF4F204FB120009
:100640003030C85401331046002AF4D15C10CB1866
:100650001A46A04207DA0D5C12F8016C0E5402F83B
:10066000015D0130F5E70021197070BD2DE9F74FEC
:100670009DF830401CB10025012C01D102E0042579
:100680002E4600E008260024A246A446A046A14625
:10069000E7189245019735DA071997F901B09A449E
:1006A0000BFA06FB1FFA8BFBA1F800B0045D44FABD
:1006B00005F444EA0B04A4B20C8024B2A14497F9D7
:1006C000034004FA06F4A4B24C8097F802B04BFA47
:1006D00005FB4BEA0404A4B24C8097F905B024B2A0
:1006E000A0440BFA06F41FFA84FBA1F804B03F798A
:1006F00047FA05F747EA0B04A7B23CB2A4448F803F
:10070000019CC5E792FBF3F30FFA89F90FFA88F819
:100710000FFA8CFC99FBF3F998FBF3F89CFBF3F0D0
:10072000A1F80090A1F802808880BDE8FE8F00004B
:1007300000231A0292B2082012F4004F18BF094990
:100740004FEA42021ABF51408AB292B2411E11F0E2
:10075000FF00F1D1044921F813200133B3F5807F64
:10076000E7D170470580FFFFFC030020044B81EABE
:10077000102133F8112082EA002080B2704700BFB8
:100780000200002070B58AB00024064604200D4601
:100790000294ADF80C400494ADF81440ADF8184044
:1007A000ADF81A40ADF81C40ADF82040ADF822403D
:1007B000ADF8244000F0DEFE8F2000F003FFFF20A4
:1007C00000F000FF2870042000F0E8FE2B7803F012
:1007D0000F002870042000F0CDFE0F2000F0F2FE84
:1007E000082000F0EFFE042000F0D8FE042000F006
:1007F000C1FE32207B4D00F0E5FE152000F0E2FE48
:10080000042000F0CBFE284600F042FB042000F05C
:10081000B1FE822000F0D6FEFF2000F0D3FE8DF85E
:100820000800FF2000F0CEFE8DF80900042000F043
:10083000B5FE042000F09EFE322000F0C3FE16201C
:1008400000F0C0FE042000F0A9FE284600F020FBC6
:10085000042000F08FFE842000F0B4FEFF2000F0A2
:10086000B1FE8DF80A00FF2000F0ACFE8DF80B0001
:10087000042000F093FE042000F07CFE322000F003
:10088000A1FE172000F09EFE042000F087FE2846FF
:1008900000F0FEFA042000F06DFE862000F092FECB
:1008A000FF2000F08FFE8DF80C00FF2000F08AFE84
:1008B0008DF80D00042000F071FE042000F05AFEB7
:1008C000322000F07FFE112000F07CFE042000F0BA
:1008D00065FE284600F0DCFA042000F04BFE822082
:1008E00000F070FEFF2000F06DFE8DF81000FF207C
:1008F00000F068FE8DF81100042000F04FFE042087
:1009000000F038FE322000F05DFE122000F05AFEAA
:10091000042000F043FE284600F0BAFA042000F05C
:1009200029FE842000F04EFEFF2000F04BFE8DF8E3
:100930001200FF2000F046FE8DF81300042000F0A6
:100940002DFE042000F016FE322000F03BFE1320A6
:1009500000F038FE042000F021FE284600F098FA4E
:10096000042000F007FE862000F02CFEFF2000F09F
:1009700029FE8DF81400FF2000F024FE8DF81500EC
:10098000042000F00BFE042000F0F4FD142000F021
:1009900019FEB62000F016FE042000F0FFFD02A8AC
:1009A00006A9062201230094FFF760FE04A808A907
:1009B000062201230094FFF759FEBDF82010BDF870
:1009C0001820BDF82200531ABDF81A1033800A1AF5
:1009D000BDF82430BDF81C007280C11AB1800AB085
:1009E00070BD00BF00D4300030B585B00720AA2309
:1009F00000248DF80B0003208DF808308DF80930A5
:100A0000ADF806408DF80A4000F0B4FDBC2000F0BF
:100A1000D9FDFF2000F0D6FD0546032000F0BEFD05
:100A2000C5F300118DF80C1002ABE55CBDF8062093
:100A3000294690B2FFF79AFE0134ADF80600284629
:100A400000F0F6FD052CEFD1BDF80600BDF806104C
:100A5000C0B28CB200F0ECFD200A00F0E9FD05B058
:100A600030BD0000F0B585B00920AA2300248DF820
:100A7000070005208DF804308DF80530ADF80240F0
:100A80008DF8064000F076FD4B2000F09BFD012024
:100A900000F098FD052000F081FD052000F06AFDC2
:100AA0004C2000F08FFD2F2000F08CFD052000F081
:100AB00075FD234800F0ECF9052000F05BFDC22035
:100AC00000F080FDFF2000F07DFD0746FF2000F0D4
:100AD00079FDFF2000F076FD0646FF2000F072FD54
:100AE000FF2000F06FFD0546052000F057FD07F0E0
:100AF000010706F0010605F001018DF808708DF878
:100B000009608DF80A1001ABE55CBDF802202946AA
:100B100090B2FFF72BFE0134ADF80200284600F03A
:100B200087FD072CEFD1BDF80200BDF80210C0B25E
:100B30008CB200F07DFD200A00F07AFD05B0F0BD1A
:100B400000D4300030B585B01A49AA238DF808309A
:100B50008DF809300D78184B002407204FF480429F
:100B6000ADF806408DF80A008DF80B408DF80C505A
:100B70009A6502A9655CBDF80600294680B2FFF7B8
:100B8000F5FD0134ADF80600284600F051FD052CB6
:100B9000EFD1BDF80620BDF80630D0B29CB200F00F
:100BA00047FD200A00F044FD03494FF48040C8652A
:100BB00005B030BDCE030020006000400309092BC2
:100BC00003DC0D4A03F130019170A3F10A010529FC
:100BD00002D8094A3733937000F00F00092803DC6C
:100BE000054B00F13001D970A0F10A02052A02D8A4
:100BF00001493730C8707047020200202DE9F041EA
:100C00008AB0424A07AB10685168414C03C39068F0
:100C100061681860206801AD03C53E4F21893868BE
:100C20002980796804AB03C33889BA7AA67A188018
:100C300003209A70AE7000F09DFC802000F0C2FC92
:100C4000002000F0BFFC8046032000F0A7FC042039
:100C500000F090FC802000F0B5FC002000F0B2FC19
:100C60000746042000F09AFC052000F083FCC02019
:100C700000F0A8FC002000F0A5FC274D06464FF42C
:100C80008044052000F08AFCAC650DF11B0515F8C9
:100C9000014F1CB1204600F0CBFCF8E74046FFF7BF
:100CA0008DFF1E49085D013400F0C2FC042CF8D110
:100CB0000DF1030515F8014F1CB1204600F0B8FCFA
:100CC000F8E73846FFF77AFF144B185D013400F05F
:100CD000AFFC042CF8D10DF10F0515F8014F1CB134
:100CE000204600F0A5FCF8E73046FFF767FF0B4809
:100CF000005D013400F09CFC042CF8D106494FF44F
:100D00008042CA650AB0BDE8F08100BF681A0000E1
:100D1000741A00007F1A00000060004002020020E8
:100D2000F0B595B0554B4FF4804105469965144692
:100D3000A2B9534A0FAB5168106803C352F8080FA9
:100D4000967991889E71186099800DF13B0616F88E
:100D5000010F00284CD000F06BFCF8E7012A17D1F6
:100D6000484B0FA803F1100702465968186808336A
:100D700003C2BB421046F7D19E7819889670118045
:100D80000DF13B0616F8010F90B300F051FCF9E7A6
:100D9000022A15D13C4B0FA903F110070A46186827
:100DA0005968083303C2BB421146F7D118880DF1C8
:100DB0003B06108016F8010FD0B100F039FCF9E7BE
:100DC000032A15D1314B0FAA03F11007186859688F
:100DD000164603C60833BB423246F7D11878307046
:100DE0000DF13B0616F8010F10B100F021FCF9E7F8
:100DF000B5F900006946FFF716FCB5F9020005A930
:100E0000FFF711FCB5F904000AA9FFF70CFC0DF17E
:100E1000FF3616F8010F10B100F00AFCF9E72020A8
:100E200000F006FC0DF1130616F8010F10B100F0EA
:100E3000FFFBF9E7202000F0FBFB0DF1270616F879
:100E4000010F10B100F0F4FBF9E7022C05D00B4BB9
:100E50004FF48042DA6515B0F0BDB5F906000FA970
:100E6000FFF7E1FB202000F0E3FB0DF13B0414F859
:100E7000010F0028EBD000F0DBFBF8E7006000403A
:100E80008A1A0000991A0000AC1A0000BE1A00006D
:100E9000034B00225A6059688142FCD3704700BF5F
:100EA000001000E0034B1A6922F00400186130BF03
:100EB000704700BF00ED00E00B4B40F2014241F2F1
:100EC00005004FF480611A60586040F61542596180
:100ED00041F6F9700B21DA60986459655A6D42F059
:100EE0000B005865704700BF00C40040084B4FF42A
:100EF000407240F605405A61D860196841F6F970B1
:100F000041F0600240F203311A60986459657047FD
:100F100000C00040114B4FF080429A6280204FF099
:100F20008842142198631A6544F20200D96448F299
:100F30000101D86599654FF482001A674FF400519A
:100F4000C022DA67C3F89800C3F8A010D3F82021B4
:100F500042F00400C3F82001704700BF0060004069
:100F6000064B402206491A604FF4A0704FF6FF72FC
:100F7000D861C3F80014C3F81C2470470000014076
:100F800080000005034B40F20C7200201A6058608C
:100F9000704700BF00800840164B174A1A60186A55
:100FA00040F0040119621846C26A124B1207FBD5C1
:100FB0004FF4807140F2AE3099604C22D860B3217A
:100FC00005201A6159610222986204217C205A622C
:100FD000196458649A65094B0948DA6842F08071CF
:100FE000D960036841F6713143F00102026005489F
:100FF000C163704700800C402C060C00F0ED00E04F
:10100000001000E000000C400A4B08220A48C3F818
:1010100080211A60C16C41F004020849C2640120B9
:10102000C860074904221A60C8604FF480601860E5
:10103000704700BF00E100E000C000400000014038
:101040000004014010B500F0CFFA00F0C7FA0949DA
:10105000094B0A88DC69094B10B21C54013290B26A
:101060009B78088001B2994203D1BDE8104000F09E
:10107000BBBA10BDF203002000C0004014020020E3
:1010800008B500F0B9FA00F0AFFA034B03490022AB
:101090001E201A80887008BDF20300201402002070
:1010A00008B5094B1869C3070CD5002000F0B0FA49
:1010B00000F0B8FA05490A88531C0B80BDE80840C7
:1010C00000F0A0BA08BD00BF00040140EE030020FC
:1010D00030B5124B124AD46914F0080F0DD153B138
:1010E000013BF7E70823D3600C4B0D4AD06910F0A1
:1010F00001010DD183B9FD210EE0002BFBD00023AF
:101100008B42EFDA50F82340054D0133AC61F7E72D
:10111000002BF0D0013BE8E748B230BD8096980044
:1011200000000C40094B01221861DA60D96911F006
:10113000060008D04A0705D411F0020F0CBF0020AA
:10114000FE2000E0FF2040B2704700BF00000C40CE
:10115000F7B5A94BA94A1968146891F800E0A849A5
:10116000A84D81F800E022782E684A70A64F3678A4
:101170003B688E70A54C1D782468CD702788A44BE1
:1011800000201F7024884FFA8EFC270AA14C5F7044
:101190002468ADF800002768ADF802009F7027684A
:1011A0003F0ADF70678884451F71E4789A4F5C714D
:1011B0003C682778D8719F7101DC01200870042EEB
:1011C00002D91020887001200C2A8D490AD0082AE3
:1011D00008D0052A06D0032A04D0032295424A707B
:1011E00002D805E0032D02D90026CE7000E040B100
:1011F0008A4D288800F030FC28888149082200F0B8
:1012000023FC7F4CFFF794FAFEF7DCFF60780F2198
:10121000FFF72CF90021A078FFF777F9E078FFF7C6
:10122000C5F8A078FFF7B5F9FFF7EEFEFFF798FED7
:10123000FFF7A8FE00F0E6F9794B7A4900271E2057
:101240001F808870764A774C1688A57837B2AF42EF
:1012500002D0FFF727FEF5E72378AA2BECD16078C0
:10126000AA28E9D1664EE1783378994240F011819D
:101270002179112900F092801ED8042973D00CD84E
:10128000012960D04FD3022964D00329D4D1664804
:10129000FFF710F86448022162E006296DD069D397
:1012A000072978D01029C7D16079A179FFF72DF9E6
:1012B000534F6679BE7087E0162900F0938018D8E6
:1012C000132900F0888079D3142900F0888015292B
:1012D000B2D1564E4E4F01243088FC7100F0BCFB59
:1012E00030883946082200F0AFFB204600F0EEFAC5
:1012F000A2E7222900F0BC800DD82029494C00F03B
:10130000A180212998D161794948FEF76CFF4848AE
:1013100003210022BAE0232900F0B280FF298BD1FB
:10132000FFF76CFC88E761794148FEF75CFF617963
:101330004048FEF78BFF3C48FEF7BCFF3C483D4968
:10134000394A0023DEE061793948FEF74CFF38481E
:10135000002105E061793748FEF778FF3548012123
:1013600000F072F968E73448FFF738F9324800F0C6
:1013700071FA61E7FFF738FB5EE7304D2D482946EB
:10138000FFF700FA01212B4800F05EF928780F21C1
:10139000FFF76CF850E7FFF765FB4DE760791F4FEB
:1013A000A179FFF763F861793888717000F054FB18
:1013B00038883146082200F047FB3DE76079FEF7A8
:1013C000F5FF0F4F6279FA70144D288800F044FB46
:1013D00028883946EEE76079FFF7EEF82CE7FFF74B
:1013E000B1FB29E71248012312490F4A00F098F98E
:1013F000134B002018701FE7480200203C02002019
:10140000CE03002008020020380200204002002005
:10141000F4030020340200201002002044020020C7
:10142000F203002014020020DC0300200C02002044
:10143000D6030020E8030020F0030020CD030020A5
:10144000CC03002061794248FEF7CDFE6179414826
:10145000FEF7FCFE4048FEF72DFF032100223C482A
:10146000FFF75EFC3B4803210122FFF759FC0AE02D
:1014700061793848FEF7EAFE36480321012205E08B
:101480003548FEF717FF344804210222FFF748FCD5
:10149000D2E6E278802A7FF4CFAE2079012825D0E9
:1014A00003D302287FF4C8AE26E061792848FEF70E
:1014B0009AFE61792748FEF7C9FE2748FEF7FAFE33
:1014C000264FA279264D274C00202A70386000F064
:1014D0009FF82088244D83B23B603E683104396018
:1014E0003A686C6AA0B210433860A3E600F090F846
:1014F0001C4B00271F809DE6012B06D1144815497F
:10150000154A012300F00CF996E64FF47A7058431F
:10151000012528270195E775144E591EF47D8C424C
:10152000ECD0019A002AE9D0114F00251E24019029
:101530003D80B4700E4E0D4A318895780FB2AF429F
:10154000EAD0019C002CE7D0019E711E0191F1E7C9
:10155000D6030020E8030020DC030020E403002081
:10156000CC030020EE030020000401401402002000
:10157000F2030020032804D107494FF40040C86556
:101580007047042801D1402202E0052803D18022BF
:10159000014BC3F88020704700600040032804D14D
:1015A00007494FF4004088657047042801D1402264
:1015B00002E0052802D18022014BDA67704700BFA4
:1015C00000600040044B58631A699206FCD502483B
:1015D000C169C8B2704700BF00C40040014B01227E
:1015E0005A60704700000140024B022200205A60FE
:1015F0005862704700000140014B01229A61704718
:1016000000000140014B01225A6070470004014074
:10161000034B022201285A6001D100205862704712
:1016200000040140014B01229A617047000401400F
:10163000044B1A695106FBD5586318698206FCD51C
:10164000704700BF00C0004030B587B00588AA23AE
:1016500045F307228DF808308DF809308DF80D20FC
:101660004388828800248DF80C508DF80E3043F3A7
:101670000725022942F30723ADF806408DF80B40F9
:101680008DF80F508DF810208DF8113023491DD1A1
:10169000C0884FF4804240F307258DF812008DF882
:1016A00013508A650E218DF80A1002ABE55CBDF877
:1016B0000600294680B2FFF759F80134ADF806005C
:1016C0002846FFF7B5FF0C2CEFD115E04FF4804012
:1016D0000C2588658DF80A5002ABE55CBDF8062044
:1016E000294690B2FFF742F80134ADF806002846CB
:1016F000FFF79EFF0A2CEFD1BDF80620BDF806408B
:10170000D0B2A4B2FFF794FF200AFFF791FF03487D
:101710004FF48041C16507B030BD00BF006000409C
:1017200070B588B000242546ADF802408DF807500A
:10173000AA2405888DF804408DF8054018248DF8FA
:1017400006408DF8085045F30724458880888DF8B9
:10175000094045F307248DF80A508DF80B4040F3FB
:1017600007250C888DF80D504D8889888DF80C0060
:1017700044F307208DF80E408DF80F0045F3072441
:1017800041F307208DF810508DF8121015885188FC
:1017900092888DF811408DF8130045F307248DF8D9
:1017A000145041F3072042F30725012B8DF8154013
:1017B0008DF816108DF817008DF818208DF8195037
:1017C00019D1204C204D1E23204821788DF8063059
:1017D0002B6802788DF81A101C0A190C180E8DF857
:1017E0001B208DF81C308DF81D408DF81E108DF8D3
:1017F0001F001C2500E01625154B4FF480429A650A
:101800000024AC42BDF802100CDA01AEA65D88B22D
:101810003146FEF7ABFFADF802003046FFF708FF98
:101820000134EEE7BDF80240C8B2A4B2FFF700FFF2
:10183000200AFFF7FDFE064A4FF48040D06508B04D
:1018400070BD00BFCC030020E4030020CE030020C5
:101850000060004030B585B0AA2305788DF80830C7
:101860008DF809304078184B002408214FF480424D
:10187000ADF806408DF80A108DF80B408DF80C502D
:101880008DF80D009A6502AD655DBDF80610013456
:1018900088B22946FEF76AFFADF806002846FFF732
:1018A000C7FE062CEFD1BDF80600BDF80620C0B279
:1018B00094B2FFF7BDFE200AFFF7BAFE024B4FF4C9
:1018C0008041D96505B030BD0060004018B9034BB8
:1018D0009968CB07FBD4024A10607047008008402B
:1018E00000001043074880470749084A084B9B1AE5
:1018F00040F30580043BC858D0503FF7FBAF054884
:10190000004700005D190000E41A000000000020FC
:10191000B003002055010000FEE7FEE7FEE7FEE70A
:10192000FEE7FEE7FEE7FEE7FEE7FEE7FEE7FEE78F
:10193000FEE7FEE7FEE7FEE7FEE7FEE7FEE7FEE77F
:10194000FEE7FEE7FEE7FEE7FEE7FEE7FEE7FEE76F
:10195000FEE7FEE7FEE7FEE7FEE700BF7047000098
:1019600010B5034C14B1AFF3008010BD204610BD7C
:101970000000000008B5084B04461BB10021AFF37E
:10198000008001E000F00CF804480068816A01B1B1
:101990008847204600F048F800000000D41A0000F4
:1019A00070B5084B084C0025E01A841003EB840640
:1019B000043D1CB172599047013CF9E7BDE8704005
:1019C00000F03AB8AC030020B003002038B50E4D4B
:1019D0000E4B0024E81A8510AC4205D00B4951F893
:1019E000242090470134F7E700F020F80849094A1D
:1019F000541AA5100024AC4205D0054B53F824001E
:101A000080470134F7E738BDA8030020A803002071
:101A1000A8030020AC03002082180346934202D0A2
:101A200003F8011BFAE77047FEE700BFF8B500BFF7
:101A3000F8BC08BC9E467047F8B500BFF8BC08BCAF
:101A40009E4670470000000001B40248844601BC75
:101A5000604700BF2103002001B40248844601BC56
:101A6000604700BFB10200200A0D4779726F2D490F
:101A7000440A0D000A0D4163632D49440A0D000A12
:101A80000D4D61672D49440A0D000A0D4759524F0B
:101A90004D45544552200A0D000A0D414343454C23
:101AA00045524F4D45544552200A0D000A0D4D41F7
:101AB000474E45544F4D45544552200A0D000A0DDE
:101AC00054454D5045524154555245200A0D00434E
:0C1AD000000000004C020020000000009C
:081ADC0078E6FF7F0100000025
:101AE4000201000005800F800A001B801E00140004
:101AF4001180338036003C00398028002D802780F7
:101B04002200638066006C00698078007D807780A5
:101B14007200500055805F805A004B804E00440094
:101B24004180C380C600CC00C980D800DD80D78046
:101B3400D200F000F580FF80FA00EB80EE00E400B4
:101B4400E180A000A580AF80AA00BB80BE00B400E5
:101B5400B180938096009C00998088008D80878056
:101B64008200838186018C01898198019D819781FE
:101B74009201B001B581BF81BA01AB81AE01A4016C
:101B8400A181E001E581EF81EA01FB81FE01F4011D
:101B9400F181D381D601DC01D981C801CD81C7810E
:101BA400C201400145814F814A015B815E015401BC
:101BB4005181738176017C01798168016D8167812E
:101BC4006201238126012C01298138013D8137815D
:101BD4003201100115811F811A010B810E010401CC
:101BE4000181038306030C03098318031D831783F0
:101BF4001203300335833F833A032B832E032403DC
:101C04002183600365836F836A037B837E0374038C
:101C14007183538356035C03598348034D8347837D
:101C24004203C003C583CF83CA03DB83DE03D4032B
:101C3400D183F383F603FC03F983E803ED83E7839D
:101C4400E203A383A603AC03A983B803BD83B783CC
:101C5400B203900395839F839A038B838E0384033B
:101C64008183800285828F828A029B829E029402F3
:101C74009182B382B602BC02B982A802AD82A78265
:101C8400A202E382E602EC02E982F802FD82F78214
:101C9400F202D002D582DF82DA02CB82CE02C40203
:101CA400C182438246024C02498258025D825782B5
:101CB4005202700275827F827A026B826E02640223
:101CC4006182200225822F822A023B823E02340254
:101CD4003182138216021C02198208020D820782C5
:101CE4000202307820200000027800000038000052
:101CF40006380000000000000000000000000000A2
:101D040000000000000000000000002800000000A7
:101D14000000000002380000037800000178000091
:101D24000038000000780000007800000000000087
:101D3400000000000000000000000000000000009F
:101D4400000000000000000000000000CF1A0000A6
:101D5400000000000000000000000000000000007F
:101D6400000000000000000000000000000000006F
:101D7400000000000000000000000000000000005F
:101D8400000000000000000000000000000000004F
:101D9400194B9A6842F00101996018610120D860DA
:101DA400DA69510705D59A68FF2022F0010199608C
:101DB4001FE0D9698A0705D5996821F00100986068
:101DC400FE2016E002200D4AD8600B4BD96911F0B1
:101DD4000100194602D012B1013AF6E72AB98B681C
:101DE40023F001008860FD2003E09A6822F00101DD
:101DF400996040B2704700BF00000C408096980084
:101E04002DE9F041164B80469868971040F0010484
:101E14009C600E460024BC4219DA08EB840528466F
:101E240000F022F8A0B9ED05E90DC1F500723B1BE5
:101E340095089D42A8BF1D466419002DEBD030467D
:101E4400012100F019F818B90436013DF5E7002026
:101E5400034940B28A6822F001038B60BDE8F08137
:101E640000000C400000000001B40248844601BC9C
:101E7400604700BF2511000001B40248844601BC3C
:101E8400604700BFD11000002501000001010000DF
:04000003000018E5FC
:00000001FF
