:1000000000100020151800004B1800004D180000CB
:100010004F18000051180000531800004918000044
:100020004918000049180000491800005518000040
:100030005718000049180000591800005B1800000C
:100040005D1800005F18000021100000E50F00009F
:100050006518000067180000691800006B180000A0
:100060006D1800006F1800004110000073180000A8
:100070007518000077180000791800007B18000040
:100080007D1800007F180000811800008318000010
:100090008518000087180000891800000000000083
:1000A0000000000000000000000000000000000050
:1000B0000000000000000000000000000000000040
:1000C0000000000000000000000000000000000030
:1000D0000000000000000000000000000000000020
:1000E0000000000000000000000000000000000010
:1000F0000000000000000000000000000000000000
:1001000010B5054C237833B9044810B10448AFF357
:1001100000800121217010BDB0030020000000000C
:10012000081A000008B5064B1BB106480649AFF394
:1001300000800648016811B1054A02B1904708BD28
:1001400000000000081A0000B4030020B0030020E3
:1001500000000000154B002B08BF134B9D46A3F574
:10016000803A00218B460F461348144A121A01F0B8
:10017000EBFB0F4B002B00D098470E4B002B00D011
:1001800098470020002104460D4600200C4900221B
:10019000002301F07DFB01F0B1FB2046294600F071
:1001A00099FF01F07FFB00BF000008000010002055
:1001B0000000000000000000B0030020FC0500204B
:1001C000D118000008B500F0B7FE00F077FE00F08F
:1001D00047FE00F05FFE00F0A5FE4BF68030BDE864
:1001E000084000F029BE70B5B0B005466C4618AEA8
:1001F000032001F061F9822001F086F9FF2001F06F
:1002000083F92070FF2001F07FF96070FF2001F07A
:100210007BF9A070FF2001F077F9E070FF2001F07A
:1002200073F92071FF2001F06FF96071032006342B
:1002300001F056F9B442DBD1684629466022062314
:1002400000F006FA30B070BD70B5B0B005466C462F
:1002500018AE042001F030F9822001F055F9FF209A
:1002600001F052F92070FF2001F04EF96070FF207C
:1002700001F04AF9A070FF2001F046F9E070FF207C
:1002800001F042F92071FF2001F03EF96071042075
:10029000063401F025F9B442DBD1684629466022D4
:1002A000062300F0D5F930B070BD00002DE9F74FFE
:1002B0000446052001F000F94C2001F025F92E201C
:1002C00001F022F9052001F00BF9052001F0F4F806
:1002D0004C2001F019F92A2001F016F9052001F04F
:1002E000FFF82C4B1978012908BF4FF4A07007D0F4
:1002F000042901D1284803E007290CBF27482848D2
:1003000000F09AFD052001F0D7F8C22001F0FCF8BA
:10031000FF2001F0F9F88346FF2001F0F5F80246CE
:10032000FF20019201F0F0F88146FF2001F0ECF887
:100330008246FF2001F0E8F80746FF2001F0E4F8CC
:100340008046FF2001F0E0F80546FF2001F0DCF8D0
:100350000646052001F0C4F80198CBF3C70B43B261
:100360004FFA8AFAC9F3C7024FFA88F8C7F347076A
:1003700076B2C5F387054BEA431142EA4A1947EAC8
:10038000C81745EA86152180A4F80290A780E58069
:10039000BDE8FE8F0100002000E2040000C4090057
:1003A000006A180008B52D4A2D4B18B901211170AB
:1003B00002200EE0012803D1042010700E2008E076
:1003C000022803D1072111701A2002E02E2111709A
:1003D00052201870052001F06FF84B2001F094F8BE
:1003E000012001F091F8052001F07AF8052001F0D4
:1003F00063F84C2001F088F8282001F085F80520EA
:1004000001F06EF8052001F057F84E2001F07CF85D
:10041000072001F079F8052001F062F8052001F0CD
:100420004BF8512001F070F80C4A107801F06CF88C
:10043000052001F055F8052001F03EF8522001F0AA
:1004400063F8074B187801F05FF8052001F048F8D1
:100450004FF47A50BDE8084000F0EEBC01000020E7
:100460000000002010B5052818BF0328044604D05A
:1004700000F0FB03082B18BF0324042001F01CF834
:10048000142001F041F8B62001F03EF8042001F0FC
:1004900027F8042001F010F80F2001F035F820466D
:1004A00001F032F8042001F01BF8042001F004F8F8
:1004B000102001F029F80F2001F026F8042001F0A7
:1004C0000FF8042000F0F8FF112001F01DF80020C3
:1004D00001F01AF8042001F003F8042000F0ECFF0A
:1004E000132001F011F8802001F00EF80420BDE87F
:1004F000104000F0F5BF10B5042894BF0446002456
:10050000032000F0D9FF142000F0FEFFB62000F019
:10051000FBFF032000F0E4FF032000F0CDFF0F20DD
:1005200000F0F2FF204600F0EFFF032000F0D8FFBC
:10053000102000F0E9FF022000F0E6FF032000F0A9
:10054000CFFF032000F0B8FF112000F0DDFF0020F6
:1005500000F0DAFF032000F0C3FF032000F0ACFF3F
:10056000132000F0D1FF002000F0CEFF0320BDE8F3
:10057000104000F0B5BF10B5042894BF0446002415
:10058000032000F099FF0F2000F0BEFF204600F08E
:10059000BBFF0320BDE8104000F0A2BF38B5064CF9
:1005A000064D2070288801F0EFF92888214608229E
:1005B000BDE8384001F0E0B9CE030020440200203D
:1005C00010B50446032000F077FF8F2000F09CFF59
:1005D000FF2000F099FF2070032000F081FF04202D
:1005E00000F06AFF8F2000F08FFFFF2000F08CFFEB
:1005F0006070042000F074FF2378617803F0070036
:1006000001F00F022070627010BD70B5002803DA8F
:100610002D2301F8013B404200230A24B0FBF4F2F1
:1006200004FB12003030C85401331046002AF4D1C4
:100630005C10CB181A46A04207DA0D5C12F8016C68
:100640000E5402F8015D0130F5E70021197070BD0C
:100650002DE9F0470024A04626462746A4469045AB
:1006600004EB030928DA051995F901A098444FEA2B
:100670000A1A1FFA8AFAA1F800A0045D4AEA1414C3
:100680000C8024B2A44495F903402401A4B24C8008
:1006900095F802A044EA1A144C8024B23F1995F947
:1006A00005402401A4B28C802D7944EA15148C8075
:1006B00024B236194C46D2E792FBF3F20FFA8CFCC7
:1006C0003FB236B29CFBF2F097FBF2F796FBF2F3E7
:1006D00008804F808B80BDE8F087000000231A025D
:1006E00092B2082012F4004F18BF09494FEA4202A3
:1006F0001ABF51408AB292B2411E11F0FF00F1D1EF
:10070000044921F813200133B3F5807FE7D1704706
:100710000580FFFFFC030020044B81EA102133F821
:10072000112082EA002080B2704700BF0200002042
:1007300030B589B00023054604200093ADF804309D
:100740000293ADF80C30ADF81030ADF81230ADF8C2
:100750001430ADF81830ADF81A30ADF81C300C4636
:1007600000F0AAFE8F2000F0CFFEFF2000F0CCFEAC
:100770002070042000F0B4FE207800F00F012170FA
:10078000042000F099FE0F2000F0BEFE082000F0CB
:10079000BBFE042000F0A4FE042000F08DFE3220F9
:1007A0007A4C00F0B1FE152000F0AEFE042000F0FF
:1007B00097FE204600F040FB042000F07DFE8220E2
:1007C00000F0A2FEFF2000F09FFE8DF80000FF2049
:1007D00000F09AFE8DF80100042000F081FE042054
:1007E00000F06AFE322000F08FFE162000F08CFE32
:1007F000042000F075FE204600F01EFB042000F0EF
:100800005BFE842000F080FEFF2000F07DFE8DF86E
:100810000200FF2000F078FE8DF80300042000F0B5
:100820005FFE042000F048FE322000F06DFE17202D
:1008300000F06AFE042000F053FE204600F0FCFAAF
:10084000042000F039FE862000F05EFEFF2000F05C
:100850005BFE8DF80400FF2000F056FE8DF80500C9
:10086000042000F03DFE042000F026FE322000F0BF
:100870004BFE112000F048FE042000F031FE20461F
:1008800000F0DAFA042000F017FE822000F03CFEAF
:10089000FF2000F039FE8DF80800FF2000F034FE44
:1008A0008DF80900042000F01BFE042000F004FE77
:1008B000322000F029FE122000F026FE042000F075
:1008C0000FFE204600F0B8FA042000F0F5FD842069
:1008D00000F01AFEFF2000F017FE8DF80A00FF203E
:1008E00000F012FE8DF80B00042000F0F9FD04204A
:1008F00000F0E2FD322000F007FE132000F004FEBD
:10090000042000F0EDFD204600F096FA042000F0EF
:10091000D3FD862000F0F8FDFF2000F0F5FD8DF8F6
:100920000C00FF2000F0F0FD8DF80D00042000F019
:10093000D7FD042000F0C0FD142000F0E5FDB62036
:1009400000F0E2FD042000F0CBFD684604A9062279
:100950000123FFF77DFE02A806A906220123FFF767
:1009600077FEBDF81830BDF81020BDF81A10D01A67
:10097000BDF8123028805A1ABDF81C00BDF81410BA
:100980006A800B1AAB8009B030BD00BF00D43000C4
:1009900030B585B00720AA2300248DF80B00032072
:1009A0008DF808308DF80930ADF806408DF80A4012
:1009B00000F082FDBC2000F0A7FDFF2000F0A4FDA8
:1009C0000546032000F08CFDC5F300118DF80C10D6
:1009D00002ABE55CBDF80620294690B2FFF79CFE0D
:1009E0000134ADF80600284600F0BAFD052CEFD121
:1009F000BDF80600BDF80610C0B28CB200F0B0FD24
:100A0000200A00F0ADFD05B030BD0000F0B585B0A6
:100A10000920AA2300248DF8070005208DF8043052
:100A20008DF80530ADF802408DF8064000F044FD29
:100A30004B2000F069FD012000F066FD052000F06C
:100A40004FFD052000F038FD4C2000F05DFD2F200B
:100A500000F05AFD052000F043FD234800F0ECF9BA
:100A6000052000F029FDC22000F04EFDFF2000F01F
:100A70004BFD0746FF2000F047FDFF2000F044FD3E
:100A80000646FF2000F040FDFF2000F03DFD05463A
:100A9000052000F025FD07F0010706F0010605F02E
:100AA00001018DF808708DF809608DF80A1001AB0E
:100AB000E55CBDF80220294690B2FFF72DFE013417
:100AC000ADF80200284600F04BFD072CEFD1BDF831
:100AD0000200BDF80210C0B28CB200F041FD200A45
:100AE00000F03EFD05B0F0BD00D4300030B585B05B
:100AF0001A49AA238DF808308DF809300D78184B63
:100B0000002407204FF48042ADF806408DF80A001B
:100B10008DF80B408DF80C509A6502A9655CBDF804
:100B20000600294680B2FFF7F7FD0134ADF8060054
:100B3000284600F015FD052CEFD1BDF80620BDF8C4
:100B40000630D0B29CB200F00BFD200A00F008FD88
:100B500003494FF48040C86505B030BDCE03002086
:100B6000006000400309092B03DC0D4A03F130014A
:100B70009170A3F10A01052902D8094A373393700D
:100B800000F00F00092803DC054B00F13001D9709B
:100B9000A0F10A02052A02D801493730C87070470F
:100BA000020200202DE9F0418AB0424A07AB1068EA
:100BB0005168414C03C3906861681860206801ADBA
:100BC00003C53E4F218938682980796804AB03C387
:100BD0003889BA7AA67A188003209A70AE7000F02D
:100BE0006BFC802000F090FC002000F08DFC804623
:100BF000032000F075FC042000F05EFC802000F073
:100C000083FC002000F080FC0746042000F068FC14
:100C1000052000F051FCC02000F076FC002000F020
:100C200073FC274D06464FF48044052000F058FC25
:100C3000AC650DF11B0515F8014F1CB1204600F005
:100C40008FFCF8E74046FFF78DFF1E49085D013431
:100C500000F086FC042CF8D10DF1030515F8014FC6
:100C60001CB1204600F07CFCF8E73846FFF77AFF1D
:100C7000144B185D013400F073FC042CF8D10DF115
:100C80000F0515F8014F1CB1204600F069FCF8E78C
:100C90003046FFF767FF0B48005D013400F060FC51
:100CA000042CF8D106494FF48042CA650AB0BDE869
:100CB000F08100BF98190000A4190000AF190000CE
:100CC0000060004002020020F0B595B0554B4FF493
:100CD0008041054699651446A2B9534A0FAB516845
:100CE000106803C352F8080F967991889E711860B6
:100CF00099800DF13B0616F8010F00284CD000F04A
:100D00002FFCF8E7012A17D1484B0FA803F1100771
:100D1000024659681868083303C2BB421046F7D12F
:100D20009E781988967011800DF13B0616F8010F18
:100D300090B300F015FCF9E7022A15D13C4B0FA93E
:100D400003F110070A4618685968083303C2BB420A
:100D50001146F7D118880DF13B06108016F8010FE7
:100D6000D0B100F0FDFBF9E7032A15D1314B0FAAF2
:100D700003F1100718685968164603C60833BB42CA
:100D80003246F7D1187830700DF13B0616F8010F96
:100D900010B100F0E5FBF9E7B5F900006946FFF78F
:100DA00034FCB5F9020005A9FFF72FFCB5F90400E2
:100DB0000AA9FFF72AFC0DF1FF3616F8010F10B152
:100DC00000F0CEFBF9E7202000F0CAFB0DF113067E
:100DD00016F8010F10B100F0C3FBF9E7202000F076
:100DE000BFFB0DF1270616F8010F10B100F0B8FB9C
:100DF000F9E7022C05D00B4B4FF48042DA6515B0B1
:100E0000F0BDB5F906000FA9FFF7FFFB202000F0A9
:100E1000A7FB0DF13B0414F8010F0028EBD000F004
:100E20009FFBF8E700600040BA190000C9190000F4
:100E3000DC190000EE190000034B00225A605968CB
:100E40008142FCD3704700BF001000E0034B1A69D9
:100E500022F00400186130BF704700BF00ED00E0D1
:100E60000B4B40F2014241F205004FF480611A60E1
:100E7000586040F61542596141F6F9700B21DA606D
:100E8000986459655A6D42F00B005865704700BF71
:100E900000C40040084B4FF4407240F605405A61D0
:100EA000D860196841F6F97041F0600240F20331F0
:100EB0001A6098645965704700C00040114B4FF0AC
:100EC00080429A6280204FF08842142198631A650C
:100ED00044F20200D96448F20101D86599654FF4E3
:100EE00082001A674FF40051C022DA67C3F89800F5
:100EF000C3F8A010D3F8202142F00400C3F8200169
:100F0000704700BF00600040054B40224FF4A071C5
:100F1000A0201A60D961C3F80024C3F81C047047EC
:100F200000000140034B40F20C7200201A60586030
:100F3000704700BF00800840164B174A1A60186AB5
:100F400040F0040119621846C26A124B1207FBD521
:100F50004FF4807140F2AE3099604C22D860B321DA
:100F600005201A6159610222986204217C205A628C
:100F7000196458649A65094B0948DA6842F080712F
:100F8000D960036841F6713143F0010202600548FF
:100F9000C163704700800C402C060C00F0ED00E0AF
:100FA000001000E000000C400A4B08220A48C3F879
:100FB00080211A60C16C41F004020849C26401201A
:100FC000C860074904221A60C8604FF48060186046
:100FD000704700BF00E100E000C000400000014099
:100FE0000004014010B500F0A1FA00F099FA094997
:100FF000094B0A88DC69094B10B21C54013290B2CB
:101000009B78088001B2994203D1BDE8104000F0FE
:101010008DBA10BDF203002000C000401402002071
:1010200008B500F08BFA00F081FA034B0349002267
:101030001E201A80887008BDF203002014020020D0
:1010400008B500F087FA024B1A68501D186008BDF9
:10105000EC03002030B5124B124AD46914F0080F8B
:101060000DD153B1013BF7E70823D3600C4B0D4A78
:10107000D06910F001010DD183B9FD210EE0002BE4
:10108000FBD000238B42EFDA50F82340054D0133AB
:10109000AC61F7E7002BF0D0013BE8E748B230BD88
:1010A0008096980000000C40094B01221861DA601C
:1010B000D96911F0060008D04A0705D411F0020FD3
:1010C0000CBF0020FE2000E0FF2040B2704700BFB0
:1010D00000000C40F7B5A64BA64A1968146891F8B1
:1010E00000E0A549A54D81F800E022782E684A70FD
:1010F000A34F36783B688E70A24C1D782468CD7063
:101100002788A14B00201F7024884FFA8EFC270AE5
:101110009E4C5F702468ADF800002768ADF80200AF
:101120009F7027683F0ADF70678884451F71E478E5
:10113000974F5C713C682778D8719F7101DC012062
:101140000870042E02D91020887001200C2A8A49C8
:101150000AD0082A08D0052A06D0032A04D0032280
:1011600095424A7002D805E0032D02D90026CE70C0
:1011700000E040B1874D288800F006FC28887E49B1
:10118000082200F0F9FB7C4CFFF7A8FAFFF71AF8E9
:101190006078FFF767F9A078FFF7ADF9E078FFF71F
:1011A00001F9A078FFF7E7F9FFF7FEFEFFF7ACFEC5
:1011B000FFF7B8FE00F0C8F9774B784900271E20EA
:1011C0001F808870744A754C1688A57837B2AF4274
:1011D00002D0FFF73BFEF5E72378AA2BECD160782D
:1011E000AA28E9D1644EE1783378994240F00B8126
:1011F0002779112F00F090801DD8042F72D00CD8C1
:10120000012F5FD04ED3022F63D0032FD4D1644877
:10121000FFF74CF86248022161E0062F6CD068D3DA
:10122000072F76D0102FC7D16079FFF7A4F9524E5F
:101230006079B07085E0162F00F0918018D8132FD8
:1012400000F0868077D3142F00F08680152FB3D15D
:10125000544F4D4D01243888EC7100F095FB3888CF
:101260002946082200F088FB204600F0C7FAA3E7D1
:10127000222F00F0B7800DD8202F484C00F09C8022
:10128000212F99D161794848FEF7ADFF46480321E7
:101290000022B5E0232F00F0AD80FF2F8CD1FFF7A7
:1012A00081FC89E761794048FEF79DFF61793F48FD
:1012B000FEF7CAFF3A48FEF7F9FF3B483B49384A78
:1012C0000023C5E061793848FEF78DFF36480021DC
:1012D00005E061793548FEF7B7FF3448012100F099
:1012E0004BF969E73248FFF76BF9314800F04AFAE9
:1012F00062E7FFF74DFB5FE72E4E2C483146FFF7C4
:1013000017FA2A48012100F037F93078FFF7AAF8D8
:1013100052E7FFF77BFB4FE760791E4FFFF7A2F81C
:1013200061793888717000F02FFB388831460822C7
:1013300000F022FB40E76079FFF734F80E4E637946
:10134000F370144D288800F01FFB28883146EEE723
:101350006079FFF723F92FE7FFF7C8FB2CE7134964
:1013600011480F4A012300F073F9002163E000BF28
:10137000480200203C020020CE030020080200208A
:101380003802002040020020F40300203402002034
:101390001002002044020020F2030020140200206A
:1013A000DC0300200C020020D6030020E403002010
:1013B000F0030020CD03002061793748FEF713FFCA
:1013C00061793648FEF740FF3548FEF76FFF03218D
:1013D00000223148FFF778FC304803210122FFF753
:1013E00073FC0AE061792D48FEF72EFF2B4803219C
:1013F000012205E02A48FEF759FF2948042102226C
:10140000FFF762FCD8E6E278802A7FF4D5AE257932
:10141000012D13D003D3022D7FF4CEAE12E06179FB
:101420001D48FEF7E0FE61791C48FEF70DFF1C48E1
:10143000FEF73CFFA1791B4A1170BDE61A4D002250
:101440002A60B9E6032B06D113481449144A012334
:1014500000F0FEF8B0E6012728200197E075134C54
:10146000591EE67D8E42EFD0019A002AECD0104D35
:10147000104800271E2601950780A6700D4C0B4AC8
:10148000218895780FB2AF42E9D001980028E6D0C4
:10149000019E741E0194F1E7D6030020E4030020AE
:1014A000DC030020CC030020EC0300201402002009
:1014B00080969800F2030020032804D107494FF4D6
:1014C0000040C8657047042801D1402202E0052889
:1014D00003D18022014BC3F8802070470060004098
:1014E000032804D107494FF4004088657047042859
:1014F00001D1402202E0052802D18022014BDA67A7
:10150000704700BF00600040044B58631A699206A0
:10151000FCD50248C169C8B2704700BF00C4004092
:10152000014B01225A60704700000140024B022229
:1015300000205A605862704700000140014B0122B0
:101540009A61704700000140014B01225A607047C8
:1015500000040140014B01229A61704700040140E0
:10156000044B1A695106FBD5586318698206FCD5ED
:10157000704700BF00C0004030B587B00588AA237F
:1015800045F307228DF808308DF809308DF80D20CD
:101590004388828800248DF80C508DF80E3043F378
:1015A0000725022942F30723ADF806408DF80B40CA
:1015B0008DF80F508DF810208DF8113023491DD172
:1015C000C0884FF4804240F307258DF812008DF853
:1015D00013508A650E218DF80A1002ABE55CBDF848
:1015E0000600294680B2FFF797F80134ADF80600EF
:1015F0002846FFF7B5FF0C2CEFD115E04FF48040E3
:101600000C2588658DF80A5002ABE55CBDF8062014
:10161000294690B2FFF780F80134ADF8060028465D
:10162000FFF79EFF0A2CEFD1BDF80620BDF806405B
:10163000D0B2A4B2FFF794FF200AFFF791FF03484E
:101640004FF48041C16507B030BD00BF006000406D
:1016500070B588B000242546ADF802408DF80750DB
:10166000AA2405888DF804408DF8054018248DF8CB
:1016700006408DF8085045F30724458880888DF88A
:10168000094045F307248DF80A508DF80B4040F3CC
:1016900007250C888DF80D504D8889888DF80C0031
:1016A00044F307208DF80E408DF80F0045F3072412
:1016B00041F307208DF810508DF8121015885188CD
:1016C00092888DF811408DF8130045F307248DF8AA
:1016D000145041F3072042F30725012B8DF81540E4
:1016E0008DF816108DF817008DF818208DF8195008
:1016F00019D1204B2048214D1C681D2102782B78E0
:10170000200C8DF806108DF81C40210A240E8DF84F
:101710001A208DF81B308DF81D108DF81E008DF8E5
:101720001F401C2500E01625154B4FF480429A659A
:101730000024AC42BDF802100CDA01AEA65D88B2FE
:101740003146FEF7E9FFADF802003046FFF708FF2B
:101750000134EEE7BDF8020084B2C8B2FFF700FF23
:10176000200AFFF7FDFE064B4FF48042DA6508B011
:1017700070BD00BFEC030020CC030020CE0300208E
:101780000060004030B585B0AA2305788DF8083098
:101790008DF809304078184B002408214FF480421E
:1017A000ADF806408DF80A108DF80B408DF80C50FE
:1017B0008DF80D009A6502AD655DBDF80610013427
:1017C00088B22946FEF7A8FFADF806002846FFF7C5
:1017D000C7FE062CEFD1BDF80600BDF80620C0B24A
:1017E00094B2FFF7BDFE200AFFF7BAFE024B4FF49A
:1017F0008041D96505B030BD0060004018B9034B89
:101800009968CB07FBD4024A1060704700800840FB
:1018100000001043074880470749084A084B9B1AB5
:1018200040F30580043BC858D0503FF7FBAF054854
:10183000004700008D180000141A0000000000206E
:10184000B003002055010000FEE7FEE7FEE7FEE7DB
:10185000FEE7FEE7FEE7FEE7FEE7FEE7FEE7FEE760
:10186000FEE7FEE7FEE7FEE7FEE7FEE7FEE7FEE750
:10187000FEE7FEE7FEE7FEE7FEE7FEE7FEE7FEE740
:10188000FEE7FEE7FEE7FEE7FEE700BF7047000069
:1018900010B5034C14B1AFF3008010BD204610BD4D
:1018A0000000000008B5084B04461BB10021AFF34F
:1018B000008001E000F00CF804480068816A01B182
:1018C0008847204600F048F800000000041A000095
:1018D00070B5084B084C0025E01A841003EB840611
:1018E000043D1CB172599047013CF9E7BDE87040D6
:1018F00000F03AB8AC030020B003002038B50E4D1C
:101900000E4B0024E81A8510AC4205D00B4951F863
:10191000242090470134F7E700F020F80849094AED
:10192000541AA5100024AC4205D0054B53F82400EE
:1019300080470134F7E738BDA8030020A803002042
:10194000A8030020AC03002082180346934202D073
:1019500003F8011BFAE77047FEE700BFF8B500BFC8
:10196000F8BC08BC9E467047F8B500BFF8BC08BC80
:101970009E4670470000000001B40248844601BC46
:10198000604700BF2103002001B40248844601BC27
:10199000604700BFB10200200A0D4779726F2D49E0
:1019A000440A0D000A0D4163632D49440A0D000AE3
:1019B0000D4D61672D49440A0D000A0D4759524FDC
:1019C0004D45544552200A0D000A0D414343454CF4
:1019D00045524F4D45544552200A0D000A0D4D41C8
:1019E000474E45544F4D45544552200A0D000A0DAF
:1019F00054454D5045524154555245200A0D00431F
:0C1A0000000000004C020020000000006C
:081A0C0048E7FF7F0100000024
:101A14000201000005800F800A001B801E001400D4
:101A24001180338036003C00398028002D802780C7
:101A34002200638066006C00698078007D80778076
:101A44007200500055805F805A004B804E00440065
:101A54004180C380C600CC00C980D800DD80D78017
:101A6400D200F000F580FF80FA00EB80EE00E40085
:101A7400E180A000A580AF80AA00BB80BE00B400B6
:101A8400B180938096009C00998088008D80878027
:101A94008200838186018C01898198019D819781CF
:101AA4009201B001B581BF81BA01AB81AE01A4013D
:101AB400A181E001E581EF81EA01FB81FE01F401EE
:101AC400F181D381D601DC01D981C801CD81C781DF
:101AD400C201400145814F814A015B815E0154018D
:101AE4005181738176017C01798168016D816781FF
:101AF4006201238126012C01298138013D8137812E
:101B04003201100115811F811A010B810E0104019C
:101B14000181038306030C03098318031D831783C0
:101B24001203300335833F833A032B832E032403AC
:101B34002183600365836F836A037B837E0374035D
:101B44007183538356035C03598348034D8347834E
:101B54004203C003C583CF83CA03DB83DE03D403FC
:101B6400D183F383F603FC03F983E803ED83E7836E
:101B7400E203A383A603AC03A983B803BD83B7839D
:101B8400B203900395839F839A038B838E0384030C
:101B94008183800285828F828A029B829E029402C4
:101BA4009182B382B602BC02B982A802AD82A78236
:101BB400A202E382E602EC02E982F802FD82F782E5
:101BC400F202D002D582DF82DA02CB82CE02C402D4
:101BD400C182438246024C02498258025D82578286
:101BE4005202700275827F827A026B826E026402F4
:101BF4006182200225822F822A023B823E02340225
:101C04003182138216021C02198208020D82078295
:101C14000202307820200000027800000038000022
:101C24000638000000000000000000000000000072
:101C34000000000000000000000000280000000078
:101C44000000000002380000037800000178000062
:101C54000038000000780000007800000000000058
:101C64000000000000000000000000000000000070
:101C7400000000000000000000000000FF19000048
:101C84000000000000000000000000000000000050
:101C94000000000000000000000000000000000040
:101CA4000000000000000000000000000000000030
:101CB4000000000000000000000000000000000020
:101CC400194B9A6842F00101996018610120D860AB
:101CD400DA69510705D59A68FF2022F0010199605D
:101CE4001FE0D9698A0705D5996821F00100986039
:101CF400FE2016E002200D4AD8600B4BD96911F082
:101D04000100194602D012B1013AF6E72AB98B68EC
:101D140023F001008860FD2003E09A6822F00101AD
:101D2400996040B2704700BF00000C408096980054
:101D34002DE9F041164B80469868971040F0010455
:101D44009C600E460024BC4219DA08EB8405284640
:101D540000F022F8A0B9ED05E90DC1F500723B1BB6
:101D640095089D42A8BF1D466419002DEBD030464E
:101D7400012100F019F818B90436013DF5E70020F7
:101D8400034940B28A6822F001038B60BDE8F08108
:101D940000000C400000000001B40248844601BC6D
:101DA400604700BFA910000001B40248844601BC8A
:101DB400604700BF5510000025010000010100002C
:0400000300001815CC
:00000001FF
