:100000000010002085180000BB180000BD1800007B
:10001000BF180000C1180000C3180000B918000084
:10002000B9180000B9180000B9180000C518000080
:10003000C7180000B9180000C9180000CB1800004C
:10004000CD180000CF18000029100000ED0F0000AF
:10005000D5180000D7180000D9180000DB180000E0
:10006000DD180000DF18000049100000E318000050
:10007000E5180000E7180000E9180000EB18000080
:10008000ED180000EF180000F1180000F318000050
:10009000F5180000F7180000F91800000000000033
:1000A0000000000000000000000000000000000050
:1000B0000000000000000000000000000000000040
:1000C0000000000000000000000000000000000030
:1000D0000000000000000000000000000000000020
:1000E0000000000000000000000000000000000010
:1000F0000000000000000000000000000000000000
:1001000010B5054C237833B9044810B10448AFF357
:1001100000800121217010BDB0030020000000000C
:10012000781A000008B5064B1BB106480649AFF324
:1001300000800648016811B1054A02B1904708BD28
:1001400000000000781A0000B4030020B003002073
:1001500000000000154B002B08BF134B9D46A3F574
:10016000803A00218B460F461348144A121A01F0B8
:1001700023FC0F4B002B00D098470E4B002B00D0D8
:1001800098470020002104460D4600200C4900221B
:10019000002301F0B5FB01F0E9FB2046294600F001
:1001A000ABFF01F0B7FB00BF00000800001000200B
:1001B0000000000000000000B0030020FC0500204B
:1001C0004119000008B500F0BBFE00F077FE00F01A
:1001D00047FE00F05FFE00F0A9FE4BF68030BDE860
:1001E000084000F029BE70B5B0B005466C4618AEA8
:1001F000032001F08FF9822001F0B4F9FF2001F013
:10020000B1F92070FF2001F0ADF96070FF2001F01E
:10021000A9F9A070FF2001F0A5F9E070FF2001F01E
:10022000A1F92071FF2001F09DF9607103200634CF
:1002300001F084F9B442DBD16846294660220623E6
:1002400000F006FA30B070BD70B5B0B005466C462F
:1002500018AE042001F05EF9822001F083F9FF203E
:1002600001F080F92070FF2001F07CF96070FF2020
:1002700001F078F9A070FF2001F074F9E070FF2020
:1002800001F070F92071FF2001F06CF96071042019
:10029000063401F053F9B442DBD1684629466022A6
:1002A000062300F0D5F930B070BD00002DE9F74FFE
:1002B0000446052001F02EF94C2001F053F92E20C0
:1002C00001F050F9052001F039F9052001F022F97B
:1002D0004C2001F047F92A2001F044F9052001F0F3
:1002E0002DF92C4B1978012908BF4FF4A07007D0C5
:1002F000042901D1284803E007290CBF27482848D2
:1003000000F09AFD052001F005F9C22001F02AF95C
:10031000FF2001F027F98346FF2001F023F9024670
:10032000FF20019201F01EF98146FF2001F01AF929
:100330008246FF2001F016F90746FF2001F012F96E
:100340008046FF2001F00EF90546FF2001F00AF972
:100350000646052001F0F2F80198CBF3C70B43B233
:100360004FFA8AFAC9F3C7024FFA88F8C7F347076A
:1003700076B2C5F387054BEA431142EA4A1947EAC8
:10038000C81745EA86152180A4F80290A780E58069
:10039000BDE8FE8F0100002000E2040000C4090057
:1003A000006A180008B52D4A2D4B18B901211170AB
:1003B00002200EE0012803D1042010700E2008E076
:1003C000022803D1072111701A2002E02E2111709A
:1003D00052201870052001F09DF84B2001F0C2F862
:1003E000012001F0BFF8052001F0A8F8052001F078
:1003F00091F84C2001F0B6F8282001F0B3F8052060
:1004000001F09CF8052001F085F84E2001F0AAF8D3
:10041000072001F0A7F8052001F090F8052001F071
:1004200079F8512001F09EF80C4A107801F09AF802
:10043000052001F083F8052001F06CF8522001F04E
:1004400091F8074B187801F08DF8052001F076F847
:100450004FF47A50BDE8084000F0EEBC01000020E7
:100460000000002010B5052818BF0328044604D05A
:1004700000F0FB03082B18BF0324042001F04AF806
:10048000142001F06FF8B62001F06CF8042001F0A0
:1004900055F8042001F03EF80F2001F063F82046E3
:1004A00001F060F8042001F049F8042001F032F86E
:1004B000102001F057F80F2001F054F8042001F04B
:1004C0003DF8042001F026F8112001F04BF800203F
:1004D00001F048F8042001F031F8042001F01AF886
:1004E000132001F03FF8802001F03CF80420BDE823
:1004F000104001F023B810B5042894BF044600242E
:10050000032001F007F8142001F02CF8B62001F0C8
:1005100029F8032001F012F8032000F0FBFF0F2060
:1005200001F020F8204601F01DF8032001F006F844
:10053000102001F017F8022001F014F8032000F059
:10054000FDFF032000F0E6FF112001F00BF8002072
:1005500001F008F8032000F0F1FF032000F0DAFFBB
:10056000132000F0FFFF002000F0FCFF0320BDE897
:10057000104000F0E3BF10B5042894BF04460024E7
:10058000032000F0C7FF0F2000F0ECFF204600F032
:10059000E9FF0320BDE8104000F0D0BF38B5064C9D
:1005A000064D2070288801F027FA28882146082265
:1005B000BDE8384001F018BACE0300204402002004
:1005C00010B50446032000F0A5FF8F2000F0CAFFFD
:1005D000FF2000F0C7FF2070032000F0AFFF0420D1
:1005E00000F098FF8F2000F0BDFFFF2000F0BAFF61
:1005F0006070042000F0A2FF2378617803F0070008
:1006000001F00F022070627010BD70B5002803DA8F
:100610002D2301F8013B404200230A24B0FBF4F2F1
:1006200004FB12003030C85401331046002AF4D1C4
:100630005C10CB181A46A04207DA0D5C12F8016C68
:100640000E5402F8015D0130F5E70021197070BD0C
:100650002DE9F0470024A04626462746A4469045AB
:1006600004EB030928DA051995F901A098444FEA2B
:100670000A1A1FFA8AFAA1F800A0045D4AEA1414C3
:100680000C8024B2A44495F903402401A4B24C8008
:1006900095F802A044EA1A144C8024B23F1995F947
:1006A00005402401A4B28C802D7944EA15148C8075
:1006B00024B236194C46D2E792FBF3F20FFA8CFCC7
:1006C0003FB236B29CFBF2F097FBF2F796FBF2F3E7
:1006D00008804F808B80BDE8F087000000231A025D
:1006E00092B2082012F4004F18BF09494FEA4202A3
:1006F0001ABF51408AB292B2411E11F0FF00F1D1EF
:10070000044921F813200133B3F5807FE7D1704706
:100710000580FFFFFC030020044B81EA102133F821
:10072000112082EA002080B2704700BF0200002042
:1007300030B589B00023054604200093ADF804309D
:100740000293ADF80C30ADF81030ADF81230ADF8C2
:100750001430ADF81830ADF81A30ADF81C300C4636
:1007600000F0D8FE8F2000F0FDFEFF2000F0FAFE22
:100770002070042000F0E2FE207800F00F012170CC
:10078000042000F0C7FE0F2000F0ECFE082000F06F
:10079000E9FE042000F0D2FE042000F0BBFE32206F
:1007A0007A4C00F0DFFE152000F0DCFE042000F0A3
:1007B000C5FE204600F040FB042000F0ABFE822086
:1007C00000F0D0FEFF2000F0CDFE8DF80000FF20ED
:1007D00000F0C8FE8DF80100042000F0AFFE0420F8
:1007E00000F098FE322000F0BDFE162000F0BAFEA8
:1007F000042000F0A3FE204600F01EFB042000F0C1
:1008000089FE842000F0AEFEFF2000F0ABFE8DF8E4
:100810000200FF2000F0A6FE8DF80300042000F087
:100820008DFE042000F076FE322000F09BFE1720A3
:1008300000F098FE042000F081FE204600F0FCFA53
:10084000042000F067FE862000F08CFEFF2000F000
:1008500089FE8DF80400FF2000F084FE8DF805006D
:10086000042000F06BFE042000F054FE322000F063
:1008700079FE112000F076FE042000F05FFE204695
:1008800000F0DAFA042000F045FE822000F06AFE53
:10089000FF2000F067FE8DF80800FF2000F062FEE8
:1008A0008DF80900042000F049FE042000F032FE1B
:1008B000322000F057FE122000F054FE042000F019
:1008C0003DFE204600F0B8FA042000F023FE84200C
:1008D00000F048FEFF2000F045FE8DF80A00FF20E2
:1008E00000F040FE8DF80B00042000F027FE0420ED
:1008F00000F010FE322000F035FE132000F032FE32
:10090000042000F01BFE204600F096FA042000F0C0
:1009100001FE862000F026FEFF2000F023FE8DF869
:100920000C00FF2000F01EFE8DF80D00042000F0EA
:1009300005FE042000F0EEFD142000F013FEB620AA
:1009400000F010FE042000F0F9FD684604A906221C
:100950000123FFF77DFE02A806A906220123FFF767
:1009600077FEBDF81830BDF81020BDF81A10D01A67
:10097000BDF8123028805A1ABDF81C00BDF81410BA
:100980006A800B1AAB8009B030BD00BF00D43000C4
:1009900030B585B00720AA2300248DF80B00032072
:1009A0008DF808308DF80930ADF806408DF80A4012
:1009B00000F0B0FDBC2000F0D5FDFF2000F0D2FD1E
:1009C0000546032000F0BAFDC5F300118DF80C10A8
:1009D00002ABE55CBDF80620294690B2FFF79CFE0D
:1009E0000134ADF80600284600F0F2FD052CEFD1E9
:1009F000BDF80600BDF80610C0B28CB200F0E8FDEC
:100A0000200A00F0E5FD05B030BD0000F0B585B06E
:100A10000920AA2300248DF8070005208DF8043052
:100A20008DF80530ADF802408DF8064000F072FDFB
:100A30004B2000F097FD012000F094FD052000F010
:100A40007DFD052000F066FD4C2000F08BFD2F2081
:100A500000F088FD052000F071FD234800F0ECF95E
:100A6000052000F057FDC22000F07CFDFF2000F0C3
:100A700079FD0746FF2000F075FDFF2000F072FDB4
:100A80000646FF2000F06EFDFF2000F06BFD0546DE
:100A9000052000F053FD07F0010706F0010605F000
:100AA00001018DF808708DF809608DF80A1001AB0E
:100AB000E55CBDF80220294690B2FFF72DFE013417
:100AC000ADF80200284600F083FD072CEFD1BDF8F9
:100AD0000200BDF80210C0B28CB200F079FD200A0D
:100AE00000F076FD05B0F0BD00D4300030B585B023
:100AF0001A49AA238DF808308DF809300D78184B63
:100B0000002407204FF48042ADF806408DF80A001B
:100B10008DF80B408DF80C509A6502A9655CBDF804
:100B20000600294680B2FFF7F7FD0134ADF8060054
:100B3000284600F04DFD052CEFD1BDF80620BDF88C
:100B40000630D0B29CB200F043FD200A00F040FD18
:100B500003494FF48040C86505B030BDCE03002086
:100B6000006000400309092B03DC0D4A03F130014A
:100B70009170A3F10A01052902D8094A373393700D
:100B800000F00F00092803DC054B00F13001D9709B
:100B9000A0F10A02052A02D801493730C87070470F
:100BA000020200202DE9F0418AB0424A07AB1068EA
:100BB0005168414C03C3906861681860206801ADBA
:100BC00003C53E4F218938682980796804AB03C387
:100BD0003889BA7AA67A188003209A70AE7000F02D
:100BE00099FC802000F0BEFC002000F0BBFC804699
:100BF000032000F0A3FC042000F08CFC802000F017
:100C0000B1FC002000F0AEFC0746042000F096FC8A
:100C1000052000F07FFCC02000F0A4FC002000F0C4
:100C2000A1FC274D06464FF48044052000F086FCC9
:100C3000AC650DF11B0515F8014F1CB1204600F005
:100C4000C7FCF8E74046FFF78DFF1E49085D0134F9
:100C500000F0BEFC042CF8D10DF1030515F8014F8E
:100C60001CB1204600F0B4FCF8E73846FFF77AFFE5
:100C7000144B185D013400F0ABFC042CF8D10DF1DD
:100C80000F0515F8014F1CB1204600F0A1FCF8E754
:100C90003046FFF767FF0B48005D013400F098FC19
:100CA000042CF8D106494FF48042CA650AB0BDE869
:100CB000F08100BF081A0000141A00001F1A00007B
:100CC0000060004002020020F0B595B0554B4FF493
:100CD0008041054699651446A2B9534A0FAB516845
:100CE000106803C352F8080F967991889E711860B6
:100CF00099800DF13B0616F8010F00284CD000F04A
:100D000067FCF8E7012A17D1484B0FA803F1100739
:100D1000024659681868083303C2BB421046F7D12F
:100D20009E781988967011800DF13B0616F8010F18
:100D300090B300F04DFCF9E7022A15D13C4B0FA906
:100D400003F110070A4618685968083303C2BB420A
:100D50001146F7D118880DF13B06108016F8010FE7
:100D6000D0B100F035FCF9E7032A15D1314B0FAAB9
:100D700003F1100718685968164603C60833BB42CA
:100D80003246F7D1187830700DF13B0616F8010F96
:100D900010B100F01DFCF9E7B5F900006946FFF756
:100DA00034FCB5F9020005A9FFF72FFCB5F90400E2
:100DB0000AA9FFF72AFC0DF1FF3616F8010F10B152
:100DC00000F006FCF9E7202000F002FC0DF113060C
:100DD00016F8010F10B100F0FBFBF9E7202000F03E
:100DE000F7FB0DF1270616F8010F10B100F0F0FB2C
:100DF000F9E7022C05D00B4B4FF48042DA6515B0B1
:100E0000F0BDB5F906000FA9FFF7FFFB202000F0A9
:100E1000DFFB0DF13B0414F8010F0028EBD000F0CC
:100E2000D7FBF8E7006000402A1A0000391A0000DA
:100E30004C1A00005E1A0000034B00225A605968E9
:100E40008142FCD3704700BF001000E0034B1A69D9
:100E500022F00400186130BF704700BF00ED00E0D1
:100E60000B4B40F2014241F205004FF480611A60E1
:100E7000586040F61542596141F6F9700B21DA606D
:100E8000986459655A6D42F00B005865704700BF71
:100E900000C40040084B4FF4407240F605405A61D0
:100EA000D860196841F6F97041F0600240F20331F0
:100EB0001A6098645965704700C00040114B4FF0AC
:100EC00080429A6280204FF08842142198631A650C
:100ED00044F20200D96448F20101D86599654FF4E3
:100EE00082001A674FF40051C022DA67C3F89800F5
:100EF000C3F8A010D3F8202142F00400C3F8200169
:100F0000704700BF00600040064B402206491A604F
:100F10004FF4A0704FF6FF72D861C3F80014C3F805
:100F20001C2470470000014080000005034B40F284
:100F30000C7200201A605860704700BF00800840A3
:100F4000164B174A1A60186A40F0040119621846D5
:100F5000C26A124B1207FBD54FF4807140F2AE30DB
:100F600099604C22D860B32105201A615961022290
:100F7000986204217C205A62196458649A65094B6E
:100F80000948DA6842F08071D960036841F671312E
:100F900043F0010202600548C163704700800C40C5
:100FA0002C060C00F0ED00E0001000E000000C400A
:100FB0000A4B08220A48C3F880211A60C16C41F02C
:100FC00004020849C2640120C860074904221A606B
:100FD000C8604FF480601860704700BF00E100E017
:100FE00000C00040000001400004014010B500F0C6
:100FF000CBFA00F0C3FA0949094B0A88DC69094BAE
:1010000010B21C54013290B29B78088001B2994210
:1010100003D1BDE8104000F0B7BA10BDF2030020C4
:1010200000C000401402002008B500F0B5FA00F03E
:10103000ABFA034B034900221E201A80887008BDBA
:10104000F20300201402002008B5094B1869C307F9
:101050000CD5002000F0ACFA00F0B4FA05490A887B
:10106000531C0B80BDE8084000F09CBA08BD00BFCF
:1010700000040140EE03002030B5124B124AD4693F
:1010800014F0080F0DD153B1013BF7E70823D360EB
:101090000C4B0D4AD06910F001010DD183B9FD212F
:1010A0000EE0002BFBD000238B42EFDA50F82340F8
:1010B000054D0133AC61F7E7002BF0D0013BE8E7C9
:1010C00048B230BD8096980000000C40094B0122C8
:1010D0001861DA60D96911F0060008D04A0705D412
:1010E00011F0020F0CBF0020FE2000E0FF2040B2F4
:1010F000704700BF00000C40F7B5A74BA74A19681E
:10110000146891F800E0A649A64D81F800E0227825
:101110002E684A70A44F36783B688E70A34C1D78B9
:101120002468CD702788A24B00201F7024884FFAB6
:101130008EFC270A9F4C5F702468ADF8000027687A
:10114000ADF802009F7027683F0ADF70678884450A
:101150001F71E478984F5C713C682778D8719F7153
:1011600001DC01200870042E02D9102088700120B3
:101170000C2A8B490AD0082A08D0052A06D0032A4F
:1011800004D0032295424A7002D805E0032D02D90B
:101190000026CE7000E040B1884D288800F02CFC7D
:1011A00028887F49082200F01FFC7D4CFFF796FA43
:1011B000FFF708F86078FFF755F9A078FFF79BF97B
:1011C000E078FFF7EFF8A078FFF7D5F9FFF7F0FE2A
:1011D000FFF79AFEFFF7AAFE00F0E4F9784B794991
:1011E00000271E201F808870754A764C1688A578C7
:1011F00037B2AF4202D0FFF729FEF5E72378AA2BDA
:10120000ECD16078AA28E9D1654EE178337899422B
:1012100040F00F812179112900F090801DD8042918
:1012200072D00CD801295FD04ED3022963D0032994
:10123000D4D16548FFF73AF86348022161E00629F6
:101240006CD068D3072976D01029C7D16079FFF711
:1012500092F9534F6679BE7085E0162900F09180AF
:1012600018D8132900F0868077D3142900F08680DF
:101270001529B3D1554E4E4F01243088FC7100F032
:10128000BBFB30883946082200F0AEFB204600F058
:10129000EDFAA3E7222900F0BB800DD82029494CA4
:1012A00000F0A080212999D161794948FEF79BFF80
:1012B000474803210022B9E0232900F0B180FF292B
:1012C0008CD1FFF76FFC89E761794148FEF78BFF0E
:1012D00061794048FEF7B8FF3B48FEF7E7FF3C481E
:1012E0003C49394A0023DDE061793948FEF77BFF4C
:1012F0003748002105E061793648FEF7A5FF3548FB
:10130000012100F071F969E73348FFF759F93248D4
:1013100000F070FA62E7FFF73BFB5FE72F4D2D48C7
:101320002946FFF705FA2B48012100F05DF92878DE
:10133000FFF798F852E7FFF769FB4FE760791F4F17
:10134000FFF790F861793888717000F055FB3888A4
:101350003146082200F048FB40E76079FFF722F8A9
:101360000F4F6279FA70154D288800F045FB2888E8
:101370003946EEE76079FFF711F92FE7FFF7B6FB83
:101380002CE71348012313490F4A00F099F9144B35
:101390000020187022E700BF480200203C02002015
:1013A000CE03002008020020380200204002002066
:1013B000F403002034020020100200204402002028
:1013C000F203002014020020DC0300200C020020A5
:1013D000D6030020E8030020F0030020CD03002006
:1013E000CC03002061794248FEF7FDFE6179414857
:1013F000FEF72AFF4048FEF759FF032100223C4830
:10140000FFF762FC3B4803210122FFF75DFC0AE085
:1014100061793848FEF718FF36480321012205E0BC
:101420003548FEF743FF344804210222FFF74CFC05
:10143000D4E6E278802A7FF4D1AE2079012825D045
:1014400003D302287FF4CAAE26E061792848FEF76C
:10145000CAFE61792748FEF7F7FE2748FEF726FF08
:10146000264FA279264D274C00202A70386000F0C4
:101470009FF82088244D83B23B603E683104396078
:101480003A686C6AA0B210433860A5E600F090F8A4
:101490001C4B00271F809FE6012B06D114481549DD
:1014A000154A012300F00CF998E64FF47A7058437E
:1014B000012528270195E775144E591EF47D8C42AD
:1014C000ECD0019A002AE9D0114F00251E2401908A
:1014D0003D80B4700E4E0D4A318895780FB2AF4200
:1014E000EAD0019C002CE7D0019E711E0191F1E72A
:1014F000D6030020E8030020DC030020E4030020E2
:10150000CC030020EE030020000401401402002060
:10151000F2030020032804D107494FF40040C865B6
:101520007047042801D1402202E0052803D180221F
:10153000014BC3F88020704700600040032804D1AD
:1015400007494FF4004088657047042801D14022C4
:1015500002E0052802D18022014BDA67704700BF04
:1015600000600040044B58631A699206FCD502489B
:10157000C169C8B2704700BF00C40040014B0122DE
:101580005A60704700000140024B022200205A605E
:101590005862704700000140014B01229A61704778
:1015A00000000140014B01225A60704700040140D5
:1015B000034B022201285A6001D100205862704773
:1015C00000040140014B01229A6170470004014070
:1015D000044B1A695106FBD5586318698206FCD57D
:1015E000704700BF00C0004030B587B00588AA230F
:1015F00045F307228DF808308DF809308DF80D205D
:101600004388828800248DF80C508DF80E3043F307
:101610000725022942F30723ADF806408DF80B4059
:101620008DF80F508DF810208DF8113023491DD101
:10163000C0884FF4804240F307258DF812008DF8E2
:1016400013508A650E218DF80A1002ABE55CBDF8D7
:101650000600294680B2FFF75FF80134ADF80600B6
:101660002846FFF7B5FF0C2CEFD115E04FF4804072
:101670000C2588658DF80A5002ABE55CBDF80620A4
:10168000294690B2FFF748F80134ADF80600284625
:10169000FFF79EFF0A2CEFD1BDF80620BDF80640EB
:1016A000D0B2A4B2FFF794FF200AFFF791FF0348DE
:1016B0004FF48041C16507B030BD00BF00600040FD
:1016C00070B588B000242546ADF802408DF807506B
:1016D000AA2405888DF804408DF8054018248DF85B
:1016E00006408DF8085045F30724458880888DF81A
:1016F000094045F307248DF80A508DF80B4040F35C
:1017000007250C888DF80D504D8889888DF80C00C0
:1017100044F307208DF80E408DF80F0045F30724A1
:1017200041F307208DF810508DF81210158851885C
:1017300092888DF811408DF8130045F307248DF839
:10174000145041F3072042F30725012B8DF8154073
:101750008DF816108DF817008DF818208DF8195097
:1017600019D1204C204D1E23204821788DF80630B9
:101770002B6802788DF81A101C0A190C180E8DF8B7
:101780001B208DF81C308DF81D408DF81E108DF833
:101790001F001C2500E01625154B4FF480429A656A
:1017A0000024AC42BDF802100CDA01AEA65D88B28E
:1017B0003146FEF7B1FFADF802003046FFF708FFF3
:1017C0000134EEE7BDF80240C8B2A4B2FFF700FF53
:1017D000200AFFF7FDFE064A4FF48040D06508B0AE
:1017E00070BD00BFCC030020E4030020CE03002026
:1017F0000060004030B585B0AA2305788DF8083028
:101800008DF809304078184B002408214FF48042AD
:10181000ADF806408DF80A108DF80B408DF80C508D
:101820008DF80D009A6502AD655DBDF806100134B6
:1018300088B22946FEF770FFADF806002846FFF78C
:10184000C7FE062CEFD1BDF80600BDF80620C0B2D9
:1018500094B2FFF7BDFE200AFFF7BAFE024B4FF429
:101860008041D96505B030BD0060004018B9034B18
:101870009968CB07FBD4024A10607047008008408B
:1018800000001043074880470749084A084B9B1A45
:1018900040F30580043BC858D0503FF7FBAF0548E4
:1018A00000470000FD180000841A0000000000201E
:1018B000B003002055010000FEE7FEE7FEE7FEE76B
:1018C000FEE7FEE7FEE7FEE7FEE7FEE7FEE7FEE7F0
:1018D000FEE7FEE7FEE7FEE7FEE7FEE7FEE7FEE7E0
:1018E000FEE7FEE7FEE7FEE7FEE7FEE7FEE7FEE7D0
:1018F000FEE7FEE7FEE7FEE7FEE700BF70470000F9
:1019000010B5034C14B1AFF3008010BD204610BDDC
:101910000000000008B5084B04461BB10021AFF3DE
:10192000008001E000F00CF804480068816A01B111
:101930008847204600F048F800000000741A0000B4
:1019400070B5084B084C0025E01A841003EB8406A0
:10195000043D1CB172599047013CF9E7BDE8704065
:1019600000F03AB8AC030020B003002038B50E4DAB
:101970000E4B0024E81A8510AC4205D00B4951F8F3
:10198000242090470134F7E700F020F80849094A7D
:10199000541AA5100024AC4205D0054B53F824007E
:1019A00080470134F7E738BDA8030020A8030020D2
:1019B000A8030020AC03002082180346934202D003
:1019C00003F8011BFAE77047FEE700BFF8B500BF58
:1019D000F8BC08BC9E467047F8B500BFF8BC08BC10
:1019E0009E4670470000000001B40248844601BCD6
:1019F000604700BF2103002001B40248844601BCB7
:101A0000604700BFB10200200A0D4779726F2D496F
:101A1000440A0D000A0D4163632D49440A0D000A72
:101A20000D4D61672D49440A0D000A0D4759524F6B
:101A30004D45544552200A0D000A0D414343454C83
:101A400045524F4D45544552200A0D000A0D4D4157
:101A5000474E45544F4D45544552200A0D000A0D3E
:101A600054454D5045524154555245200A0D0043AE
:0C1A7000000000004C02002000000000FC
:081A7C00D8E6FF7F0100000025
:101A84000201000005800F800A001B801E00140064
:101A94001180338036003C00398028002D80278057
:101AA4002200638066006C00698078007D80778006
:101AB4007200500055805F805A004B804E004400F5
:101AC4004180C380C600CC00C980D800DD80D780A7
:101AD400D200F000F580FF80FA00EB80EE00E40015
:101AE400E180A000A580AF80AA00BB80BE00B40046
:101AF400B180938096009C00998088008D808780B7
:101B04008200838186018C01898198019D8197815E
:101B14009201B001B581BF81BA01AB81AE01A401CC
:101B2400A181E001E581EF81EA01FB81FE01F4017D
:101B3400F181D381D601DC01D981C801CD81C7816E
:101B4400C201400145814F814A015B815E0154011C
:101B54005181738176017C01798168016D8167818E
:101B64006201238126012C01298138013D813781BD
:101B74003201100115811F811A010B810E0104012C
:101B84000181038306030C03098318031D83178350
:101B94001203300335833F833A032B832E0324033C
:101BA4002183600365836F836A037B837E037403ED
:101BB4007183538356035C03598348034D834783DE
:101BC4004203C003C583CF83CA03DB83DE03D4038C
:101BD400D183F383F603FC03F983E803ED83E783FE
:101BE400E203A383A603AC03A983B803BD83B7832D
:101BF400B203900395839F839A038B838E0384039C
:101C04008183800285828F828A029B829E02940253
:101C14009182B382B602BC02B982A802AD82A782C5
:101C2400A202E382E602EC02E982F802FD82F78274
:101C3400F202D002D582DF82DA02CB82CE02C40263
:101C4400C182438246024C02498258025D82578215
:101C54005202700275827F827A026B826E02640283
:101C64006182200225822F822A023B823E023402B4
:101C74003182138216021C02198208020D82078225
:101C840002023078202000000278000000380000B2
:101C94000638000000000000000000000000000002
:101CA4000000000000000000000000280000000008
:101CB40000000000023800000378000001780000F2
:101CC40000380000007800000078000000000000E8
:101CD4000000000000000000000000000000000000
:101CE4000000000000000000000000006F1A000067
:101CF40000000000000000000000000000000000E0
:101D040000000000000000000000000000000000CF
:101D140000000000000000000000000000000000BF
:101D240000000000000000000000000000000000AF
:101D3400194B9A6842F00101996018610120D8603A
:101D4400DA69510705D59A68FF2022F001019960EC
:101D54001FE0D9698A0705D5996821F001009860C8
:101D6400FE2016E002200D4AD8600B4BD96911F011
:101D74000100194602D012B1013AF6E72AB98B687C
:101D840023F001008860FD2003E09A6822F001013D
:101D9400996040B2704700BF00000C4080969800E4
:101DA4002DE9F041164B80469868971040F00104E5
:101DB4009C600E460024BC4219DA08EB84052846D0
:101DC40000F022F8A0B9ED05E90DC1F500723B1B46
:101DD40095089D42A8BF1D466419002DEBD03046DE
:101DE400012100F019F818B90436013DF5E7002087
:101DF400034940B28A6822F001038B60BDE8F08198
:101E040000000C400000000001B40248844601BCFC
:101E1400604700BFCD10000001B40248844601BCF5
:101E2400604700BF79100000250100000101000097
:04000003000018855C
:00000001FF
