:1000000000100020091800003F18000041180000EF
:100010004318000045180000471800003D18000074
:100020003D1800003D1800003D1800004918000070
:100030004B1800003D1800004D1800004F1800003C
:10004000511800005318000021100000E50F0000B7
:10005000591800005B1800005D1800005F180000D0
:1000600061180000631800004110000067180000CC
:10007000691800006B1800006D1800006F18000070
:100080007118000073180000751800007718000040
:10009000791800007B1800007D18000000000000A7
:1000A0000000000000000000000000000000000050
:1000B0000000000000000000000000000000000040
:1000C0000000000000000000000000000000000030
:1000D0000000000000000000000000000000000020
:1000E0000000000000000000000000000000000010
:1000F0000000000000000000000000000000000000
:1001000010B5054C237833B9044810B10448AFF357
:1001100000800121217010BDB0030020000000000C
:10012000F819000008B5064B1BB106480649AFF3A5
:1001300000800648016811B1054A02B1904708BD28
:1001400000000000F8190000B4030020B0030020F4
:1001500000000000154B002B08BF134B9D46A3F574
:10016000803A00218B460F461348144A121A01F0B8
:10017000E5FB0F4B002B00D098470E4B002B00D017
:1001800098470020002104460D4600200C4900221B
:10019000002301F077FB01F0ABFB2046294600F07D
:1001A00099FF01F079FB00BF00000800001000205B
:1001B0000000000000000000B0030020FC0500204B
:1001C000C518000008B500F0B7FE00F077FE00F09B
:1001D00047FE00F05FFE00F0A5FE4BF68030BDE864
:1001E000084000F029BE70B5B0B005466C4618AEA8
:1001F000032001F05BF9822001F080F9FF2001F07B
:100200007DF92070FF2001F079F96070FF2001F086
:1002100075F9A070FF2001F071F9E070FF2001F086
:100220006DF92071FF2001F069F960710320063437
:1002300001F050F9B442DBD168462946602206231A
:1002400000F006FA30B070BD70B5B0B005466C462F
:1002500018AE042001F02AF9822001F04FF9FF20A6
:1002600001F04CF92070FF2001F048F96070FF2088
:1002700001F044F9A070FF2001F040F9E070FF2088
:1002800001F03CF92071FF2001F038F96071042081
:10029000063401F01FF9B442DBD1684629466022DA
:1002A000062300F0D5F930B070BD00002DE9F74FFE
:1002B0000446052001F0FAF84C2001F01FF92E2029
:1002C00001F01CF9052001F005F9052001F0EEF818
:1002D0004C2001F013F92A2001F010F9052001F05B
:1002E000F9F82C4B1978012908BF4FF4A07007D0FA
:1002F000042901D1284803E007290CBF27482848D2
:1003000000F09AFD052001F0D1F8C22001F0F6F8C6
:10031000FF2001F0F3F88346FF2001F0EFF80246DA
:10032000FF20019201F0EAF88146FF2001F0E6F893
:100330008246FF2001F0E2F80746FF2001F0DEF8D8
:100340008046FF2001F0DAF80546FF2001F0D6F8DC
:100350000646052001F0BEF80198CBF3C70B43B267
:100360004FFA8AFAC9F3C7024FFA88F8C7F347076A
:1003700076B2C5F387054BEA431142EA4A1947EAC8
:10038000C81745EA86152180A4F80290A780E58069
:10039000BDE8FE8F0100002000E2040000C4090057
:1003A000006A180008B52D4A2D4B18B901211170AB
:1003B00002200EE0012803D1042010700E2008E076
:1003C000022803D1072111701A2002E02E2111709A
:1003D00052201870052001F069F84B2001F08EF8CA
:1003E000012001F08BF8052001F074F8052001F0E0
:1003F0005DF84C2001F082F8282001F07FF80520FC
:1004000001F068F8052001F051F84E2001F076F86F
:10041000072001F073F8052001F05CF8052001F0D9
:1004200045F8512001F06AF80C4A107801F066F89E
:10043000052001F04FF8052001F038F8522001F0B6
:100440005DF8074B187801F059F8052001F042F8E3
:100450004FF47A50BDE8084000F0EEBC01000020E7
:100460000000002010B5052818BF0328044604D05A
:1004700000F0FB03082B18BF0324042001F016F83A
:10048000142001F03BF8B62001F038F8042001F008
:1004900021F8042001F00AF80F2001F02FF820467F
:1004A00001F02CF8042001F015F8042000F0FEFF04
:1004B000102001F023F80F2001F020F8042001F0B3
:1004C00009F8042000F0F2FF112001F017F80020D5
:1004D00001F014F8042000F0FDFF042000F0E6FF16
:1004E000132001F00BF8802001F008F80420BDE88B
:1004F000104000F0EFBF10B5042894BF044600245C
:10050000032000F0D3FF142000F0F8FFB62000F025
:10051000F5FF032000F0DEFF032000F0C7FF0F20EF
:1005200000F0ECFF204600F0E9FF032000F0D2FFCE
:10053000102000F0E3FF022000F0E0FF032000F0B5
:10054000C9FF032000F0B2FF112000F0D7FF002008
:1005500000F0D4FF032000F0BDFF032000F0A6FF51
:10056000132000F0CBFF002000F0C8FF0320BDE8FF
:10057000104000F0AFBF10B5042894BF044600241B
:10058000032000F093FF0F2000F0B8FF204600F09A
:10059000B5FF0320BDE8104000F09CBF38B5064C05
:1005A000064D2070288801F0E7F9288821460822A6
:1005B000BDE8384001F0D8B9CE0300204402002045
:1005C00010B50446032000F071FF8F2000F096FF65
:1005D000FF2000F093FF2070032000F07BFF042039
:1005E00000F064FF8F2000F089FFFF2000F086FFFD
:1005F0006070042000F06EFF2378617803F007003C
:1006000001F00F022070627010BD70B5002803DA8F
:100610002D2301F8013B404200230A24B0FBF4F2F1
:1006200004FB12003030C85401331046002AF4D1C4
:100630005C10CB181A46A04207DA0D5C12F8016C68
:100640000E5402F8015D0130F5E70021197070BD0C
:100650002DE9F0470024A04626462746A4469045AB
:1006600004EB030928DA051995F901A098444FEA2B
:100670000A1A1FFA8AFAA1F800A0045D4AEA1414C3
:100680000C8024B2A44495F903402401A4B24C8008
:1006900095F802A044EA1A144C8024B23F1995F947
:1006A00005402401A4B28C802D7944EA15148C8075
:1006B00024B236194C46D2E792FBF3F20FFA8CFCC7
:1006C0003FB236B29CFBF2F097FBF2F796FBF2F3E7
:1006D00008804F808B80BDE8F087000000231A025D
:1006E00092B2082012F4004F18BF09494FEA4202A3
:1006F0001ABF51408AB292B2411E11F0FF00F1D1EF
:10070000044921F813200133B3F5807FE7D1704706
:100710000580FFFFFC030020044B81EA102133F821
:10072000112082EA002080B2704700BF0200002042
:1007300030B589B00023054604200093ADF804309D
:100740000293ADF80C30ADF81030ADF81230ADF8C2
:100750001430ADF81830ADF81A30ADF81C300C4636
:1007600000F0A4FE8F2000F0C9FEFF2000F0C6FEBE
:100770002070042000F0AEFE207800F00F01217000
:10078000042000F093FE0F2000F0B8FE082000F0D7
:10079000B5FE042000F09EFE042000F087FE32200B
:1007A0007A4C00F0ABFE152000F0A8FE042000F00B
:1007B00091FE204600F040FB042000F077FE8220EE
:1007C00000F09CFEFF2000F099FE8DF80000FF2055
:1007D00000F094FE8DF80100042000F07BFE042060
:1007E00000F064FE322000F089FE162000F086FE44
:1007F000042000F06FFE204600F01EFB042000F0F5
:1008000055FE842000F07AFEFF2000F077FE8DF880
:100810000200FF2000F072FE8DF80300042000F0BB
:1008200059FE042000F042FE322000F067FE17203F
:1008300000F064FE042000F04DFE204600F0FCFABB
:10084000042000F033FE862000F058FEFF2000F068
:1008500055FE8DF80400FF2000F050FE8DF80500D5
:10086000042000F037FE042000F020FE322000F0CB
:1008700045FE112000F042FE042000F02BFE204631
:1008800000F0DAFA042000F011FE822000F036FEBB
:10089000FF2000F033FE8DF80800FF2000F02EFE50
:1008A0008DF80900042000F015FE042000F0FEFD84
:1008B000322000F023FE122000F020FE042000F081
:1008C00009FE204600F0B8FA042000F0EFFD842075
:1008D00000F014FEFF2000F011FE8DF80A00FF204A
:1008E00000F00CFE8DF80B00042000F0F3FD042056
:1008F00000F0DCFD322000F001FE132000F0FEFDD0
:10090000042000F0E7FD204600F096FA042000F0F5
:10091000CDFD862000F0F2FDFF2000F0EFFD8DF808
:100920000C00FF2000F0EAFD8DF80D00042000F01F
:10093000D1FD042000F0BAFD142000F0DFFDB62048
:1009400000F0DCFD042000F0C5FD684604A9062285
:100950000123FFF77DFE02A806A906220123FFF767
:1009600077FEBDF81830BDF81020BDF81A10D01A67
:10097000BDF8123028805A1ABDF81C00BDF81410BA
:100980006A800B1AAB8009B030BD00BF00D43000C4
:1009900030B585B00720AA2300248DF80B00032072
:1009A0008DF808308DF80930ADF806408DF80A4012
:1009B00000F07CFDBC2000F0A1FDFF2000F09EFDBA
:1009C0000546032000F086FDC5F300118DF80C10DC
:1009D00002ABE55CBDF80620294690B2FFF79CFE0D
:1009E0000134ADF80600284600F0B4FD052CEFD127
:1009F000BDF80600BDF80610C0B28CB200F0AAFD2A
:100A0000200A00F0A7FD05B030BD0000F0B585B0AC
:100A10000920AA2300248DF8070005208DF8043052
:100A20008DF80530ADF802408DF8064000F03EFD2F
:100A30004B2000F063FD012000F060FD052000F078
:100A400049FD052000F032FD4C2000F057FD2F201D
:100A500000F054FD052000F03DFD234800F0ECF9C6
:100A6000052000F023FDC22000F048FDFF2000F02B
:100A700045FD0746FF2000F041FDFF2000F03EFD50
:100A80000646FF2000F03AFDFF2000F037FD054646
:100A9000052000F01FFD07F0010706F0010605F034
:100AA00001018DF808708DF809608DF80A1001AB0E
:100AB000E55CBDF80220294690B2FFF72DFE013417
:100AC000ADF80200284600F045FD072CEFD1BDF837
:100AD0000200BDF80210C0B28CB200F03BFD200A4B
:100AE00000F038FD05B0F0BD00D4300030B585B061
:100AF0001A49AA238DF808308DF809300D78184B63
:100B0000002407204FF48042ADF806408DF80A001B
:100B10008DF80B408DF80C509A6502A9655CBDF804
:100B20000600294680B2FFF7F7FD0134ADF8060054
:100B3000284600F00FFD052CEFD1BDF80620BDF8CA
:100B40000630D0B29CB200F005FD200A00F002FD94
:100B500003494FF48040C86505B030BDCE03002086
:100B6000006000400309092B03DC0D4A03F130014A
:100B70009170A3F10A01052902D8094A373393700D
:100B800000F00F00092803DC054B00F13001D9709B
:100B9000A0F10A02052A02D801493730C87070470F
:100BA000020200202DE9F0418AB0424A07AB1068EA
:100BB0005168414C03C3906861681860206801ADBA
:100BC00003C53E4F218938682980796804AB03C387
:100BD0003889BA7AA67A188003209A70AE7000F02D
:100BE00065FC802000F08AFC002000F087FC804635
:100BF000032000F06FFC042000F058FC802000F07F
:100C00007DFC002000F07AFC0746042000F062FC26
:100C1000052000F04BFCC02000F070FC002000F02C
:100C20006DFC274D06464FF48044052000F052FC31
:100C3000AC650DF11B0515F8014F1CB1204600F005
:100C400089FCF8E74046FFF78DFF1E49085D013437
:100C500000F080FC042CF8D10DF1030515F8014FCC
:100C60001CB1204600F076FCF8E73846FFF77AFF23
:100C7000144B185D013400F06DFC042CF8D10DF11B
:100C80000F0515F8014F1CB1204600F063FCF8E792
:100C90003046FFF767FF0B48005D013400F05AFC57
:100CA000042CF8D106494FF48042CA650AB0BDE869
:100CB000F08100BF88190000941900009F190000FE
:100CC0000060004002020020F0B595B0554B4FF493
:100CD0008041054699651446A2B9534A0FAB516845
:100CE000106803C352F8080F967991889E711860B6
:100CF00099800DF13B0616F8010F00284CD000F04A
:100D000029FCF8E7012A17D1484B0FA803F1100777
:100D1000024659681868083303C2BB421046F7D12F
:100D20009E781988967011800DF13B0616F8010F18
:100D300090B300F00FFCF9E7022A15D13C4B0FA944
:100D400003F110070A4618685968083303C2BB420A
:100D50001146F7D118880DF13B06108016F8010FE7
:100D6000D0B100F0F7FBF9E7032A15D1314B0FAAF8
:100D700003F1100718685968164603C60833BB42CA
:100D80003246F7D1187830700DF13B0616F8010F96
:100D900010B100F0DFFBF9E7B5F900006946FFF795
:100DA00034FCB5F9020005A9FFF72FFCB5F90400E2
:100DB0000AA9FFF72AFC0DF1FF3616F8010F10B152
:100DC00000F0C8FBF9E7202000F0C4FB0DF113068A
:100DD00016F8010F10B100F0BDFBF9E7202000F07C
:100DE000B9FB0DF1270616F8010F10B100F0B2FBA8
:100DF000F9E7022C05D00B4B4FF48042DA6515B0B1
:100E0000F0BDB5F906000FA9FFF7FFFB202000F0A9
:100E1000A1FB0DF13B0414F8010F0028EBD000F00A
:100E200099FBF8E700600040AA190000B91900001A
:100E3000CC190000DE190000034B00225A605968EB
:100E40008142FCD3704700BF001000E0034B1A69D9
:100E500022F00400186130BF704700BF00ED00E0D1
:100E60000B4B40F2014241F205004FF480611A60E1
:100E7000586040F61542596141F6F9700B21DA606D
:100E8000986459655A6D42F00B005865704700BF71
:100E900000C40040084B4FF4407240F605405A61D0
:100EA000D860196841F6F97041F0600240F20331F0
:100EB0001A6098645965704700C00040114B4FF0AC
:100EC00080429A6280204FF08842142198631A650C
:100ED00044F20200D96448F20101D86599654FF4E3
:100EE00082001A674FF40051C022DA67C3F89800F5
:100EF000C3F8A010D3F8202142F00400C3F8200169
:100F0000704700BF00600040054B40224FF4A071C5
:100F1000A0201A60D961C3F80024C3F81C047047EC
:100F200000000140034B40F20C7200201A60586030
:100F3000704700BF00800840164B174A1A60186AB5
:100F400040F0040119621846C26A124B1207FBD521
:100F50004FF4807140F2AE3099604C22D860B321DA
:100F600005201A6159610222986204217C205A628C
:100F7000196458649A65094B0948DA6842F080712F
:100F8000D960036841F6713143F0010202600548FF
:100F9000C163704700800C402C060C00F0ED00E0AF
:100FA000001000E000000C400A4B08220A48C3F879
:100FB00080211A60C16C41F004020849C26401201A
:100FC000C860074904221A60C8604FF48060186046
:100FD000704700BF00E100E000C000400000014099
:100FE0000004014010B500F09BFA00F093FA0949A3
:100FF000094B0A88DC69094B10B21C54013290B2CB
:101000009B78088001B2994203D1BDE8104000F0FE
:1010100087BA10BDF203002000C000401402002077
:1010200008B500F085FA00F07BFA034B0349002273
:101030001E201A80887008BDF203002014020020D0
:1010400008B500F081FA024B1A68501D186008BDFF
:10105000EC03002030B5124B124AD46914F0080F8B
:101060000DD153B1013BF7E70823D3600C4B0D4A78
:10107000D06910F001010DD183B9FD210EE0002BE4
:10108000FBD000238B42EFDA50F82340054D0133AB
:10109000AC61F7E7002BF0D0013BE8E748B230BD88
:1010A0008096980000000C40094B01221861DA601C
:1010B000D96911F0060008D04A0705D411F0020FD3
:1010C0000CBF0020FE2000E0FF2040B2704700BFB0
:1010D00000000C40F7B5A64BA64A1968146891F8B1
:1010E00000E0A549A54D81F800E022782E684A70FD
:1010F000A34F36783B688E70A24C1D782468CD7063
:101100002788A14B00201F7024884FFA8EFC270AE5
:101110009E4C5F702468ADF804002768ADF80600A7
:101120009F7027683F0ADF70678884451F71E478E5
:10113000974F5C713C682778D8719F7101DC012062
:101140000870042E02D91020887001200C2A8A49C8
:101150000AD0082A08D0052A06D0032A04D0032280
:1011600095424A7002D805E0032D02D90026CE70C0
:1011700000E040B1874D288800F0FEFB28887E49BA
:10118000082200F0F1FB7C4CFFF7A8FAFFF71AF8F1
:101190006078FFF767F9A078FFF7ADF9E078FFF71F
:1011A00001F9A078FFF7E7F9FFF7FEFEFFF7ACFEC5
:1011B000FFF7B8FE00F0C2F9774B784900271E20F0
:1011C0001F808870744A754C1688A57837B2AF4274
:1011D00002D0FFF73BFEF5E72378AA2BECD160782D
:1011E000AA28E9D1644EE1783578A94240F00B8114
:1011F0002079112800F090801DD8042872D00CD8D6
:1012000001285FD04ED3022863D00328D4D164488C
:10121000FFF74CF86248022161E006286CD068D3E1
:10122000072876D01028C7D16079FFF7A4F9617933
:10123000514CA17085E0162800F0918018D8132831
:1012400000F0868077D3142800F086801528B3D16B
:10125000544E4D4D01273088EF7100F08DFB3088E2
:101260002946082200F080FB384600F0C1FAA3E7C7
:10127000222800F0B7800DD82028484F00F09C802D
:10128000212899D179794848FEF7ADFF46480321D6
:101290000022B5E0232800F0AD80FF288CD1FFF7B5
:1012A00081FC89E761794048FEF79DFF61793F48FD
:1012B000FEF7CAFF3A48FEF7F9FF3B483B49384A78
:1012C0000023C5E061793848FEF78DFF36480021DC
:1012D00005E061793548FEF7B7FF3448012100F099
:1012E00045F969E73248FFF76BF9314800F044FAF5
:1012F00062E7FFF74DFB5FE72E4C2C482146FFF7D6
:1013000017FA2A48012100F031F92078FFF7AAF8EE
:1013100052E7FFF77BFB4FE76079FFF7A3F86079AF
:101320001C4C7070208800F027FB20883146082272
:1013300000F01AFB40E76079FFF734F862790E4C51
:10134000E270144D288800F017FB28882146EEE74C
:101350006079FFF723F92FE7FFF7C8FB2CE7124866
:1013600012490F4A012300F06DF9002763E000BF26
:10137000480200203C020020CE030020080200208A
:101380003802002040020020F40300203402002034
:101390001002002044020020F2030020140200206A
:1013A000DC0300200C020020D6030020E403002010
:1013B000F0030020CD03002079793448FEF713FFB5
:1013C00079793348FEF740FF3248FEF76FFF03217B
:1013D00000222E48FFF778FC2D4803210122FFF759
:1013E00073FC0AE061792A48FEF72EFF28480321A2
:1013F000012205E02748FEF759FF26480421022272
:10140000FFF762FCD8E6E278802A7FF4D5AE277930
:10141000012F13D003D3022F7FF4CEAE12E06179F7
:101420001A48FEF7E0FE61791948FEF70DFF1948EA
:10143000FEF73CFFA779184B1F70BDE6174B002243
:101440001A60B9E6032D06D110481149114A01234B
:1014500000F0F8F8B0E61E20FFF7EEFC2823E37555
:101460000F49104C0E78E07D751EA842ECD00E4A54
:1014700000271E231780A3700B4C0A4920888E7802
:1014800005B2B542ECD0FFF7E1FCF5E7D60300204A
:10149000E4030020DC030020CC030020EC03002048
:1014A000CE03002014020020F2030020032804D100
:1014B00007494FF40040C8657047042801D1402215
:1014C00002E0052803D18022014BC3F88020704739
:1014D00000600040032804D107494FF400408865AC
:1014E0007047042801D1402202E0052802D1802261
:1014F000014BDA67704700BF00600040044B58633F
:101500001A699206FCD50248C169C8B2704700BF8B
:1015100000C40040014B01225A60704700000140A6
:10152000024B022200205A605862704700000140BE
:10153000014B01229A61704700000140014B0122DA
:101540005A60704700040140014B01229A617047C4
:1015500000040140044B1A695106FBD55863186911
:101560008206FCD5704700BF00C0004030B587B090
:101570000588AA2345F307228DF808308DF8093035
:101580008DF80D204388828800248DF80C508DF84A
:101590000E3043F30725022942F30723ADF8064036
:1015A0008DF80B408DF80F508DF810208DF811300C
:1015B00023491DD1C0884FF4804240F307258DF8A0
:1015C00012008DF813508A650E218DF80A1002ABB7
:1015D000E55CBDF80600294680B2FFF79DF80134AE
:1015E000ADF806002846FFF7B5FF0C2CEFD115E04B
:1015F0004FF480400C2588658DF80A5002ABE55CFD
:10160000BDF80620294690B2FFF786F80134ADF800
:1016100006002846FFF79EFF0A2CEFD1BDF80620F2
:10162000BDF80640D0B2A4B2FFF794FF200AFFF73E
:1016300091FF03484FF48041C16507B030BD00BF42
:101640000060004070B588B000242546ADF8024027
:101650008DF80750AA2405888DF804408DF80540C0
:1016600018248DF806408DF8085045F30724458866
:1016700080888DF8094045F307248DF80A508DF8CD
:101680000B4040F307250C888DF80D504D88898854
:101690008DF80C0044F307208DF80E408DF80F00F4
:1016A00045F3072441F307208DF810508DF81210F0
:1016B0001588518892888DF811408DF8130045F3F4
:1016C00007248DF8145041F3072042F30725012B1E
:1016D0008DF815408DF816108DF817008DF818202C
:1016E0008DF8195019D1204B2048214D1C681D211F
:1016F00002782B78200C8DF806108DF81C40210AFA
:10170000240E8DF81A208DF81B308DF81D108DF8E1
:101710001E008DF81F401C2500E01625154B4FF4C8
:1017200080429A650024AC42BDF802100CDA01AE8A
:10173000A65D88B23146FEF7EFFFADF802003046F5
:10174000FFF708FF0134EEE7BDF8020084B2C8B22B
:10175000FFF700FF200AFFF7FDFE064B4FF4804223
:10176000DA6508B070BD00BFEC030020CC03002098
:10177000CE0300200060004030B585B0AA23057874
:101780008DF808308DF809304078184B0024082176
:101790004FF48042ADF806408DF80A108DF80B40EA
:1017A0008DF80C508DF80D009A6502AD655DBDF8A1
:1017B0000610013488B22946FEF7AEFFADF80600E8
:1017C0002846FFF7C7FE062CEFD1BDF80600BDF88E
:1017D0000620C0B294B2FFF7BDFE200AFFF7BAFEA2
:1017E000024B4FF48041D96505B030BD0060004028
:1017F00018B9034B9968CB07FBD4024A10607047B5
:101800000080084000001043074880470749084A05
:10181000084B9B1A40F30580043BC858D0503FF753
:10182000FBAF05480047000081180000041A0000C3
:1018300000000020B003002055010000FEE7FEE795
:10184000FEE7FEE7FEE7FEE7FEE7FEE7FEE7FEE770
:10185000FEE7FEE7FEE7FEE7FEE7FEE7FEE7FEE760
:10186000FEE7FEE7FEE7FEE7FEE7FEE7FEE7FEE750
:10187000FEE7FEE7FEE7FEE7FEE7FEE7FEE700BF66
:101880007047000010B5034C14B1AFF3008010BDD9
:10189000204610BD0000000008B5084B04461BB1EF
:1018A0000021AFF3008001E000F00CF8044800686C
:1018B000816A01B18847204600F048F80000000026
:1018C000F419000070B5084B084C0025E01A84108C
:1018D00003EB8406043D1CB172599047013CF9E7C3
:1018E000BDE8704000F03AB8AC030020B00300201F
:1018F00038B50E4D0E4B0024E81A8510AC4205D0C9
:101900000B4951F8242090470134F7E700F020F804
:101910000849094A541AA5100024AC4205D0054BC9
:1019200053F8240080470134F7E738BDA8030020AE
:10193000A8030020A8030020AC030020821803465F
:10194000934202D003F8011BFAE77047FEE700BF9D
:10195000F8B500BFF8BC08BC9E467047F8B500BF9C
:10196000F8BC08BC9E46704701B40248844601BCDE
:10197000604700BF2103002001B40248844601BC37
:10198000604700BFB10200200A0D4779726F2D49F0
:10199000440A0D000A0D4163632D49440A0D000AF3
:1019A0000D4D61672D49440A0D000A0D4759524FEC
:1019B0004D45544552200A0D000A0D414343454C04
:1019C00045524F4D45544552200A0D000A0D4D41D8
:1019D000474E45544F4D45544552200A0D000A0DBF
:1019E00054454D5045524154555245200A0D00432F
:0C19F000000000004C020020000000007D
:0819FC0058E7FF7F0100000025
:101A04000201000005800F800A001B801E001400E4
:101A14001180338036003C00398028002D802780D7
:101A24002200638066006C00698078007D80778086
:101A34007200500055805F805A004B804E00440075
:101A44004180C380C600CC00C980D800DD80D78027
:101A5400D200F000F580FF80FA00EB80EE00E40095
:101A6400E180A000A580AF80AA00BB80BE00B400C6
:101A7400B180938096009C00998088008D80878037
:101A84008200838186018C01898198019D819781DF
:101A94009201B001B581BF81BA01AB81AE01A4014D
:101AA400A181E001E581EF81EA01FB81FE01F401FE
:101AB400F181D381D601DC01D981C801CD81C781EF
:101AC400C201400145814F814A015B815E0154019D
:101AD4005181738176017C01798168016D8167810F
:101AE4006201238126012C01298138013D8137813E
:101AF4003201100115811F811A010B810E010401AD
:101B04000181038306030C03098318031D831783D0
:101B14001203300335833F833A032B832E032403BC
:101B24002183600365836F836A037B837E0374036D
:101B34007183538356035C03598348034D8347835E
:101B44004203C003C583CF83CA03DB83DE03D4030C
:101B5400D183F383F603FC03F983E803ED83E7837E
:101B6400E203A383A603AC03A983B803BD83B783AD
:101B7400B203900395839F839A038B838E0384031C
:101B84008183800285828F828A029B829E029402D4
:101B94009182B382B602BC02B982A802AD82A78246
:101BA400A202E382E602EC02E982F802FD82F782F5
:101BB400F202D002D582DF82DA02CB82CE02C402E4
:101BC400C182438246024C02498258025D82578296
:101BD4005202700275827F827A026B826E02640204
:101BE4006182200225822F822A023B823E02340235
:101BF4003182138216021C02198208020D820782A6
:101C04000202307820200000027800000038000032
:101C14000638000000000000000000000000000082
:101C24000000000000000000000000280000000088
:101C34000000000002380000037800000178000072
:101C44000038000000780000007800000000000068
:101C54000000000000000000000000000000000080
:101C6400000000000000000000000000EF19000068
:101C74000000000000000000000000000000000060
:101C84000000000000000000000000000000000050
:101C94000000000000000000000000000000000040
:101CA4000000000000000000000000000000000030
:101CB400194B9A6842F00101996018610120D860BB
:101CC400DA69510705D59A68FF2022F0010199606D
:101CD4001FE0D9698A0705D5996821F00100986049
:101CE400FE2016E002200D4AD8600B4BD96911F092
:101CF4000100194602D012B1013AF6E72AB98B68FD
:101D040023F001008860FD2003E09A6822F00101BD
:101D1400996040B2704700BF00000C408096980064
:101D24002DE9F041164B80469868971040F0010465
:101D34009C600E460024BC4219DA08EB8405284650
:101D440000F022F8A0B9ED05E90DC1F500723B1BC6
:101D540095089D42A8BF1D466419002DEBD030465E
:101D6400012100F019F818B90436013DF5E7002007
:101D7400034940B28A6822F001038B60BDE8F08118
:101D840000000C400000000001B40248844601BC7D
:101D9400604700BFA910000001B40248844601BC9A
:101DA400604700BF5510000025010000010100003C
:0400000300001809D8
:00000001FF
