:1040000000100020D95700000F5800001158000080
:104010001358000015580000175800000D580000F4
:104020000D5800000D5800000D58000019580000F0
:104030001B5800000D5800001D5800001F580000BC
:1040400021580000235800001D500000DD4F0000E3
:10405000295800002B5800002D5800002F58000050
:104060003158000033580000355800003758000020
:10407000395800003B5800003D5800003F580000F0
:1040800041580000435800004558000047580000C0
:10409000495800004B5800004D5800000000000037
:1040A0000000000000000000000000000000000010
:1040B0000000000000000000000000000000000000
:1040C00000000000000000000000000000000000F0
:1040D00000000000000000000000000000000000E0
:1040E00000000000000000000000000000000000D0
:1040F00000000000000000000000000000000000C0
:1041000010B5054C237833B9044810B10448AFF317
:1041100000800121217010BD9402002000000000E9
:10412000A859000008B5064B1BB106480649AFF375
:1041300000800648016811B1054A02B1904708BDE8
:1041400000000000A85900009802002094020020FE
:1041500000000000154B002B08BF134B9D46A3F534
:10416000803A00218B460F461348144A121A01F078
:10417000CDFB0F4B002B00D098470E4B002B00D0EF
:1041800098470020002104460D4600200C490022DB
:10419000002301F05FFB01F093FB2046294600F06D
:1041A000F7FF01F061FB00BF0000080000100020D5
:1041B000000000000000000094020020F80400202D
:1041C0009558000008B500F0C7FE00F085FE00F02D
:1041D00059FE00F071FE00F0B5FE4BF68030BDE8F0
:1041E000084000F03BBE70B5B0B005466C4618AE56
:1041F000032001F073F9822001F098F9FF2001F00B
:1042000095F92070FF2001F091F96070FF2001F016
:104210008DF9A070FF2001F089F9E070FF2001F016
:1042200085F92071FF2001F081F9607103200634C7
:1042300001F068F9B442DBD16846294660220623C2
:1042400000F018FA30B070BD70B5B0B005466C46DD
:1042500018AE042001F042F9822001F067F9FF2036
:1042600001F064F92070FF2001F060F96070FF2018
:1042700001F05CF9A070FF2001F058F9E070FF2018
:1042800001F054F92071FF2001F050F96071042011
:10429000063401F037F9B442DBD168462946602282
:1042A000062300F0E7F930B070BD00002DE9F74FAC
:1042B0000446052001F012F94C2001F037F92E20B8
:1042C00001F034F9052001F01DF9052001F006F98F
:1042D0004C2001F02BF92A2001F028F9052001F0EB
:1042E00011F92C4B1978012908BF4FF4A07007D0A1
:1042F000042901D1284803E007290CBF2748284892
:1043000000F0ACFD052001F0E9F8C22001F00EF943
:10431000FF2001F00BF98346FF2001F007F9024668
:10432000FF20019201F002F98146FF2001F0FEF822
:104330008246FF2001F0FAF80746FF2001F0F6F868
:104340008046FF2001F0F2F80546FF2001F0EEF86C
:104350000646052001F0D6F80198CBF3C70B43B20F
:104360004FFA8AFAC9F3C7024FFA88F8C7F347072A
:1043700076B2C5F387054BEA431142EA4A1947EA88
:10438000C81745EA86152180A4F80290A780E58029
:10439000BDE8FE8F0100002000E2040000C4090017
:1043A000006A180008B52D4A2D4B18B9012111706B
:1043B00002200EE0012803D1042010700E2008E036
:1043C000022803D1072111701A2002E02E2111705A
:1043D00052201870052001F081F84B2001F0A6F85A
:1043E000012001F0A3F8052001F08CF8052001F070
:1043F00075F84C2001F09AF8282001F097F8052074
:1044000001F080F8052001F069F84E2001F08EF8E7
:10441000072001F08BF8052001F074F8052001F069
:104420005DF8512001F082F80C4A107801F07EF816
:10443000052001F067F8052001F050F8522001F046
:1044400075F8074B187801F071F8052001F05AF85B
:104450004FF47A50BDE8084000F000BD0100002094
:104460000000002010B5052818BF0328044604D01A
:1044700000F0FB03082B18BF0324042001F02EF8E2
:10448000142001F053F8B62001F050F8042001F098
:1044900039F8042001F022F80F2001F047F82046F7
:1044A00001F044F8042001F02DF8042001F016F882
:1044B000102001F03BF80F2001F038F8042001F043
:1044C00021F8042001F00AF8112001F02FF8002053
:1044D00001F02CF8042001F015F8042000F0FEFF94
:1044E000132001F023F8802001F020F80420BDE81B
:1044F000104001F007B810B5042894BF044600240A
:10450000032000F0EBFF142001F010F8B62001F0BA
:104510000DF8032000F0F6FF032000F0DFFF0F206E
:1045200001F004F8204601F001F8032000F0EAFF52
:10453000102000F0FBFF022000F0F8FF032000F045
:10454000E1FF032000F0CAFF112000F0EFFF002080
:1045500000F0ECFF032000F0D5FF032000F0BEFFC9
:10456000132000F0E3FF002000F0E0FF0320BDE88F
:10457000104000F0C7BF10B5042894BF04460024C3
:10458000032000F0ABFF0F2000F0D0FF204600F02A
:10459000CDFF0320BDE8104000F0B4BF38B50C4C8F
:1045A0000C4B207018680C4A0178156861700B4834
:1045B0002B780168A3700A4D0A782868E27000F031
:1045C0003DFD286821461022BDE8384000F0AEBD10
:1045D000E80400201C02002008020020180200202D
:1045E0001402002010B50446032000F077FF8F204E
:1045F00000F09CFFFF2000F099FF2070032000F0E6
:1046000081FF042000F06AFF8F2000F08FFFFF2061
:1046100000F08CFF6070042000F074FF2378617854
:1046200003F0070001F00F022070627010BD70B53A
:10463000002803DA2D2301F8013B404200230A241D
:10464000B0FBF4F204FB12003030C85401331046C2
:10465000002AF4D15C10CB181A46A04207DA0D5C90
:1046600012F8016C0E5402F8015D0130F5E70021EB
:10467000197070BD2DE9F0470024A0462646274654
:10468000A446904504EB030928DA051995F901A021
:1046900098444FEA0A1A1FFA8AFAA1F800A0045DAA
:1046A0004AEA14140C8024B2A44495F9034024016E
:1046B000A4B24C8095F802A044EA1A144C8024B2AB
:1046C0003F1995F905402401A4B28C802D7944EA64
:1046D00015148C8024B236194C46D2E792FBF3F2C3
:1046E0000FFA8CFC3FB236B29CFBF2F097FBF2F76C
:1046F00096FBF2F308804F808B80BDE8F0870000C6
:1047000000231A0292B2082012F4004F18BF094980
:104710004FEA42021ABF51408AB292B2411E11F0D2
:10472000FF00F1D1044921F813200133B3F5807F54
:10473000E7D170470580FFFFE8020020044B81EAC3
:10474000102133F8112082EA002080B2704700BFA8
:104750000200002030B589B00023054604200093F4
:10476000ADF804300293ADF80C30ADF81030ADF870
:104770001230ADF81430ADF81830ADF81A30ADF88D
:104780001C300C4600F0AAFE8F2000F0CFFEFF2068
:1047900000F0CCFE2070042000F0B4FE207800F081
:1047A0000F012170042000F099FE0F2000F0BEFEE2
:1047B000082000F0BBFE042000F0A4FE042000F05E
:1047C0008DFE32207A4C00F0B1FE152000F0AEFED6
:1047D000042000F097FE204600F040FB042000F08B
:1047E0007DFE822000F0A2FEFF2000F09FFE8DF8EB
:1047F0000000FF2000F09AFE8DF80100042000F078
:1048000081FE042000F06AFE322000F08FFE1620A8
:1048100000F08CFE042000F075FE204600F01EFB28
:10482000042000F05BFE842000F080FEFF2000F0FA
:104830007DFE8DF80200FF2000F078FE8DF8030069
:10484000042000F05FFE042000F048FE322000F05B
:104850006DFE172000F06AFE042000F053FE204693
:1048600000F0FCFA042000F039FE862000F05EFE25
:10487000FF2000F05BFE8DF80400FF2000F056FEE4
:104880008DF80500042000F03DFE042000F026FE17
:10489000322000F04BFE112000F048FE042000F012
:1048A00031FE204600F0DAFA042000F017FE8220E4
:1048B00000F03CFEFF2000F039FE8DF80800FF20DC
:1048C00000F034FE8DF80900042000F01BFE0420E7
:1048D00000F004FE322000F029FE122000F026FE37
:1048E000042000F00FFE204600F0B8FA042000F08B
:1048F000F5FD842000F01AFEFF2000F017FE8DF871
:104900000A00FF2000F012FE8DF80B00042000F0DA
:10491000F9FD042000F0E2FD322000F007FE132034
:1049200000F004FE042000F0EDFD204600F096FAB1
:10493000042000F0D3FD862000F0F8FDFF2000F0F9
:10494000F5FD8DF80C00FF2000F0F0FD8DF80D0056
:10495000042000F0D7FD042000F0C0FD142000F07A
:10496000E5FDB62000F0E2FD042000F0CBFD684636
:1049700004A906220123FFF77DFE02A806A906224C
:104980000123FFF777FEBDF81830BDF81020BDF801
:104990001A10D01ABDF8123028805A1ABDF81C001F
:1049A000BDF814106A800B1AAB8009B030BD00BF8F
:1049B00000D4300030B585B00720AA2300248DF83C
:1049C0000B0003208DF808308DF80930ADF8064053
:1049D0008DF80A4000F082FDBC2000F0A7FDFF200A
:1049E00000F0A4FD0546032000F08CFDC5F3001186
:1049F0008DF80C1002ABE55CBDF80620294690B29C
:104A0000FFF79CFE0134ADF80600284600F0AEFD2D
:104A1000052CEFD1BDF80600BDF80610C0B28CB26F
:104A200000F0A4FD200A00F0A1FD05B030BD00009B
:104A3000F0B585B00920AA2300248DF807000520D1
:104A40008DF804308DF80530ADF802408DF8064041
:104A500000F044FD4B2000F069FD012000F066FDF0
:104A6000052000F04FFD052000F038FD4C2000F03F
:104A70005DFD2F2000F05AFD052000F043FD234886
:104A800000F0ECF9052000F029FDC22000F04EFDF9
:104A9000FF2000F04BFD0746FF2000F047FDFF2000
:104AA00000F044FD0646FF2000F040FDFF2000F02E
:104AB0003DFD0546052000F025FD07F0010706F045
:104AC000010605F001018DF808708DF809608DF878
:104AD0000A1001ABE55CBDF80220294690B2FFF751
:104AE0002DFE0134ADF80200284600F03FFD072CF2
:104AF000EFD1BDF80200BDF80210C0B28CB200F0D8
:104B000035FD200A00F032FD05B0F0BD00D43000C4
:104B100030B585B01A49AA238DF808308DF80930D0
:104B20000D78184B002407204FF48042ADF8064062
:104B30008DF80A408DF80B008DF80C509A6502A98B
:104B4000655CBDF80600294680B2FFF7F7FD013429
:104B5000ADF80600284600F009FD052CEFD1BDF8A0
:104B60000620BDF80630D0B29CB200F0FFFC200A4F
:104B700000F0FCFC03494FF48040C86505B030BD2F
:104B8000E8040020006000400309092B03DC0D4A03
:104B900003F130019170A3F10A01052902D8094AF5
:104BA0003733937000F00F00092803DC054B00F148
:104BB0003001D970A0F10A02052A02D80149373024
:104BC000C8707047020200202DE9F0418AB0424AC5
:104BD00007AB10685168414C03C390686168186066
:104BE000206801AD03C53E4F218938682980796866
:104BF00004AB03C33889BA7AA67A188003209A7066
:104C0000AE7000F06BFC802000F090FC002000F003
:104C10008DFC8046032000F075FC042000F05EFC53
:104C2000802000F083FC002000F080FC0746042078
:104C300000F068FC052000F051FCC02000F076FC7C
:104C4000002000F073FC274D06464FF480440520F9
:104C500000F058FCAC650DF11B0515F8014F1CB1B7
:104C6000204600F083FCF8E74046FFF78DFF1E4921
:104C7000085D013400F07AFC042CF8D10DF1030535
:104C800015F8014F1CB1204600F070FCF8E73846DB
:104C9000FFF77AFF144B185D013400F067FC042C19
:104CA000F8D10DF10F0515F8014F1CB1204600F0A9
:104CB0005DFCF8E73046FFF767FF0B48005D013405
:104CC00000F054FC042CF8D106494FF48042CA6528
:104CD0000AB0BDE8F08100BF385900004459000017
:104CE0004F5900000060004002020020F0B595B06E
:104CF000554B4FF48041054699651446A2B9534A75
:104D00000FAB5168106803C352F8080F9679918869
:104D10009E71186099800DF13B0616F8010F00286E
:104D20004CD000F023FCF8E7012A17D1484B0FA81C
:104D300003F11007024659681868083303C2BB42E2
:104D40001046F7D19E781988967011800DF13B06B8
:104D500016F8010F90B300F009FCF9E7022A15D10B
:104D60003C4B0FA903F110070A461868596808332D
:104D700003C2BB421146F7D118880DF13B061080E3
:104D800016F8010FD0B100F0F1FBF9E7032A15D1B5
:104D9000314B0FAA03F1100718685968164603C66D
:104DA0000833BB423246F7D1187830700DF13B061C
:104DB00016F8010F10B100F0D9FBF9E7B5F90000C2
:104DC0006946FFF734FCB5F9020005A9FFF72FFC8F
:104DD000B5F904000AA9FFF72AFC0DF1FF3616F811
:104DE000010F10B100F0C2FBF9E7202000F0BEFB7C
:104DF0000DF1130616F8010F10B100F0B7FBF9E73B
:104E0000202000F0B3FB0DF1270616F8010F10B1BA
:104E100000F0ACFBF9E7022C05D00B4B4FF48042BD
:104E2000DA6515B0F0BDB5F906000FA9FFF7FFFB75
:104E3000202000F09BFB0DF13B0414F8010F00282B
:104E4000EBD000F093FBF8E7006000405A590000F7
:104E5000695900007C5900008E590000034B002264
:104E60005A6059688142FCD3704700BF001000E0CF
:104E7000034B1A6922F00400186130BF704700BF6D
:104E800000ED00E00B4B40F2014241F205004FF40F
:104E900080611A60586040F61542596141F6F97018
:104EA0000B21DA60986459655A6D42F00B00586521
:104EB000704700BF00C40040064B4FF480725A6137
:104EC00040F6054041F6F97140F20332D86099642A
:104ED0005A65704700C00040114B4FF080429A6203
:104EE00080204FF08842142198631A6544F2020032
:104EF000D96448F20101D86599654FF482001A67B8
:104F00004FF40051C022DA67C3F89800C3F8A0102C
:104F1000D3F8202142F00400C3F82001704700BFFD
:104F200000600040054B40224FF4C85001211A6038
:104F3000D861D960024B04221A607047000001401A
:104F400000E100E0034B40F60C2200201A6058609C
:104F5000704700BF00800840144B154A1A60186A59
:104F600040F0040119621846C26A104B1207FBD5C3
:104F70004FF4807140F2AE3099604C22D860B3217A
:104F800005201A6159610222986204215C205A624C
:104F900019645864074B0848DA6842F08071D96098
:104FA000036843F001020260704700BF00800C40BC
:104FB0002C060C00F0ED00E0001000E0054B08228C
:104FC0000548C3F880211A60C16C41F00403C36432
:104FD000704700BF00E100E000C0004010B50C4C7D
:104FE000B4F900300BB900F0ADFA0A482288C06964
:104FF000094B11B25854013290B29B7801B29942D8
:10500000208003D1BDE8104000F0A2BA10BD00BF5F
:10501000E602002000C00040C602002008B500F0F3
:105020009FFA00F095FA034B034900220A201A80E8
:10503000887008BDE6020020C6020020194B9A685D
:1050400042F00101996018610120D860DA695107C6
:1050500005D59A68FF2022F0010199601FE0D96907
:105060008A0705D5996821F001009860FE2016E0B6
:1050700002200D4AD8600B4BD96911F00100194686
:1050800002D012B1013AF6E72AB98B6823F0010089
:105090008860FD2003E09A6822F00101996040B227
:1050A000704700BF00000C408096980030B5124B4E
:1050B000124AD46914F0080F0DD153B1013BF7E740
:1050C0000823D3600C4B0D4AD06910F001010DD1BB
:1050D00083B9FD210EE0002BFBD000238B42EFDAD9
:1050E00050F82340054D0133AC61F7E7002BF0D0B9
:1050F000013BE8E748B230BD8096980000000C40C4
:10510000094B01221861DA60D96911F0060008D054
:105110004A0705D411F0020F0CBF0020FE2000E06A
:10512000FF2040B2704700BF00000C402DE9F04165
:10513000164B80469868971040F001049C600E461C
:105140000024BC4219DA08EB84052846FFF7D8FF93
:10515000A0B9ED05E90DC1F500723B1B95089D4214
:10516000A8BF1D466419002DEBD030460121FFF782
:105170009DFF18B90436013DF5E70020034940B210
:105180008A6822F001038B60BDE8F08100000C40CA
:10519000F7B5A44900230A68A34C16781846ADF861
:1051A0000430ADF80630A14B25681E70A04F2A7858
:1051B00039685A709F4C0D7827689D709E493C78DD
:1051C0000968DC700F881F7109880F0A9B495F719D
:1051D00009680F689F710F683F0ADF714F881F725F
:1051E000C978FF27597296499F72DF720F68397824
:1051F000197358739873D87370B2002801DC0126B4
:105200001E70042D01D910259D70052A18BF032A90
:1052100006D002F0FB03082B02D0844F03227A70E1
:10522000032C824C01D90021E170864E3068FFF7D3
:1052300005FF7E4910223068FFF778FFFFF760FA1C
:10524000FEF7C0FF6078FFF70DF9A078FFF753F97C
:10525000E078FFF7A7F8A078FFF78DF9FFF7AEFE2B
:10526000FFF760FE784D794B00200A2228809A7063
:10527000754F764C3988A67808B2B04202D0FFF755
:10528000F7FDF5E72578AA2DECD16278AA2AE9D1B5
:10529000664FE37839789942E4D12679102E6DD0A3
:1052A00021D8032E4DD013D8012E3AD040D86179A1
:1052B0006748FEF798FF61796648FEF7C5FF6648C4
:1052C000FEF7F4FF62486349634A00F0C7F9C9E793
:1052D000052E43D03BD3062E43D0072E40F0F2805C
:1052E000FFF7A6FBBEE7202E00F0BC800BD8122EE5
:1052F0007AD05CD3132E00F08F80142E40F0E28021
:10530000FFF706FCAEE7222E00F0CB80C0F0C08095
:10531000232E00F0CE80FF2E40F0D480FFF754FC07
:10532000A0E761794A48FEF75EFF4948002105E0A1
:1053300061794848FEF788FF4648012100F022F9CC
:1053400090E74548FEF7B2FF43480221F6E743489D
:10535000FFF748F9414800F0F7F983E7FFF72AFB28
:1053600080E73F4C3B482146FFF7F4F939480121DB
:1053700000F008F92078FFF775F873E76079FFF718
:10538000FAF8284A2848136805681978294B3970B3
:105390002A78647919687A70BC700878294DF87099
:1053A0002868FFF74BFE28683946324619E0274D3A
:1053B0001F4C6879FFF756F81A4A1C4E1368697932
:1053C0001F782068717037701A4A05781368B570B5
:1053D0001C4C1F782068F770FFF730FE20683146BC
:1053E0001022FFF7A3FE3DE70E4E6079FEF7DAFFCD
:1053F00031680D4D08782A6838700D4E1378316881
:105400007B7008780F4D6479B8702868FC70FFF7DE
:1054100015FE28683946E3E70C484079FFF7BEF8E7
:1054200020E700BF240200201C020020E804002026
:105430000802002018020020200200200C02002098
:105440001002002014020020E6020020C602002004
:10545000B2020020C0020020B8020020E4020020B6
:10546000B002002061791948FEF7BDFE6179184845
:10547000FEF7EAFE1748FEF719FF03210022134842
:10548000FFF734FC124803210122FFF72FFC13E041
:10549000114F0E487979FEF7A6FE0C480321002231
:1054A0000DE061790A48FEF7CFFE09480321012289
:1054B00005E00848FEF7FAFE064804210222FFF73D
:1054C00015FCCFE6012000F07BF9CBE6B20200200C
:1054D000C0020020B8020020C6020020032804D128
:1054E00007494FF40040C8657047042801D14022A5
:1054F00002E0052803D18022014BC3F880207047C9
:1055000000600040032804D107494FF4004088653B
:105510007047042801D1402202E0052802D18022F0
:10552000014BDA67704700BF00600040044B5863CE
:105530001A699206FCD50248C169C8B2704700BF1B
:1055400000C40040014B01225A6070470000014036
:10555000024B022200205A6058627047000001404E
:10556000014B01229A61704700000140044B1A6907
:105570005106FBD5586318698206FCD5704700BFF9
:1055800000C0004030B587B00588AA2345F3072244
:105590008DF808308DF809308DF80D204388828809
:1055A00000248DF80C508DF80E3043F307250229A6
:1055B00042F30723ADF806408DF80A408DF80F50EE
:1055C0008DF810208DF8113023491DD1C0884FF47B
:1055D000804240F307258DF812008DF813508A653C
:1055E0000E218DF80B1002ABE55CBDF806002946D4
:1055F00080B2FFF7A3F80134ADF806002846FFF7A4
:10560000B5FF0C2CEFD115E04FF480400C258865D8
:105610008DF80B5002ABE55CBDF80620294690B230
:10562000FFF78CF80134ADF806002846FFF79EFF1F
:105630000A2CEFD1BDF80620BDF80640D0B2A4B2C6
:10564000FFF794FF200AFFF791FF03484FF48041D2
:10565000C16507B030BD00BF0060004030B589B003
:10566000AA238DF808308DF80930038818258DF8A5
:105670000B508DF80C3043F30725438880888DF854
:105680000D5043F307258DF80E308DF80F5040F381
:1056900007230D888DF811304B8889888DF810000C
:1056A00045F307208DF812508DF8130043F30725BA
:1056B00041F307208DF814308DF8161013885188A7
:1056C00092888DF815508DF8170043F307258DF853
:1056D0001A1041F307201B4900248DF818308DF86B
:1056E000195042F307234FF48045ADF806408DF87A
:1056F0000A408DF81B008DF81C208DF81D308D653B
:1057000002AAA55CBDF80600294680B2FFF716F88C
:105710000134ADF806002846FFF728FF162CEFD11C
:10572000BDF80630BDF80610D8B28CB2FFF71EFFE8
:10573000200AFFF71BFF034A4FF48040D06509B0F1
:1057400030BD00BF0060004030B585B0AA230578A9
:105750008DF808308DF809304078184B0024082166
:105760004FF48042ADF806408DF80A408DF80B10DA
:105770008DF80C508DF80D009A6502AD655DBDF891
:105780000610013488B22946FEF7D8FFADF80600AE
:105790002846FFF7EBFE062CEFD1BDF80600BDF85A
:1057A0000620C0B294B2FFF7E1FE200AFFF7DEFE4A
:1057B000024B4FF48041D96505B030BD0060004018
:1057C00018B9034B9968CB07FBD4024A10607047A5
:1057D0000080084000001043074880470749084AF6
:1057E000084B9B1A40F30580043BC858D0503FF744
:1057F000FBAF05480047000051580000B4590000B5
:10580000000000209402002055410000FEE7FEE762
:10581000FEE7FEE7FEE7FEE7FEE7FEE7FEE7FEE760
:10582000FEE7FEE7FEE7FEE7FEE7FEE7FEE7FEE750
:10583000FEE7FEE7FEE7FEE7FEE7FEE7FEE7FEE740
:10584000FEE7FEE7FEE7FEE7FEE7FEE7FEE700BF56
:105850007047000010B5034C14B1AFF3008010BDC9
:10586000204610BD0000000008B5084B04461BB1DF
:105870000021AFF3008001E000F00CF8044800685C
:10588000816A01B18847204600F048F80000000016
:10589000A459000070B5084B084C0025E01A84108C
:1058A00003EB8406043D1CB172599047013CF9E7B3
:1058B000BDE8704000F03AB8900200209402002049
:1058C00038B50E4D0E4B0024E81A8510AC4205D0B9
:1058D0000B4951F8242090470134F7E700F020F8F5
:1058E0000849094A541AA5100024AC4205D0054BBA
:1058F00053F8240080470134F7E738BD8C020020BC
:105900008C0200208C0200209002002082180346A6
:10591000934202D003F8011BFAE77047FEE700BF8D
:10592000F8B500BFF8BC08BC9E467047F8B500BF8C
:10593000F8BC08BC9E4670470A0D4779726F2D4926
:10594000440A0D000A0D4163632D49440A0D000A03
:105950000D4D61672D49440A0D000A0D4759524FFC
:105960004D45544552200A0D000A0D414343454C14
:1059700045524F4D45544552200A0D000A0D4D41E8
:10598000474E45544F4D45544552200A0D000A0DCF
:1059900054454D5045524154555245200A0D00433F
:0C59A000000000002802002000000000B1
:0859AC00A8E7FF7F01000000E5
:1059B4000201000005800F800A001B801E001400F5
:1059C4001180338036003C00398028002D802780E8
:1059D4002200638066006C00698078007D80778097
:1059E4007200500055805F805A004B804E00440086
:1059F4004180C380C600CC00C980D800DD80D78038
:105A0400D200F000F580FF80FA00EB80EE00E400A5
:105A1400E180A000A580AF80AA00BB80BE00B400D6
:105A2400B180938096009C00998088008D80878047
:105A34008200838186018C01898198019D819781EF
:105A44009201B001B581BF81BA01AB81AE01A4015D
:105A5400A181E001E581EF81EA01FB81FE01F4010E
:105A6400F181D381D601DC01D981C801CD81C781FF
:105A7400C201400145814F814A015B815E015401AD
:105A84005181738176017C01798168016D8167811F
:105A94006201238126012C01298138013D8137814E
:105AA4003201100115811F811A010B810E010401BD
:105AB4000181038306030C03098318031D831783E1
:105AC4001203300335833F833A032B832E032403CD
:105AD4002183600365836F836A037B837E0374037E
:105AE4007183538356035C03598348034D8347836F
:105AF4004203C003C583CF83CA03DB83DE03D4031D
:105B0400D183F383F603FC03F983E803ED83E7838E
:105B1400E203A383A603AC03A983B803BD83B783BD
:105B2400B203900395839F839A038B838E0384032C
:105B34008183800285828F828A029B829E029402E4
:105B44009182B382B602BC02B982A802AD82A78256
:105B5400A202E382E602EC02E982F802FD82F78205
:105B6400F202D002D582DF82DA02CB82CE02C402F4
:105B7400C182438246024C02498258025D825782A6
:105B84005202700275827F827A026B826E02640214
:105B94006182200225822F822A023B823E02340245
:105BA4003182138216021C02198208020D820782B6
:105BB40002023078202000000278000006780000FD
:105BC4000C780000007800000378000001780000E1
:105BD40004780000007800000000000000000000CD
:105BE40000000000000000000000000000000000B1
:105BF40000000000000000009F59000000000000A9
:105C04000000000000000000000000000000000090
:105C14000000000000000000000000000000000080
:105C24000000000000000000000000000000000070
:105C340000000000000000000000000025410000FA
:045C4400014100001A
:04000003000057D9C9
:00000001FF
